:020000040800F2
:100000008808002439030008452600085125000807
:1000100041260008990C000859290008000000003A
:100020000000000000000000000000007B27000826
:100030009D0C000800000000492600087D270008EC
:100040005303000853030008530300085303000838
:100050005303000853030008530300085303000828
:100060005303000853030008530300085303000818
:100070005303000853030008530300085303000808
:1000800053030008530300085303000853030008F8
:1000900053030008530300085303000853030008E8
:1000A00053030008530300085303000853030008D8
:1000B00053030008530300085303000853030008C8
:1000C00053030008530300085303000853030008B8
:1000D00053030008530300085303000853030008A8
:1000E0009F0C0008530300080000000053030008A1
:1000F0005303000853030008530300085303000888
:100100005303000853030008530300085303000877
:100110005303000853030008530300085303000867
:100120005303000853030008530300085303000857
:100130005303000853030008530300085303000847
:1001400000000000000000000000000000000000AF
:100150005303000853030008530300085303000827
:100160005303000853030008530300085303000817
:100170005303000853030008530300080000000065
:1001800053030008530300085303000853030008F7
:1001900053030008530300085303000853030008E7
:1001A00053030008530300085303000853030008D7
:1001B00053030008530300085303000853030008C7
:1001C00053030008530300085303000853030008B7
:1001D00053030008530300085303000853030008A7
:1001E0005303000853030008530300085303000897
:1001F0005303000853030008530300085303000887
:100200005303000853030008530300085303000876
:100210005303000853030008530300085303000866
:1002200053030008530300085303000800000000B4
:1002300053030008530300080000000053030008A4
:100240005303000853030008530300085303000836
:100250005303000853030008530300085303000826
:100260005303000853030008530300085303000816
:100270005303000853030008530300080000000064
:100280005303000853030008530300080000000054
:10029000000000005303000800F002F800F03CF8F2
:1002A0000AA090E8000C82448344AAF10107DA45D1
:1002B00001D100F031F8AFF2090EBAE80F0013F0E7
:1002C000010F18BFFB1A43F0010318471C27000059
:1002D0003C270000103A24BF78C878C1FAD85207EA
:1002E00024BF30C830C144BF04680C6070470000B0
:1002F0000023002400250026103A28BF78C1FBD82F
:10030000520728BF30C148BF0B6070471FB502F0CD
:100310005DFB1FBD10B510BD00F058F81146FFF78A
:10032000F5FF02F037FB00F076F803B4FFF7F2FFB9
:1003300003BC00F07DF800000948804709480047E9
:10034000FEE7FEE7FEE7FEE7FEE7FEE7FEE7FEE785
:10035000FEE7FEE704480549054A064B70470000E2
:100360005528000899020008880200248808002403
:1003700088040024880400244FF0000200B51346CE
:1003800094469646203922BFA0E80C50A0E80C50B5
:10039000B1F12001BFF4F7AF090728BFA0E80C5066
:1003A00048BF0CC05DF804EB890028BF40F8042B5F
:1003B00008BF704748BF20F8022B11F0804F18BFCC
:1003C00000F8012B7047704770477047754600F082
:1003D0002BF8AE4605006946534620F007008546D7
:1003E00018B020B5FFF7B6FFBDE820404FF000067B
:1003F0004FF000074FF000084FF0000B21F007010D
:10040000AC46ACE8C009ACE8C009ACE8C009ACE84F
:10041000C0098D46704710B50446AFF300802046F2
:10042000BDE81040FFF781BF004870472802002454
:1004300001491820ABBEFEE726000200704700000D
:1004400000B589B00020079000BFFE48006840F06A
:100450000200FC4908600846006800F002000190B4
:1004600000BF00BF01200390049002200590C0014E
:10047000029002A9F44800F051FC01221146282004
:1004800000F012FE282000F0D9FD01221102EE48F2
:1004900000F048FD02F0A4F800224FF48071EA4811
:1004A00000F040FD0A2000F003FC00F0D5FB0A201C
:1004B00000F0FEFB01221102E34800F033FD0020B2
:1004C000E2494870012088700121E04881710221D1
:1004D000C1710173032141730175417504210176D6
:1004E000022141760521C17601210177062180F89C
:1004F0002410032180F82510072180F82C100321F7
:1005000080F82D10082180F83110012180F8321078
:100510000020089012E008980930C1B2CB4834306E
:10052000089A00EB820081700221C8483430089A92
:1005300000EB8200C1700898401C089008981128B0
:10054000E9DB0020089012E008981930C1B2BF48DA
:100550007030089A00EB820081700221BB48703035
:10056000089A00EB8200C1700898401C0890089817
:100570000828E9DB0020089012E008982130C1B279
:10058000B2489030089A00EBC20001710321AF48D5
:100590009030089A00EBC20041710898401C089006
:1005A00008980828E9DB0020089012E00898293014
:1005B000C1B2A648D030089A00EBC20001710321F5
:1005C000A248D030089A00EBC20041710898401C44
:1005D000089008980828E9DB0020089010E00898A7
:1005E0003130C1B29A48089A00EBC2000171032170
:1005F0009748089A00EBC20041710898401C089087
:1006000008980828EBDB642000F052FB8F4A117F2A
:10061000D07E00F029F98D4988760846808820F43C
:10062000806000F5806088800846808820F48050D3
:1006300088800846808820F4006000F5006088808B
:100640000846808820F4806088800846808820F4EE
:10065000007088800846808820F4807000F58070E3
:1006600088800846808820F0C000C0308880084616
:10067000808820F03C0088800846808E20F400406E
:1006800000F5004088860846808E20F4E040888689
:100690000846808E20F4787088860846808E20F088
:1006A0001F00401C88860B4693F83720998E93F8DC
:1006B000360000F015F96749096808446549086083
:1006C0006248008F20F4004000F500405F49088731
:1006D0000846008F20F4E0415C480187008F20F439
:1006E00078704030594908870846008F20F01F0075
:1006F000C01C08870B4693F83B20198F93F83A00EB
:1007000000F0EEF8534909680844524908604F4820
:10071000B0F8700020F4006000F500604B49A1F8CB
:1007200070000846B0F8700020F4C060A1F87000B6
:100730000846B0F8700020F48070A1F870000846F8
:10074000B0F8700020F08000A1F870000846B0F802
:10075000700020F040004030A1F870000846B0F86A
:10076000700020F020002030A1F870000846B0F89A
:10077000700020F01800A1F870000846B0F8700072
:1007800020F00700A1F870000B4693F87320B3F82F
:10079000701093F8720000F0A3F82E49096808441D
:1007A0002C4908602948D0F8900020F460002749BF
:1007B000C1F890000846D0F8900020F4602000F5C1
:1007C000C020C1F890000846D0F890006FF30A00EE
:1007D00000F5F060C1F890000B4693F89520D3F82F
:1007E000901093F8940000F07BF81A4909680844C7
:1007F000184908601548008A20F4E06000F5807010
:10080000124908820846008A20F00F00801C0882E6
:100810000B465A7D198A187D00F062F80D49096867
:1008200008440C4908600948C08A20F008000830D4
:100830000649C8820B465A7ED98A187E00F050F8C5
:10084000044909E0E0440258000402582000002452
:10085000300100247001002409680844014908603F
:1008600009B000BD70010024FEB506460F46002405
:1008700000200290402002909DF808003043029032
:1008800000224FF48071144800F04CFB0A20012331
:1008900001AA02A90090114801F040FCFF2002903B
:1008A00000250FE0002D00DD24020A20012301AA0B
:1008B00002A90090094801F031FC9DF804000443AE
:1008C000681CC5B2BD42EDDB01221102024800F0F6
:1008D00029FB2046FEBD000000040258A0010024B0
:1008E000F7B584B00D46144600260020039000277B
:1008F00000224FF480711C4800F014FB0A200123F1
:1009000002AA04A90090194801F008FC019000BF58
:1009100010E0A01B401EC00025FA00F0C0B20390FA
:100920000A20012302AA03A90090104801F0F6FB57
:10093000701CC6B2A642ECDB21469DF81000FFF702
:1009400093FF0746AF4207D101221102064800F08B
:10095000E9FA002007B0F0BD01221102024800F0C0
:10096000E1FA0120F6E7000000040258A00100248B
:10097000F7B584B00E4614460025002003900027EA
:100980000A20012302AA04A900900E4801F0C6FB28
:10099000019000BF10E0601B401EC00026FA00F06E
:1009A000C0B203900A20012302AA03A900900548BF
:1009B00001F0B4FB681CC5B2A542ECDB002007B017
:1009C000F0BD0000A0010024B0EE401B9FED162BEF
:1009D000B0EE420B70B99FED162AC1EE022A02EE6C
:1009E000101AB8EE422A22EE822AB7EEC22AB0EEE0
:1009F000420B11E002EE101AB8EE423B9FED0D4B98
:100A000083EE042BB7EE003B32EE432BB0EE043BFB
:100A100022EE032BB0EE420BB7EEE12A20EE022BC2
:100A2000B0EE420B70470000000000000000000024
:100A30000000804B000000000000604110B58AB04B
:100A400000200990089078480078052874D2DFE8E3
:100A500000F00310454C560000224FF4807173489B
:100A600000F060FA012000F023F901206E490870BF
:100A7000D7E06F48808820F4806000F580606C4982
:100A800088800846808820F4006088800846808836
:100A900020F03C00001D88800B46DA79998898790F
:100AA000FFF766FF6349096808446249086002204D
:100AB0005D490870400360490860282000F0E0FAB2
:100AC0004FF4804002905D48039001200490022082
:100AD000059002A9554800F021F9A2E001205849EB
:100AE00008600320504908709BE05548006828B909
:100AF00001205349086004204B49087091E04FF4ED
:100B00008040029002200390012004900220059072
:100B10000520069002A9454800F000F942200890FF
:100B20000A20012307AA08A90090464801F0F6FA16
:100B300000200890002414E072E0002C02DD0998E7
:100B4000000209900A20012307AA08A900903D4845
:100B500001F0E4FA9DF81C10099808430990601C04
:100B6000C4B2032CE9DB0A20012307AA08A90090DC
:100B7000344801F0D3FA9DF81C0000F0010032491E
:100B800008703249304A127801EB02110998486026
:100B9000002009902E480078401C2D490870084616
:100BA0000078022817DA4FF4804023490860282093
:100BB00000F066FA4FF48040029020480390012034
:100BC00004900220059002A9184800F0A7F802201E
:100BD0001549087023E000201D490870124908706B
:100BE00001221102114800F09DF918484168F7EE02
:100BF000000AB0EE040A0120FFF7E6FE134880ED7C
:100C0000020B4169DFED130AB0EE040A0120FFF781
:100C1000DBFE0E4880ED060B01200AB010BD00E09F
:100C200000BF00BF0020F8E70500002400040258C0
:100C300020000024700100248800005800002111C9
:100C400000000024A00100240400002480010024EE
:100C500006000024002474491FB5002400200390DE
:100C60000AA103C9CDE9010100BF09E00A200090F3
:100C700001A80119012303AA064801F04FFA641CD8
:100C8000082CF3DB002004B010BD0000FFFFFFFFC5
:100C9000FFFFFFFFA001002400BFFEE7704710B573
:100CA0004FF4804000F02CF810BD72B600BFFEE794
:100CB00070B5044600F042F906462546681C10B19E
:100CC00004480078054400BF00F038F9801BA842B2
:100CD000FAD370BD1400002410B50446064800681D
:100CE00080F400500449086000200449086028206E
:100CF00000F0A4F910BD0000140802580000002400
:100D000010B5044604480068204020B10248046041
:100D10002046FFF7E1FF10BD88000058F8B50246F5
:100D20000023734DDEE001279F400E6806EA0704AA
:100D3000002C71D04E68012E08D04E68022E05D0CE
:100D40004E68112E02D04E68122E13D190685F00AB
:100D50000326BE40B0435F00CE68BE403043906083
:100D6000506801269E40B0430E79C6F300169E409F
:100D700030435060D0685F000326BE40B0435F0040
:100D80008E68BE403043D0604E68022E02D04E685E
:100D9000122E13D1DF0802F1200656F827005E0755
:100DA000F70E0F26BE40B0435F07FF0E0E69BE4030
:100DB0003043DF0802F1200646F8270010685F0084
:100DC0000326BE40B0430E7906F003065F00BE4026
:100DD000304310604E6806F08056B6F1805F1BD13C
:100DE00000BF444E366846F00206424F3E603E4623
:100DF000366806F00206009600BF00BF3E4E9F0810
:100E000056F827009E07370F0F26BE40B0433B4ED3
:100E1000B24202D100262EE063E0394EB24201D147
:100E2000012628E0374EB24201D1022623E0364E99
:100E3000B24201D103261EE0344EB24201D1042653
:100E400019E0334EB24201D1052614E0314EB242D0
:100E500001D106260FE0304EB24201D107260AE04A
:100E60002E4EB24201D1082605E02D4EB24201D1EC
:100E7000092600E00A269F073F0FBE4030431E4E62
:100E80009F0846F827002868A0434E6806F480367D
:100E9000B6F5803F00D1204328606868A0434E68C3
:100EA00006F40036B6F5003F00D1204368604FF0ED
:100EB000B0463068A0434E6806F48016B6F5801F31
:100EC00000D120434FF0B04630607068A0434E68B8
:100ED00006F40016B6F5001F00D120434FF0B046CF
:100EE00070605B1C0E68DE40002E7FF41CAFF8BD06
:100EF00080000058F44402580804005800000258CA
:100F00000004025800080258000C02580010025851
:100F10000014025800180258001C02580020025801
:100F2000002402580AB1816101E00B04836170471B
:100F300001480068000C70470010005C0148006820
:100F4000704700000C00002403480068034909783A
:100F500008440149086070470C0000241400002474
:100F600010B5032000F0DEF800F0B0FA104909686F
:100F7000C1F303210F4A515C01F01F0120FA01F473
:100F80000B48006800F00F001146085C00F01F00DD
:100F900024FA00F00849086008480460002000F0C6
:100FA0000FF808B1012010BD00F036F80020FAE774
:100FB00018440258D62900081C00002418000024F8
:100FC00070B504461148007808B9012070BD0F487B
:100FD00000784FF47A71B1FBF0F00D490968B1FB6C
:100FE000F0F5284601F09AFA08B10120EEE7102C3E
:100FF00007D200222146501E00F056F80548046032
:1010000001E00120E2E70020E0E7000014000024F6
:10101000180000241000002408B500BF064800682E
:1010200040F00200044908600846006800F0020031
:10103000009000BF00BF08BDF444025810B501463F
:101040000846002817DB00F01F0301229A400B4BD3
:10105000440943F8242000BF00BF00BFBFF34F8FF7
:1010600000BF00BF00BF00BF00BF00BFBFF36F8F56
:1010700000BF00BF00BF00BF10BD000080E100E066
:101080000146084600280DDB00BF00BF00F01F032B
:1010900001229A4043099B0003F1E023C3F8002199
:1010A00000BF00BF00BF70472DE9F05F80460D46CE
:1010B000164601F053FC074639462A46334601F0EE
:1010C0000700C0F1070ABAF1040F02D94FF0040A71
:1010D00001E0C0F1070AD14600F1040ABAF1070F96
:1010E00002D24FF0000A01E0A0F1030AD4464FF00B
:1010F000010A0AFA09FAAAF1010A0AEA020A0AFA34
:101100000CFA4FF0010B0BFA0CFBABF1010B0BEAE5
:10111000030B4AEA0B042146404601F027FCBDE8D8
:10112000F09F000000BF00F00702064B19684FF661
:10113000FF031940044B0B4343EA0221014B1960A2
:1011400000BF70470CED00E00000FA0570B50446E2
:1011500015480068C0F3800048B91348006800F0E3
:101160000700A04201D0012070BD0020FCE70E481E
:10117000006820F0070020430B490860FFF7DEFEFF
:10118000054607E0FFF7DAFE401BB0F57A7F01D98C
:101190000120E9E7044808380068C0F3403000281F
:1011A000F0D00020E0E700000C4802582DE9F041A3
:1011B00004460D4614B90120BDE8F081BD48006821
:1011C00000F00F00A8420ED2BA48006820F00F00CD
:1011D0002843B84908600846006800F00F00A8429C
:1011E00001D00120E8E7207800F0040004280ED1A7
:1011F000B1492069096801F07001884207D9AE48F9
:10120000006820F0700021690843AB49086020782D
:1012100000F00800082811D1A749091D6069096874
:1012200001F07001884209D9A348001D006820F030
:10123000700061690843A049091D0860207800F02A
:101240001000102811D19C49091DA069096801F4FA
:10125000E061884209D99848001D006820F4E060E8
:10126000A16908439449091D0860207800F0200016
:10127000202811D190490831E069096801F0700116
:10128000884209D98C480830006820F07000E16974
:101290000843894908310860207800F002000228DC
:1012A0000ED18549E068096801F00F01884207D92D
:1012B0008148006820F00F00E16808437E4908601B
:1012C000207800F00100002850D07B48006820F40E
:1012D0007060A1680843784908606068022807D1F7
:1012E000754818380068C0F34040F8B9012063E73A
:1012F0006068032807D1704818380068C0F3406060
:10130000A0B9012058E76068012807D16A48183859
:101310000068C0F3002048B901204DE7664818383E
:101320000068C0F3800008B9012045E7624808382A
:10133000006820F00700616808435F4908390860C9
:10134000FFF7FCFD064608E0FFF7F8FD801B41F2C1
:101350008831884201D903202EE7574808380068B1
:1013600000F038006168B0EBC10FEDD1207800F0DB
:10137000020002280ED15049E068096801F00F010F
:10138000884207D24C48006820F00F00E16808430B
:10139000494908604748006800F00F00A8420ED98C
:1013A0004448006820F00F0028434249086008467E
:1013B000006800F00F00A84201D00120FCE6207870
:1013C00000F0040004280ED13B492069096801F0AF
:1013D0007001884207D23848006820F07000216907
:1013E000084335490860207800F00800082811D12A
:1013F0003149091D6069096801F07001884209D20C
:101400002D48001D006820F07000616908432A49DA
:10141000091D0860207800F01000102811D126491D
:10142000091DA069096801F4E061884209D22248D7
:10143000001D006820F4E060A16908431E49091DF1
:101440000860207800F02000202811D11A490831C6
:10145000E069096801F07001884209D21648083035
:10146000006820F07000E169084313490831086002
:1014700000F02CF810490968C1F303210F4A515CB0
:1014800001F01F0120FA01F70B48006800F00F007F
:101490001146085C00F01F0027FA00F008490860B8
:1014A0000848076008480068FFF78AFD8046404604
:1014B00082E600000020005218440258D629000895
:1014C0001C0000241800002410000024F0B5824EF7
:1014D000366806F0380636B1082E15D0102E15D015
:1014E000182E7DD114E07C4E103E3668C6F34016AF
:1014F00046B1794E103E3668C6F3C107774E26FADC
:1015000007F000E07548E5E07548E3E07548E1E084
:10151000714E1836366806F003046F4E183636687A
:10152000C6F305116C4E1C36366806F001056A4E8E
:1015300024363668C6F3CC0616FB05F601EE106AB3
:10154000B8EE410A002971D024B1012C50D0022CF0
:101550006DD16DE0604E103E3668C6F340163EB366
:101560005D4E103E3668C6F3C1075C4E26FA07F39F
:1015700001EE103AF8EE411A01EE101AB8EE411AD7
:1015800081EE812A9FED581AC0EE011A524E203684
:101590003668C6F3080601EE106AB8EE411A31EE5D
:1015A000811AF7EE001A31EE211A62EE010A1EE0EE
:1015B00001EE101AB8EE411ADFED4C1A81EE812AC5
:1015C0009FED491AC0EE011A434E20363668C6F325
:1015D000080601EE106AB8EE411A31EE811A00E0F9
:1015E00076E0F7EE001A31EE211A62EE010A5BE0B6
:1015F00001EE101AB8EE411A9FED3D2AC2EE011A13
:101600009FED391A80EE012A334E20363668C6F334
:10161000080601EE106AB8EE411A32EE011AB7EE72
:10162000002A31EE021A61EE810A3DE04EE01DE033
:1016300001EE101AB8EE411ADFED2E1A81EE812A62
:101640009FED291AC0EE011A234E20363668C6F3E4
:10165000080601EE106AB8EE411A31EE811AF7EE73
:10166000001A31EE211A62EE010A1DE001EE101A95
:10167000B8EE411A9FED1E2AC2EE011A9FED1A1A0A
:1016800080EE012A144E20363668C6F3080601EEB5
:10169000106AB8EE411A32EE011AB7EE002A31EEA6
:1016A000021A61EE810A00BF00BF0B4E2036366879
:1016B000C6F34626721C01EE102AB8EE411AC0EE9F
:1016C000811ABCEEE11A11EE100A00E0002001E0E0
:1016D000034800BF00BFF0BD104402580090D00383
:1016E00000093D0040787D01000000460024744C54
:1016F0000024744A20BCBE4B2DE9F047044614B9BF
:101700000120BDE8F087207800F00100002870D0AB
:10171000FE48006800F03808FC481830D0F8009007
:10172000B8F1100F06D0B8F1180F0FD109F003006F
:1017300002280BD1F54810380068C0F3404000285B
:101740006AD06068002867D10120DAE700BF6068CE
:10175000B0F5803F08D1ED481038006840F4803083
:10176000EA49103908602EE0606868B9E748103827
:10177000006820F48030E5491039086008460068A8
:1017800020F4802008601EE06068B0F5A02F0DD125
:10179000DE481038006840F48020DC4910390860C9
:1017A0000846006840F4803008600CE0D7481038E4
:1017B000006820F48030D549103908600846006878
:1017C00020F48020086000BF606898B1FFF7B6FB86
:1017D000054606E0FFF7B2FB401B642801D9032051
:1017E0008FE7CA4810380068C0F340400028F1D0A5
:1017F00012E012E0FFF7A2FB054606E0FFF79EFBB2
:10180000401B642801D903207BE7C04810380068DA
:10181000C0F340400028F1D100BF207800F0020062
:1018200002287BD1B948006800F03808B748183062
:10183000D0F80090B8F1000F05D0B8F1180F3AD1E8
:1018400009F00300B0BBB14810380068C0F3800055
:1018500018B1E06808B9012053E700BFFFF768FB43
:1018600041F20301884219D8206940280AD1A748CB
:101870000C38006820F47C3040F40030A3490C3967
:10188000086016E0A1480C38006820F47C3021691B
:1018900040EA01309D490C3908600AE09B480C3849
:1018A000006820F0FE40217C40EA016097490C3935
:1018B000086067E0FFE7E06888B394481038006884
:1018C00020F01900E1680843904910390860FFF7DB
:1018D00035FB054606E0FFF731FB401B022801D926
:1018E00003200EE7894810380068C0F38000002804
:1018F000F1D000BFFFF71CFB41F2030188421BD867
:10190000206940280CD181480C38006820F47C30D4
:1019100040F400307D490C39086018E033E017E0EE
:101920007A480C38006820F47C30216940EA0130A4
:1019300076490C3908600AE074480C38006820F0D9
:10194000FE40217C40EA016070490C39086019E0D2
:101950006E481038006820F001006C4910390860AA
:10196000FFF7ECFA054606E0FFF7E8FA401B02280D
:1019700001D90320C5E6654810380068C0F380002F
:101980000028F1D100BF207800F0100010287CD191
:101990005E48006800F038085C481830D0F80090C5
:1019A000B8F1080F06D0B8F1180F3DD109F00300C7
:1019B000012839D1554810380068C0F3002020B103
:1019C000E069802801D001209BE600BFFFF7B0FA54
:1019D00041F2030188421AD8206A20280AD14B48D4
:1019E0000C38006820F0F84040F0804047490C393E
:1019F000086018E045480C38006820F0F84094F87A
:101A0000201040EA816041490C3908600BE03F48F2
:101A1000001F006820F07C5094F8201040EA01601C
:101A20003A49091F086066E0E06978B33748103822
:101A3000006840F08000354910390860FFF77EFAF1
:101A4000054606E0FFF77AFA401B022801D9032079
:101A500057E62E4810380068C0F300200028F1D067
:101A600000BFFFF765FA41F2030188421CD8206AE3
:101A700020280CD125480C38006820F0F84040F0B0
:101A8000804022490C3908601AE035E019E01F480F
:101A90000C38006820F0F84094F8201040EA81608B
:101AA0001A490C3908600BE01848001F006820F044
:101AB0007C5094F8201040EA01601449091F086026
:101AC00019E012481038006820F080000F491039E2
:101AD0000860FFF733FA054606E0FFF72FFA401BD0
:101AE000022801D903200CE6084810380068C0F32A
:101AF00000200028F1D100BF207800F0080008285D
:101B000034D16069D8B10148643001E01044025812
:101B1000006840F00100EF490860FFF70FFA054642
:101B200006E0FFF70BFA401B022801D90320E8E585
:101B3000E8480068C0F340000028F2D016E0E5480D
:101B4000006820F00100E3490860FFF7F7F9054657
:101B500006E0FFF7F3F9401B022801D90320D0E586
:101B6000DC480068C0F340000028F2D1207800F083
:101B70002000202836D1A069D0B1D648743800683A
:101B800040F48050D34974390860FFF7D7F905460F
:101B900006E0FFF7D3F9401B022801D90320B0E586
:101BA000CC4874380068C0F340300028F1D019E008
:101BB000C8487438006820F48050C64974390860F9
:101BC000FFF7BCF9054606E0FFF7B8F9401B02280D
:101BD00001D9032095E5BF4874380068C0F3403050
:101BE0000028F1D1207800F0040004287DD1BA4803
:101BF000006840F48070B8490860FFF79FF9054617
:101C000006E0FFF79BF9401B642801D9032078E523
:101C1000B148006800F480700028F2D000BFA068CE
:101C2000012808D1AB48001F006840F00100A94915
:101C3000091F08602DE0A06868B9A648001F006869
:101C400020F00100A349091F08600846006820F041
:101C5000040008601DE0A06805280DD19D48001F04
:101C6000006840F004009B49091F086008460068AE
:101C700040F0010008600CE09648001F006820F06A
:101C800001009449091F08600846006820F004001C
:101C9000086000BFA068A0B1FFF750F9054608E052
:101CA000FFF74CF9401B41F28831884201D90320EB
:101CB00027E58848001F0068C0F340000028EFD0E7
:101CC00013E0FFF73BF9054608E0FFF737F9401B43
:101CD00041F28831884201D9032012E57D48001F76
:101CE0000068C0F340000028EFD1606A00287DD072
:101CF00078486438006800F03800182877D0606AA7
:101D0000022875D173487438006820F080707149DA
:101D100074390860FFF712F9054606E0FFF70EF97F
:101D2000401B022801D90320EBE46A48743800689C
:101D3000C0F340600028F1D100BFD4E90A1041EAA5
:101D4000001064494C39096840F2F332914308436A
:101D500060494C390860208E401EC0F30800616B5A
:101D6000491E4FF47E4202EA41210843218F491E59
:101D7000D20102EA014108433C21095D491E1202D9
:101D800002EA0161084353494439086000BF081F53
:101D9000006820F00100091F08604E4840380068C4
:101DA0004FF6F8718843A16C40EAC10049494039B7
:101DB000086048484838006820F00C00216C08434F
:101DC0004449483908600846006820F00200616C08
:101DD00008434049483908600846006840F48030AC
:101DE00008600846006840F4003002E06FE041E01F
:101DF00025E008600846006840F480200860084636
:101E0000006840F00100086032487438006840F013
:101E10008070304974390860FFF790F8054606E095
:101E2000FFF78CF8401B022801D9032069E42948F8
:101E300074380068C0F340600028F1D047E02548BE
:101E40007438006820F08070224974390860FFF708
:101E500075F8054606E0FFF771F8401B022801D926
:101E600003204EE41B4874380068C0F3406000282B
:101E7000F1D12CE017484C380768164844380668FA
:101E8000606A012821D007F00301A06A81421CD1B9
:101E9000C7F30511E06A884217D1C6F30801206B29
:101EA000401E814211D1606B401EC6F3462188421C
:101EB0000BD1A06B401EC6F30641884205D1E06BF2
:101EC000401EC6F30661884201D0012019E40020BB
:101ED00017E40000744402580048025870B50446E4
:101EE00000260CB9012070BD606A00B900BF002156
:101EF000A1625649206888420CD055492068884222
:101F000008D054492068884204D0E0680F2801D9DD
:101F10000120E8E7204600F003FC05464B49206815
:101F2000884209D04A492068884205D0494920683A
:101F3000884201D0082D0DD844492068884207D036
:101F400043492068884203D042492068884203D12F
:101F5000102D01D90120C6E794F8810028B900208E
:101F600084F88000204600F077F8022084F8810091
:101F70002068006820F0010021680860A069B0F1C5
:101F8000806F11D16068B0F5800F01D1A06B28B1CE
:101F9000606848B9A06BB0F1805F05D12068006827
:101FA00040F4805021680860A16AE069084330432A
:101FB000E16B0843E168084321688860616A606BEF
:101FC0000843A16B0843A16908432169084361697B
:101FD0000843216A084361680843E16C0843A1682B
:101FE0000843A16C0843A16D08432168C86060687C
:101FF00078B92068806820F4C05040F400602168FF
:1020000088602068806820F4C06040F480602168A7
:1020100088602068006D20F0010021680865606814
:1020200000F48000B0F5800F07D12068C06820F070
:102030000040616D08432168C8600020C4F8840036
:10204000012084F8810000204DE7000000300140AD
:1020500000380040003C004010B586B0044600BF88
:102060002C48006840F002002A49086008460068D1
:1020700000F00200009000BF00BF00BF08460068EB
:1020800040F0020008600846006800F0020000907E
:1020900000BF00BF00BF0846006840F002000860B3
:1020A0000846006800F00200009000BF00BF00BFBB
:1020B00018480830006840F480401649083108602C
:1020C0000846006800F48040009000BF00BF4FF455
:1020D0008060019002200290012003900220049071
:1020E0000520059001A90C48FEF718FE4FF480402A
:1020F00001900520059001A90748FEF70FFE4FF457
:10210000004001900520059001A90348FEF706FE56
:1021100006B010BDE0440258000402582DE9FF4FFC
:1021200085B004468A461F46129E0020049020680F
:102130002030039020683030029000BF94F8800077
:10214000012803D1022009B0BDE8F08F012084F8F6
:10215000800000BFFEF7F2FE81463D46A84694F897
:1021600081B060680190BBF1010F11D00198B0F50A
:10217000800F04D1A06810B9BBF1040F08D0022071
:10218000049000BF002084F8800000BF0498DAE7C4
:10219000BAF1000F02D0079800B147B901200490AE
:1021A00000BF002084F8800000BF0498CBE794F8BB
:1021B0008100042802D0052084F881000020C4F8A2
:1021C000840007986066A4F86A70A4F86870C4F880
:1021D0005CA0A4F86270A4F86070002020676067BB
:1021E000206840686FF30F0038432168486020681A
:1021F000006840F00100216808606068B0F5800F59
:1022000005D12068006840F4007021680860E0682B
:102210000F284DD946E02068406900F002000228EE
:102220000ED16DB1E06D006821680862E06D001D9F
:10223000E065B4F86200401EA4F86200B4F8625091
:102240002068406948F20801084080B1B8F1000FE9
:102250000DD02068006B616E0860606E001D6066C6
:10226000B4F86A00401EA4F86A00B4F86A80FEF769
:1022700065FEA0EB0900B04201D3701C00B98EB915
:10228000204600F0E2F900BF002084F8800000BF83
:10229000D4F8840040F48070C4F88400012084F8ED
:1022A000810050E7002DB6D1B8F1000FB3D115E190
:1022B000E068072873D96BE02068406900F00200ED
:1022C000022820D1FDB1012D10D9E06B70B1E06D75
:1022D000006821680862E06D001DE065B4F86200E6
:1022E000801EA4F86200B4F862500CE054F85C0F51
:1022F0000188039801802068801C2060E088401ECF
:10230000E080E5885C3C2068406900F4604020B3D0
:10231000B8F1000F21D02068406900F4004070B18E
:102320002068006B616E0860606E001D6066B4F826
:102330006A00801EA4F86A00B4F86A800DE0029872
:10234000008854F8641F08802068801C2060E088A2
:10235000401EE080B4F80680643CFEF7EFFDA0EB81
:102360000900B04201D3701C00B98EB9204600F0BC
:102370006CF900BF002084F8800000BFD4F884000E
:1023800040F48070C4F88400012084F88100DAE60B
:10239000002D91D1B8F1000F8ED19FE0FFE797E0BB
:1023A0002068406900F00200022835D125B3032DD2
:1023B00011D9E06B40280ED9E06D006821680862F1
:1023C000E06D001DE065B4F86200001FA4F8620033
:1023D000B4F8625020E0012D0FD9E06B68B154F8D9
:1023E0005C0F0188039801802068801C2060E088D1
:1023F000801EE080E5885C3C0EE0E06D007821689E
:1024000081F82000E06D401CE065B4F86200401ED9
:10241000A4F86200B4F862502068406900F460409B
:1024200058B3B8F1000F38D02068406900F400407C
:1024300070B12068006B616E0860606E001D6066A0
:10244000B4F86A00001FA4F86A00B4F86A8024E0B7
:102450002068406900F4C040B0F5005F0ED90298D2
:10246000008854F8641F08802068801C2060E08881
:10247000801EE080B4F80680643C0EE0206890F88E
:102480003000616E0870606E401C6066B4F86A00CF
:10249000401EA4F86A00B4F86A80FEF74FFDA0EB76
:1024A0000900B04201D3701C00B98EB9204600F07B
:1024B000CCF800BF002084F8800000BFD4F884006E
:1024C00040F48070C4F88400012084F881003AE66A
:1024D000002D7FF465AFB8F1000FFAD14B46002212
:1024E00008212046009600F028F928B1D4F884008D
:1024F00040F02000C4F88400204600F0A6F800BF99
:10250000002084F8800000BF012084F88100D4F806
:10251000840008B1012016E6049814E670B504465C
:102520002546681EB0F1807F01D301200FE0681EB0
:102530004FF0E02148610F214FF0FF3000F016FA14
:1025400000204FF0E021886107200861002070BD65
:1025500000BFFEE700B587B0142102A8FDF70CFF0D
:1025600000BF1D48006840F004001B490860084691
:10257000006800F00400019000BF00BF00BF0846E3
:10258000006840F0800008600846006800F08000A5
:10259000019000BF00BF00BF0846006840F0020085
:1025A00008600846006800F00200019000BF00BF0C
:1025B00000224FF4F0710948FEF7B4FC4FF4F070BC
:1025C00002900120039000200490059002A9034886
:1025D000FEF7A4FB07B000BDE04402580004025817
:1025E00010B515481549086041041448C16100211F
:1025F00081604FF080714161490001610721C16034
:1026000000210162416281620721C1620904016304
:102610004FF0806181610021C16341634FF000414F
:102620004165480A054948600846FFF757FC08B16C
:10263000FEF73BFB10BD000000380040A001002465
:1026400000BFFEE700BFFEE77047026851690268FD
:10265000926942F0080203689A610268926942F046
:10266000100203689A610268126822F0010203688E
:102670001A600268126940F26F339A4303681A6164
:102680000268926822F4404203689A6090F88120C0
:10269000042A0ED001F020025AB1D0F8842042F072
:1026A0008002C0F884200268926942F02002036828
:1026B0009A6190F88120032A0ED001F040025AB1AD
:1026C000D0F8842042F00402C0F8842002689269A5
:1026D00042F0400203689A6101F400725AB1D0F8E6
:1026E000842042F00102C0F884200268926942F41A
:1026F000007203689A6101F480725AB1D0F88420A4
:1027000042F00802C0F884200268926942F48072A4
:1027100003689A610022A0F86220A0F86A2070473E
:1027200010B501460124C86B04EB5013C868421C65
:10273000D01DC20802FB03F010BD2DE9F041064692
:102740000C4617469846069D0BE0FEF7F7FBA0EBFC
:102750000800A84201D3681C00B915B90320BDE8E0
:10276000F081306840692040A04201D1012000E0A2
:102770000020B842E9D00020F1E7704710B5FEF71D
:10278000E3FB10BD00B59DB04C210AA8FDF7F4FD98
:10279000202102A8FDF7F0FD0220FEF7D7FC00BFC4
:1027A000002001902948006820F0010027490860B6
:1027B0000846006800F0010001902548006840F4D8
:1027C0004040234908600846006800F440400190FA
:1027D00000BF00BF00BF1E48006800F40050B0F505
:1027E000005FF8D101200A9000040B9002201390A2
:1027F0000221149115914021169102211791042173
:102800001891022119910C211A9100211B911C9100
:102810000AA8FEF771FF08B1FEF747FA3F200290C1
:10282000032003900020049008200590402006908B
:1028300007900001089040200990022102A8FEF7AD
:10284000B5FC08B1FEF731FA1DB000BD2C040058EC
:10285000184802583648006840F47000344908604F
:102860003448006800F00F00072806D2314800689D
:1028700020F00F00C01D2F4908602F48006840F06D
:1028800001002D49086000202B49103108602A48BA
:1028900000682A490840284908602648006800F076
:1028A0000F00072806D92348006820F00F00C01D3C
:1028B000204908600020204918310860091D08607F
:1028C000091D08601E481C49283108601D48091D63
:1028D00008601D48091D08600020091D08601A488D
:1028E000091D08600020091D08601748091D0860BF
:1028F0000020091D08601048006820F480200E495F
:10290000086000200C4960310860104800686FF3CF
:102910000F00B0F1005F02D201200D49086043F2C0
:10292000D2000C49086048030149803908607047AB
:1029300088ED00E000200052004402587FEDF6EAE6
:10294000000202020000FF01800201010010005C91
:10295000088100510040005200BFFEE702480068B5
:10296000C0F30220704700000CED00E010B5002815
:1029700004DB0A07130E054A135406E00A07140E77
:10298000034A00F00F031B1FD45410BD00E400E005
:1029900018ED00E0FEF7E4FAFFF7F4FEFFF7DAFDCA
:1029A000FDF74EFD0CE000BFFEF748F80028FBD015
:1029B000044890ED020BBCEEC00B034880ED000A0A
:1029C000F1E7000080010024080000244FF040706F
:1029D000E1EE100A7047000000000102030401024A
:1029E0000304060708090000082A00080000002464
:1029F00020000000D4020008282A0008200000243B
:102A000068080000F002000801000000000000005B
:102A100000000000000000001000000001000000A5
:082A20000090D0030090D003E8
:040000050800029954
:00000001FF
