:020000040800F2
:10000000388F0020F5B80308D1B9030841B80308B8
:10001000D3B90308D5B90308D7B903080000000015
:10002000000000000000000000000000D9B9030833
:10003000DBB903080000000019BA03081FBA03085F
:1000400011BB030815BB030819BB03081DBB03083C
:1000500021BB030825BB030829BB03082DBB0308EC
:1000600031BB030835BB030839BB03083DBB03089C
:1000700041BB030845BB030849BB03084DBB03084C
:1000800051BB030855BB030859BB03085DBB0308FC
:1000900061BB030865BB030869BB03086DBB0308AC
:1000A00071BB030875BB030879BB03087DBB03085C
:1000B000CFD6010881BB030885BB030889BB0308B1
:1000C0008DBB030891BB030895BB030899BB0308CC
:1000D0009DBB0308F3DB0108A1BB0308FDDB01089E
:1000E000A5BB0308A9BB030800000000ADBB0308C3
:1000F000B1BB0308B5BB0308B9BB0308BDBB03080C
:10010000C1BB0308C5BB0308C9BB0308CDBB0308BB
:10011000D1BB0308D5BB0308D9BB0308DDBB03086B
:10012000E1BB0308E5BB0308E9BB0308EDBB03081B
:10013000F1BB0308F5BB0308F9BB0308FDBB0308CB
:1001400000000000000000000000000000000000AF
:1001500001BC030805BC030809BC03080DBC030867
:1001600011BC030815BC030819BC03081DBC030817
:1001700021BC030825BC030829BC030800000000BB
:100180002DBC030831BC030835BC030839BC030887
:100190003DBC030841BC030845BC030849BC030837
:1001A000EDA101084DBC030851BC030855BC030870
:1001B00059BC03085DBC030861BC030865BC0308A7
:1001C00069BC03086DBC030871BC030875BC030857
:1001D00079BC03087DBC030881BC030885BC030807
:1001E00089BC03088DBC030891BC030895BC0308B7
:1001F00099BC03089DBC0308A1BC0308A5BC030867
:10020000A9BC0308ADBC0308B1BC0308B5BC030816
:10021000B9BC0308BDBC0308C1BC0308C5BC0308C6
:10022000C9BC03085774020861740208000000008A
:10023000CDBC0308D1BC030800000000D5BC0308F6
:10024000D9BC0308DDBC0308E1BC0308E5BC030816
:10025000E9BC0308EDBC0308F1BC0308F5BC0308C6
:10026000F9BC0308FDBC030801BD030805BD030874
:1002700009BD03080DBD030811BD030800000000FF
:1002800015BD03080000000019BD030800000000B0
:10029000000000001DBD0308FFD8FFE119214578CB
:1002A0006966000049492A000800000008001201A0
:1002B000030001000000010000001A010500010018
:1002C00000006E0000001B01050001000000760028
:1002D00000002801030001000000020000003101BD
:1002E0000200150000007E00000032010200140030
:1002F0000000930000001302030001000000010051
:1003000000006987040001000000A7000000DD0074
:10031000000080FC0A001027000080FC0A00102763
:1003200000004143442053797374656D7320CAFD06
:10033000C2EBB3C9CFF100323031313A31313A3208
:10034000352031373A32373A353300040090920283
:1003500000040000003138340001A0030000000058
:10036000000000000002A0040001000000200300C3
:100370000003A0040001000000E0010000000000F4
:10038000000300030103000100000006000000015B
:100390000204000100000007010000020204000145
:1003A0000000001218000000000000FFD8FFE1006C
:1003B000A945786966000049492A0008000000053F
:1003C00000120103000100000001000000310102E1
:1003D00000150000004A0000003201020014000075
:1003E000005F000000130203000100000001000094
:1003F0000069870400010000007300000000000095
:10040000004143442053797374656D7320CAFDC263
:10041000EBB3C9CFF100323031313A31313A3235B4
:100420002031373A32373A353300030090920200D8
:10043000040000003138320002A004000100000076
:10044000A000000003A00400010000006000000004
:100450000000000000000000FFC000110800600064
:10046000A003012100021101031101FFDB00840040
:100470000302020202010302020203030303040750
:10048000040404040409060605070A090B0B0A09FB
:100490000A0A0C0D110E0C0C100C0A0A0F140F1086
:1004A00011121313130B0E15161512161112131227
:1004B000010405050605060D07070D1B120F121B8B
:1004C0001B1B1B1B1B1B1B1B1B1B1B1B1B1B1B1B7C
:1004D0001B1B1B1B1B1B1B1B1B1B1B1B1B1B1B1B6C
:1004E0001B1B1B1B1B1B1B1B1B1B1B1B1B1B1B1B5C
:1004F0001BFFC401A200000105010101010101006F
:1005000000000000000000010203040506070809BE
:100510000A0B100002010303020403050504040092
:1005200000017D010203000411051221314106136F
:10053000516107227114328191A1082342B1C11582
:1005400052D1F02433627282090A161718191A253B
:10055000262728292A3435363738393A4344454640
:100560004748494A535455565758595A6364656623
:100570006768696A737475767778797A8384858613
:100580008788898A92939495969798999AA2A3A41A
:10059000A5A6A7A8A9AAB2B3B4B5B6B7B8B9BAC246
:1005A000C3C4C5C6C7C8C9CAD2D3D4D5D6D7D8D96B
:1005B000DAE1E2E3E4E5E6E7E8E9EAF1F2F3F4F5AB
:1005C000F6F7F8F9FA010003010101010101010147
:1005D00001000000000000010203040506070809ED
:1005E0000A0B1100020102040403040705040400BD
:1005F0000102770001020311040521310612415165
:100600000761711322328108144291A1B1C10923FB
:100610003352F0156272D10A162434E125F117180D
:10062000191A262728292A35363738393A434445B6
:10063000464748494A535455565758595A63646572
:10064000666768696A737475767778797A82838465
:1006500085868788898A92939495969798999AA285
:10066000A3A4A5A6A7A8A9AAB2B3B4B5B6B7B8B9AA
:10067000BAC2C3C4C5C6C7C8C9CAD2D3D4D5D6D7CF
:10068000D8D9DAE2E3E4E5E6E7E8E9EAF2F3F4F5FB
:10069000F6F7F8F9FAFFDA000C0301000211031172
:1006A000003F00FCE332CA46C40769E095EF5B16E1
:1006B0005A7F931A4A4E377550FC83EF5DD6BB388C
:1006C0002F63A8D1FC2B35FE9A668E70AC0F00F319
:1006D0009FF0AEA2C3C3932CB1C1263CC3C0DBCEF6
:1006E0006B548C9C8F5DF875F0FEEF54DEAED141FB
:1006F0001C09E634A53739E80003A9E6BDBF46F07A
:100700007693A378750DCD95F5D5C6406F226DA172
:1007100073D7E5DBFF00B355D8CEE33C49E22F04A5
:10072000693A5EDB8B15914901602F2211D7A91917
:10073000C9CFBD78FEB4748D6AF2692DEC1E4F30BE
:10074000E12349CFCBF4CE493F853B0AE64DCF8725
:10075000CDBC2A6F7C32D1AB0C2FDA24653F9A8155
:100760009ACC3E0E5B82D27EE6204E42AB138FCFF8
:100770009A2C17233E10D36105A59D891DB1552ED6
:10078000741D3D14947DDE800A2C173267D2A0566A
:10079000CAC27AF7159D7361827E503DA9582E66B4
:1007A000DC58647DDFD2B36E34E3CFC9FA5160B94F
:1007B0009973A701FC19AC8BBB0001F93149A2D395
:1007C000316EAD4A9E0550910AB74ACD9AA658B0EF
:1007D00063E790541DD5E8BE1ED1D350F25CD9BB5F
:1007E000760C0654E3DB8A6911267ACF877C34D2F3
:1007F00069AFE43BF9BB338653D88183CF0391CFF4
:100800004AF42F097C28D5E6D6AC6DEE6F34A82FBC
:10081000EF6E23105ADCCEAB2F96F1F98B36DC7FCE
:10082000AADBDF939E319AD946E734A763DEA0F8AE
:1008300065FF00082EA977A55FDF5A2DD5BCAD0B4B
:100840004D046C2190AE3253763F3A8AE2F2EEC705
:100850004F11DA332A0E5A513B2A83CF5C923F4C18
:10086000500A57D4F2DF1DF8BA6975116F25DDBD46
:10087000D2A67636C56FD40AE25B59D465052375D6
:100880008C1FF9E2C573405C6C714D3C9BA4DCE7A6
:10089000D4D69C1A744F16D7B7CE7D680B960F84AA
:1008A000A19EDFCC4871FF0002AACFE090FD117934
:1008B000F56C5017231F0D357BBD26E6FEDB4BB8CC
:1008C0009AD2CB6FDA278E32D1C3B8E177301819BC
:1008D0003C0CF5AE76F7C1AF1E711B1C760280B9D9
:1008E0008D77E11BA483CD1036DEC48AC3BBD2044E
:1008F0007B9648893405CC4BBD319A1795603B10E7
:1009000080CC064027A0FD2B06FB4FC2FF00ABA406
:1009100034CE72FECB9395AC0BAB6DAC78ACDA36C3
:100920008B0B4807999C5759A36E8DC32458CF4011
:10093000AEC0FF003AA8A33933D26DBC43AC681FE8
:100940000BAE35BB7BCD6560D3A6B7BCD434E48E8B
:10095000DDE2BFB54941986E74F315C4659810FB8C
:100960007E41C679AFA87C1FFB40FECF9F0B3C4960
:10097000E1AF1D788AEF4D8E1B7D322B7B178E17D2
:1009800006F15E5DED712228CC8DB245001C00148D
:1009900013F74D57359EACC9C1CE3EEAD4CAF855BF
:1009A000E36F0F5FFED17F187C29E02D36C6D3C0E0
:1009B000516B3A4F8A744D334F516F6BE65E69A0AD
:1009C00034A88384DEB1231C70327803159BE34D79
:1009D0006BEDB26E86F2E2601CA4BE430589492726
:1009E000E5C64E0F1DF9EB442D6D3CFF0031CDBB2C
:1009F000EBBD97E47276F65249296518CFA8AD6B26
:100A00002D0DE4276C6CD81B8E06703D6AC8B9BDED
:100A1000A7E800CC865859A307E60A7048AEC6DF9F
:100A2000E19CB6FF000E2F3C5779716925826A312F
:100A30006856B1457B89EE2F663B6211A04632288D
:100A4000E588F94ED566E029207A6E2576EC8D6F23
:100A5000037C39D1B53D718789AEF565B710B18694
:100A60002D3A20D24D2F1B50B37DD07A6EC1C57662
:100A7000DE1AF8511F8BFC79F157E1EE8DF0F9ED9C
:100A8000AEFC0FAA58D88BF975A4BEFB5ACD6CB733
:100A900086387F748629A2596249064AB6F214B68E
:100AA000D24672972B57358C79D3295D7C2ED06333
:100AB00087C3FF000FEC46A30F8875EB7D4B59BF32
:100AC0009A0B9530C3A7D9B408AF711B3A92CD7178
:100AD000730C71AC619899371014330C293C17E0F2
:100AE0007D034B1AD5AF8B23F11594328B796F347C
:100AF000987ED56A970172D01947EECBA8EA039C7D
:100B000010475040A52BBB12E36573CFFE28F89B1E
:100B100042D2BE175C789AD3C09A9EA30C56B3C932
:100B200012A388A49DE2E085450738DCAC7DB3EED6
:100B30006BC92FF4E8EF3C15A4EBF0DDD8C91EB764
:100B400068B7D1C304FE6490A380544981804820D3
:100B50008193C7A55937D2E703E373A869BE017B28
:100B60002D2EFBECB75AC5EDAE9D6ACCBB97CE924D
:100B7000518247A84F30FE7515E68D3476C914D3DF
:100B80009B992350AD395D9E611FC583D33537BB1B
:100B9000B15A289CAEABA78407240C75AE46FE2440
:100BA000494E39CFAD672358322B18034B83DABA3D
:100BB000DD260DAE1B1CD5C5194D9DDE89AE6A36EE
:100BC000415519644C6D28EBB9581EA083C10471BE
:100BD0008AF1DF899AD6ABE1EF87371F0B350B29F6
:100BE00025D157515D5FC3F3F9B816C877EF8790E9
:100BF0004B28F31875041E790C319D7D23735C2BF3
:100C0000E69F2FCFEEFF0080763FB29EACEF77E2FB
:100C10003B517D22DF15B39400C4968620F18E31BE
:100C20008C2EE41C9FE21C57D4FA6D9DDEAB6D2A1E
:100C3000496B2DE3CFCBB39D9F37386E319232791C
:100C4000355435A68CF13EED57FD7420F13CDA4F5A
:100C5000C3FF0086D7FE2EF14B4969A6E9A8AF3342
:100C6000888BB12CC11555475259947A739240C95B
:100C7000191ACFC5F974CD6BC0DE21F84DA959F80A
:100C8000B34AD5A1B9D4F5FF000CE9FA7446E25D88
:100C90002EC60792E6E0DD3B79B0B6DDDFB9C26E65
:100CA000922007384AA9CB9744F5229C39F57B7FDF
:100CB000C03E8BD23C39E1DD7B44D3FC41E0ED42C8
:100CC000DF55D0755B38AF74DBEB790BADC42EA06C
:100CD0008660402AFD43230528C19480462BA4F159
:100CE0005FC368FE247ECEEBF0F35180D85DC17502
:100CF0001DEE89E22B57912FF42BC8D8341756C517
:100D00001942C88E33B861995997700722DC55484B
:100D1000FA9119BA53F347CD70FEDDDA5FC3EF8263
:100D20003E1FD63E20F87DF5AF195BEB979E15F17F
:100D300005BE992C36BE53D82C41AF7CA0BCF9A27D
:100D400058F098456759C065080577FF00B297C508
:100D5000B8BE23EADF19F5FF000AEB77176971F1D6
:100D60003F52D6A0BA40F179B65771C696876B61EB
:100D7000947976AE02B6081C573C6A29CD2EA74C52
:100D8000E8BA7072E9FF0004B9F1DB44F1F49A7E2D
:100D900087F113E1E40D7BE29F04DE4D769A731C2C
:100DA0008D62C278C25ED8F2AC0B48891953824377
:100DB0004636FCFB48F87BC39FB4AFC4AD72F7E185
:100DC0004FC1EF0C5F8F0F69BE1E68749BFB2582BD
:100DD0000B5B7BC905C3A97910900B98986EDC4317
:100DE00034AF21CE4AD2AAE509E9D4BA118D5A6EA0
:100DF000FD3FE09F55EA5A5476FA833FD9CB147EE3
:100E00008DF5EF5E1BA5EA117C32B6F16FC3EBE600
:100E100086697C37A6DC788FC351DC4E035EE9DB44
:100E20004B88031392F130901CFCC5558A8C2D6FB2
:100E30002F75A67343DE4E3FD7F5A9E6FE02F88B69
:100E4000AFFC5DF8D7A25B6B1A6D9DBAE84B79A930
:100E5000CAB668EB1B6E8D63899958B72ACE70416C
:100E6000FE215EA5A8E9AA54E466A2949CE3765DFF
:100E700078AA72514717AEE9EAA8DC579F6AD005F5
:100E80009187BD3904195B4D55F340AEC34940C04D
:100E900001D2AE2613675BA7DBE2357DA769190790
:100EA000B11EB557E24787B45D77E00EADFDAF34B4
:100EB000307F67DB3DE5B5C48DB7CA9547CA01FFF2
:100EC000006CE131CE770C0CE29CD27169934A6DD3
:100ED0004D35DCF3AFD927568F4FFDA8E6D3DC8C18
:100EE000EA9A54F6F1AB742E8C937FE831357DDBB2
:100EF000A4DCBCFB2336D6EC98C63CA231FA9ACBD4
:100F00000BAD33A31DEED6F91D4DE7C39F0EFC4577
:100F1000F8797FE0FF0014DB492691AC422DAE92B8
:100F20003203AAE410E848203AB0565241C151C1F8
:100F3000AFCE9F84DE0E9B42FF00829569DF01BC2D
:100F40007AFAA2E95ABF8B20F07F88ECF4BD48DB27
:100F50001BC8CDE2C611A5D99783CD11C857037818
:100F600045236305758C4C6CE322F0752F19C7E798
:100F7000FD7E07EE3F867E16E9BA6E8367A4E99A86
:100F80005DAE9F61A75BC7676B6B6F1048A189005F
:100F9000554551C000003F0AED2CBC03610A0250C8
:100FA000123DAB6A95630D11E7C233AAF43F0ABF45
:100FB000E0A23E03B4F87BFF00058BF88DA569D64F
:100FC0008D05A6A57B0EB716E6CEF6BB8239E66187
:100FD000E83CE925C0ED8F4C57D47FF0476D157C78
:100FE00041F0EFE3059B2464DBDDE892E41F9B9472
:100FF000BF1C8F4E38FC6BCFA724AADCF76BA6F082
:10100000BAEF647DC9AAF808C1ACC594217CD5C9E2
:10101000006473EE315F844BA5E9B61FB6C2E8FFEA
:10102000001535EB99AC6DBC57F65F126A6E1E79F0
:101030009E25BADB7531192CEC543B75249EF9AE14
:10104000AC52D22FA1C78095F9EDB9FA8FE27D0697
:101050004875AB9499177891B254E54F3D8F715F05
:1010600023FEDABE0E33FC17D27C576F611349A4FE
:10107000DF1B6B89F389121957E51EEBBD47B82DAD
:10108000C756ADABC6F4D9CD859DAB44E07F643B7C
:10109000582687C5F70C57CE8D6CA351C67631986C
:1010A000B7BE32A9FA7B57B76A56CA03715343F8E1
:1010B00048D316FF007F2FEBA1C178891563718A91
:1010C000F2FD6F0276C554C9A4CCAD3E64128E45C4
:1010D00075DA79B3B9B136F3AACA92A959237195D1
:1010E0006046083551D4C66EC66DEF86EFFC0D2301
:1010F00078A7E1DC4D288E365BCD2EE1FCD88C5FE5
:1011000078B26583705470093D4E719158FE39F87C
:10111000B9178F3E1059F85B45D0EE6D6FEFAF8772
:10112000DAE1F33CEDEABB7CA543B41259D8923125
:1011300091B00E735CD51FB24E0B67B1DD462B101C
:10114000D556F55BFF0099D6FEC53A2DB5F7C70F0A
:1011500013EAB7FA45B5D4361E1E6586E268C31B8E
:101160004B892E6008E84FDD728B30CF752EBFC5DE
:101170005F76F80F44D0AEE769F54D54C50DB01257
:101180003430A17B8B903AA443852FD86E23923DB7
:10119000EB7C2AFDD1C38F9FFB4357EC7A0FC0AF86
:1011A00012FC37F8B2F78BE09D52FE4BBD1678EC7F
:1011B000B5AD2F53B092CAFF0048BA62E3C8B889F0
:1011C000870E1A3907CA48CA30CE4115F9EFFB57C6
:1011D000789F47F8ADFF0005DA7B0F84B6D3E89718
:1011E000567E20D3FC2B0EA91426E26BBD42DA6496
:1011F000B637AB14418B7EF146C55DCCEB1A1C6E45
:1012000062A33C54D4A11B7536CBE9B8D69A96E9B3
:101210007E67EF36976D14FA64572D1B299503905E
:10122000D118D81239CA9E57E87A5692C6883E55C8
:1012300015E6CA4DB3DAA34A14E3A23F9EFF00F8B5
:1012400028DF8EA1F883FF00059CF897A958CED21D
:101250005A697A845A14409C88DACE18E09547037C
:101260008F3A394FE27AD7D23FF044BF16476FFB2F
:101270004DFC4CF876F1B17D6B40B5D695B8DA05EA
:101280009DC18883C673FE9C3B8E8783C616CCD6D1
:10129000494E36EE7EACEA9A5C132112203FCEBF57
:1012A0009F9FDBBEFB40D43FE0AF9F1525F0DE9D46
:1012B0000595AC1AEBD9CB143108D5AEA1448AE61A
:1012C00042075679D25766EACCE58F26BA273BC14A
:1012D00023CAC25270AF2B6D63F49F42D023F0F744
:1012E000ECD9E0FD0EE9FCD9F4DF0D699672C879FE
:1012F000DEF1DA448CD9239C9527F1AF01FDAC6D6A
:10130000B4F9BF614F1919A0CF9105B4A8C319460C
:10131000FB640AA47E2D8FA31AF52A46D4DFA1E42C
:10132000D19DEB45AEEBF33E24FD9F7C5F71E13F29
:10133000DA7B4B8E28D1EDF5C91747BA57FEE4B2D8
:101340002E181EC55C237E0477AFAC757D46CFEDAD
:10135000ED64B3C3F6958BCF3009079823C95DFBC5
:101360007AEDC82338C64572E1657858F471F1B555
:1013700054D75479E789EED36362BCBB589D5A7643
:10138000AD666148E52DAF8AC9C135BB61ABBA0115
:101390008634A120AB4CE8EC3C413232B091811C48
:1013A0008C1E959B79E06F086B3A7DDF95622CAEC1
:1013B000EE89912E2376C46FD784CE3693D463E919
:1013C0008E2B59D28D556672D3AF3A12BC4EEBE0DC
:1013D000869B37C37F0B5F5B1BF8A4BAD56647BA01
:1013E000687250A47911A8DC33C6F72781F787A06B
:1013F00035F41F84BC5E1258F33118F7ADE8C39280
:101400000A3D8E5C556556ACA6BA989F17EC3E33E4
:10141000E87F1AB4FF008CDFB345C6A29E22D72C0A
:101420005FC39E21B4D3B3BA7DD1B25BDDB2F425E4
:101430000363CC6E2368616F535E35FB1D7C13D64E
:101440002C7FE0BA3E06F0078B4442EBC21AC26B17
:101450005A9B69D7297715A4F6701BB589E58C943A
:10146000C89A3489F0480FB972715E76268CFDA750
:10147000937F9EE7AF82C5D2541B5F1A8EBF2DBFEC
:101480003FEAC7EF5E99AA452460171CFBD7CD3F02
:10149000B43FED9BE20D12E7C43F0E3F654F863A25
:1014A000C7C5AF1FE80E6D75B934AB579B4CF0EC58
:1014B00084150279554ACB701F03ECEA73F24BBDD9
:1014C00094C654F0CE1CB23D3C2578D6A49A3E5426
:1014D000FD8EBFE0941ADEA5A66B5E38FDACEC1263
:1014E000DE4D6B499EDB48D152F7CFBDB49E7122D1
:1014F0003DE5C900C625452AF1AEE7C33E5C2B2079
:1015000015E67FB18F807C7DFB17FF00C1C5DA1720
:10151000C27F8A8B6BA57FC249657DA3C17D25CA29
:101520002DBEA56B2890DA4D1104E44D716B122A83
:10153000361B736D2030DB599DB6B1FB07AA5FC027
:1015400088C59C0C7A9E95F92DFB557FC1393C7D51
:10155000E33FDB37C5FF0015BC27F143C070E8DE71
:1015600030D5EE3588A0D4E5BC86E619256DF2C6E7
:10157000562B7957E576386DC370C1C0E83B638759
:101580009D48AE53E7D6614A8569737E0719A4FC6E
:1015900038FDAD3E1BF8B62935EFDA0750D7748910
:1015A000014B95D2B5B935196D78C0916DF518D24A
:1015B00037C6065548623A64800C9E3083C7D65FB2
:1015C000B1BF8FBE1B788BC69178E22D4B458A1D2B
:1015D000335092D9E1D519E1BA8AE4C520CB8932DA
:1015E0006DD36B6E2EDB981EAB8EC54AB462D4A54C
:1015F0007DCE796230D39A9538DB54FB5ACFAADA84
:10160000D6EC7CD1FF000ABBC5DE18F0FF00847C5D
:1016100059E1BB365D7E39BED3750395CDAC824DA5
:10162000F0332BF03E5C6E07805707BD76F67E1BCD
:10163000B1B168B5EF136A975AB78A3CCF3A6D5388
:10164000EDB2AB21ED1C78207960718239C9E00CD4
:10165000018D2A128BF7B6FD7FE01D55F1709ABC03
:101660003E2D57CAFF00A9535FF1034ECC4C84FEB8
:1016700035C35FDF34B293BBA9AD67B98D2D8E4AF8
:1016800039AF01E179FA8FFE2AAEC579A9291B5538
:1016900007A72A7FF6A570C652E87A738537BFF58B
:1016A000F81A76D7FAC60148A13EBFBC8FFF008E5C
:1016B000D69C1AA78891F6C515AE73C032464FFE68
:1016C0008FAEB8CEA7F56FF33CEA94A85F56FF0043
:1016D0001FFE44DAD3FC43E2B8C295B4B72DE9FB50
:1016E000B007E26E47B574DA7F8C3E21C207D96D30
:1016F000AC5180E32F6EC3F5BD18AEA8D4A9DBF2C0
:10170000FF00E48F3EA51C3AFB5F9FFF00206FEBBC
:101710007F187E2CF84BE145FEAF7773FD9B1CB024
:10172000B595ADC5ADBC12B8B9911B660A5E332143
:1017300000160DB4E300E0F4AD1F827E22FDA03E52
:1017400002F80E6D17E1DE836D6EF7922DCEA6F2D4
:10175000D95919AEA551F75A63799289F304F94022
:10176000E5885059B2DCEA7B54D2BB4BCBAFFDBD10
:10177000E44469E1D61DC5CACA4FBBE9FF006E77D4
:101780007FF04F7CF0A7ED57FB76AE9866B8F0CDB2
:101790009471023C929A2DA5C238E7AB9D422C74FD
:1017A000EC0F7E95DC782BF68EFDB034A12DB7843E
:1017B000BC09E1FB6FED1BE9350BDB6B2F04E9B0D6
:1017C000F9D3CCC1E5B8709AEAEF95C92598F2C76C
:1017D000A9CF359554E6AF3A7F83FF00E48BC3AAC7
:1017E0005425CB46B7E2BF5A6CF54D7FE3C7EDF306
:1017F00069F0C5356D27E1459CCD3111C466F075A2
:10180000AC4E5B032485F11C800E4E0E0E71D0573A
:10181000C75FB4DFC41FDB2FE28DB7857C61F10F9A
:10182000E1DF87ACB5AF859A9B788347D56C9A2B5F
:101830005B8B72A5247578FEDAEAC336F136154B58
:1018400066250A796079152838BE54DBF99EB4F113
:101850002FDA2E79A4BD56BE76E5BFDCCD0B8FDB2B
:10186000C3F6C5F147872DF558743F05BD9DF42B90
:10187000730885EDD728CA1867379B81E7054AE4C6
:101880001C83C822B84D7FF6A5FDA36F2431EA3032
:10189000E811C8D9DDE5CB6CE10FBEDB83EFC57A7B
:1018A00011AD5146CA292FEBCCF17EA786E6F8DBB5
:1018B0007D7FAE5386D67E367C63B8919AEEF34830
:1018C000901E3315DD94673F433B11F88AE66EBEE8
:1018D0002878D269337D7B12827E611DCD9311F809
:1018E000F982B375A77D57E2BFCCE88E1693578B6C
:1018F0007F34FF00F91465DD78FF00557C87BF67F2
:1019000024FF00CFCD9818FC24358975E37BD925B9
:1019100031B48E491D7CE84AE7EA1B158CABFF0009
:101920005A7F99D54F097FF8697F918D73E25BA744
:1019300091848E5BD30E9FD0E2B39F559DD8EE72FB
:101940003FE0486B96555B3D1861E31FE9992178AC
:10195000CE734F56C1C1AE7477B240CBDC5480A178
:10196000E302999B4185F41F88A914A7F741FC2A3B
:10197000910EE3D843240D1B2801BAF15652588723
:101980005890FF00C0455AB19493B58B30CF6EAFDD
:10199000B8431E7FDD1FE15BBA4EBEF693A98204F9
:1019A0002719185C66BA69D4E47A1C35E8FB48D973
:1019B000B3B297E2C6BAFE14FEC99ED63102F3B4A2
:1019C000A6C038C7F7CE7AFA5709A8EB2F2DD33423
:1019D00096C159893F70035D35B132A8B53870B8EA
:1019E00018516F95EFFD76463BDCC5B0288555470D
:1019F000000403155659633FC207E02BCF6CF6A3D2
:101A000016BA9019232781F9629859476C7D2B26C5
:101A1000CDD2626F1BB1CFE74D67007FF5EA4A4830
:101A2000899B9FAD33191CD266A8070392334BD70D
:101A3000BF14C60471F7B146481C3502B0E0EC3B58
:101A40009FC6A456E33B87E7410D0FDFC74A72C923
:101A5000F375FD69DC8689A399FB9E7EB5B7A1412C
:101A6000A35C279BABF8A469CCB22AA22D84972D46
:101A7000839DCC7185C0E38072727D306EECCDC2E7
:101A80002F72EEA8FA2AE9E174FF001245772E0BB7
:101A9000321D3A6809E9800FCC339CF07038EB5C5A
:101AA000E49330739C907AE57154E4E5B911A6A1F2
:101AB000A26577949C81D3DAA269006F9B3F53594A
:101AC000B66C90D2C01E4FE74C327B549690CDCC72
:101AD0004F5A4E49E7341A5838CF5A303D6818CC1F
:101AE0007CD460E300FEB5003871DE9D54804DB9B2
:101AF00039A5078EFF00953131C18FB7E54E0E7BBA
:101B0000E3FEF9341161FBB2BF2A83F9D383E1729A
:101B1000BC13EB9E2826C4B8041F3199B8E00CF121
:101B200051330E87FAD364A19C0FE16FC41A64800D
:101B3000E718FD2916888E471475A0D05E71C0A6DF
:101B4000927B8A4C61F283484F3C54DC05C6188A6C
:101B50006F3F5A401CE3BD286E79A603C7DDCF381E
:101B6000A083D855201707DE9CA4E0E5DC53218A2A
:101B7000321B8248F738A7F9A1790393EF409AB84E
:101B8000091C9FB9C1FF006A9B93BBEE9C1EB83C29
:101B9000502B21AC5B3C0207D693AF55A0AB09B4E8
:101BA000E7EED041F4A0A1083818E29187C9D72701
:101BB000352C63029CF069C7A5203FFFD9FFE109DE
:101BC0001D687474703A2F2F6E732E61646F626596
:101BD0002E636F6D2F7861702F312E302F003C787F
:101BE0003A786D706D65746120786D6C6E733A78BB
:101BF0003D2261646F62653A6E733A6D6574612F60
:101C00002220783A786D70746B3D225075626C6951
:101C10006320584D5020546F6F6C6B697420436F74
:101C2000726520332E35223E0A203C7264663A5299
:101C3000444620786D6C6E733A7264663D22687417
:101C400074703A2F2F7777772E77332E6F72672F36
:101C5000313939392F30322F32322D7264662D737B
:101C6000796E7461782D6E7323223E0A20203C72B7
:101C700064663A4465736372697074696F6E20724A
:101C800064663A61626F75743D22220A202020202A
:101C9000786D6C6E733A7861703D22687474703A36
:101CA0002F2F6E732E61646F62652E636F6D2F78B8
:101CB00061702F312E302F223E0A2020203C786187
:101CC000703A437265617465446174653E323031C7
:101CD000302D30342D31345431323A30323A3335BC
:101CE0002B30383A30303C2F7861703A437265615E
:101CF0007465446174653E0A2020203C7861703A26
:101D00004D6F64696679446174653E323031302DBF
:101D100030342D31345430363A32303A3531305A4D
:101D20003C2F7861703A4D6F6469667944617465DF
:101D30003E0A2020203C7861703A4D6574616461F0
:101D40007461446174653E323031302D30342D3150
:101D5000345431343A32303A35312B30383A30302D
:101D60003C2F7861703A4D657461646174614461BF
:101D700074653E0A2020203C7861703A43726561A8
:101D8000746F72546F6F6C3E41646F62652050686F
:101D90006F746F73686F70204353332057696E649C
:101DA0006F77733C2F7861703A43726561746F721C
:101DB000546F6F6C3E0A20203C2F7264663A446573
:101DC000736372697074696F6E3E0A20203C72649E
:101DD000663A4465736372697074696F6E207264E9
:101DE000663A61626F75743D22220A2020202078B5
:101DF0006D6C6E733A64633D22687474703A2F2F71
:101E00007075726C2E6F72672F64632F656C656DD1
:101E1000656E74732F312E312F223E0A2020203C14
:101E200064633A666F726D61743E696D6167652FB8
:101E30006A7065673C2F64633A666F726D61743EC9
:101E40000A2020203C64633A7469746C653E0A2061
:101E50002020203C7264663A416C743E0A202020A7
:101E600020203C7264663A6C6920786D6C3A6C6133
:101E70006E673D22782D64656661756C74223E2024
:101E80003C2F7264663A6C693E0A202020203C2F69
:101E90007264663A416C743E0A2020203C2F6463D1
:101EA0003A7469746C653E0A20203C2F7264663A6D
:101EB0004465736372697074696F6E3E0A20203CDA
:101EC0007264663A4465736372697074696F6E20F8
:101ED0007264663A61626F75743D22220A20202086
:101EE00020786D6C6E733A70686F746F73686F7082
:101EF0003D22687474703A2F2F6E732E61646F6286
:101F0000652E636F6D2F70686F746F73686F702FBD
:101F1000312E302F223E0A2020203C70686F746FD3
:101F200073686F703A436F6C6F724D6F64653E33C8
:101F30003C2F70686F746F73686F703A436F6C6F8B
:101F4000724D6F64653E0A2020203C70686F746F8C
:101F500073686F703A486973746F72792F3E0A2004
:101F6000203C2F7264663A446573637269707469C9
:101F70006F6E3E0A20203C7264663A446573637259
:101F8000697074696F6E207264663A61626F75740D
:101F90003D22220A20202020786D6C6E733A7861F1
:101FA000704D4D3D22687474703A2F2F6E732E6100
:101FB000646F62652E636F6D2F7861702F312E30E4
:101FC0002F6D6D2F223E0A2020203C7861704D4DF0
:101FD0003A496E7374616E636549443E7575696410
:101FE0003A30384646443044463844343744463123
:101FF0003138363243434233343633373534414651
:10200000323C2F7861704D4D3A496E7374616E6346
:102010006549443E0A20203C2F7264663A44657349
:102020006372697074696F6E3E0A20203C72646648
:102030003A4465736372697074696F6E2072646686
:102040003A61626F75743D22220A20202020786D4B
:102050006C6E733A746966663D22687474703A2FC8
:102060002F6E732E61646F62652E636F6D2F7469BE
:1020700066662F312E302F223E0A2020203C7469C4
:1020800066663A4F7269656E746174696F6E3E314F
:102090003C2F746966663A4F7269656E7461746943
:1020A0006F6E3E0A2020203C746966663A5852657D
:1020B000736F6C7574696F6E3E3732303030302F0D
:1020C00031303030303C2F746966663A585265734F
:1020D0006F6C7574696F6E3E0A2020203C746966CF
:1020E000663A595265736F6C7574696F6E3E37321C
:1020F000303030302F31303030303C2F74696666EC
:102100003A595265736F6C7574696F6E3E0A202080
:10211000203C746966663A5265736F6C7574696FBA
:102120006E556E69743E323C2F746966663A52652C
:10213000736F6C7574696F6E556E69743E0A2020FA
:10214000203C746966663A4E6174697665446967D5
:102150006573743E3235362C3235372C3235382C97
:102160003235392C3236322C3237342C3237372C48
:102170003238342C3533302C3533312C3238322C44
:102180003238332C3239362C3330312C3331382C31
:102190003331392C3532392C3533322C3330362C1F
:1021A0003237302C3237312C3237322C3330352C19
:1021B0003331352C33333433323B453935444334B2
:1021C0003132413242413843353933323943304478
:1021D000413846353833343632383C2F74696666B8
:1021E0003A4E61746976654469676573743E0A2086
:1021F000203C2F7264663A44657363726970746937
:102200006F6E3E0A20203C7264663A4465736372C6
:10221000697074696F6E207264663A61626F75747A
:102220003D22220A20202020786D6C6E733A65785A
:1022300069663D22687474703A2F2F6E732E616444
:102240006F62652E636F6D2F657869662F312E3052
:102250002F223E0A2020203C657869663A50697832
:10226000656C5844696D656E73696F6E3E313434C8
:10227000303C2F657869663A506978656C584469D6
:102280006D656E73696F6E3E0A2020203C6578692B
:10229000663A506978656C5944696D656E73696F0B
:1022A0006E3E3930303C2F657869663A5069786502
:1022B0006C5944696D656E73696F6E3E0A2020200B
:1022C0003C657869663A436F6C6F72537061636501
:1022D0003E303C2F657869663A436F6C6F7253707D
:1022E0006163653E0A2020203C657869663A4E614C
:1022F000746976654469676573743E33363836347D
:102300002C34303936302C34303936312C333731A7
:1023100032312C33373132322C34303936322C349E
:10232000303936332C33373531302C34303936347C
:102330002C33363836372C33363836382C33333462
:1023400033342C33333433372C33343835302C3367
:10235000343835322C33343835352C33343835363F
:102360002C33373337372C33373337382C33373335
:1023700037392C33373338302C33373338312C332B
:10238000373338322C33373338332C333733383410
:102390002C33373338352C33373338362C33373307
:1023A00039362C34313438332C34313438342C34FD
:1023B000313438362C34313438372C3431343838E1
:1023C0002C34313439322C34313439332C343134E7
:1023D00039352C34313732382C34313732392C34CA
:1023E000313733302C34313938352C3431393836B3
:1023F0002C34313938372C34313938382C343139A0
:1024000038392C34313939302C34313939312C3494
:10241000313939322C34313939332C34313939347A
:102420002C34313939352C34313939362C34323079
:1024300031362C302C322C342C352C362C372C3891
:102440002C392C31302C31312C31322C31332C3190
:10245000342C31352C31362C31372C31382C32306C
:102460002C32322C32332C32342C32352C32362C66
:1024700032372C32382C33303B4632383938393801
:1024800037303046303933414132363131354631DB
:102490003735424344384444363C2F657869663AC0
:1024A0004E61746976654469676573743E0A2020DD
:1024B0003C2F7264663A4465736372697074696F25
:1024C0006E3E0A203C2F7264663A5244463E0A3CF5
:1024D0002F783A786D706D6574613E0AFFED0022C9
:1024E00050686F746F73686F7020332E30003842FD
:1024F000494D04040000000000061C0205000120F4
:10250000FFC000110801E0032003012100021101B6
:10251000031101FFDB00840002010101010102013E
:10252000010102020202030503030202030604047E
:102530000305070607070706070608090B09080829
:102540000A0806070A0D0A0A0B0C0C0D0C07090EE7
:102550000F0E0C0F0B0C0C0C0103030304030408F7
:10256000040408120C0A0C12121212121212121285
:10257000121212121212121212121212121212123B
:10258000121212121212121212121212121212122B
:10259000121212121212121212FFC400C90000010C
:1025A000040203010000000000000000000004011C
:1025B00002030500060708090A10000102040403CB
:1025C00005060304070504070607010203000405C6
:1025D0001106122131070841132251617109143289
:1025E0008191A12342B10A1552C116336272D1E121
:1025F000F017244382F1185392A21925346373B261
:10260000C23544458393A3272846A4B3D3E20100EF
:1026100003010101010100000000000000000000B2
:10262000010203040506071100020201030203046C
:102630000806000503050000000102110304122131
:1026400005311341512261718106143291A1B1C14A
:10265000F015234252D1E116337292F124348235BF
:10266000435362A2FFDA000C0301000211031100C0
:102670003F00F1765E5594A429442FC6DA9890CB9A
:102680000459C6D3991FA47AA7968265E972AFB69A
:102690005C08BEBB13B42B92520D5C389522C3D696
:1026A000F1032ADF70A165017B1F51117BE3C80A8A
:1026B00001C36F0303287C9E7997837748F3BDA2FB
:1026C000D18A6B4E923B600EDA4240D864BD0A4814
:1026D00082A585DFA281B41029496500208BF85EB0
:1026E0001884485A179552E081D60969E9756EC871
:1026F00041F1F186844CD91A94B608E80182252666
:10270000DC6D7AA3E644512CB4939F43A42564A4C2
:102710009D8DA2CE5D3DAF790A0A27C62912C2510E
:102720002892D801208574234F91844D31ACD64036
:10273000B18AA25B2C64901A6F210143C2DB4584ED
:10274000A3285819116277061AE090D6686C3C0AE3
:10275000D22C4EC7C0C5952B0DA96AD2E737813A56
:10276000C5202F29F83A6E6149712D909BDB411BE2
:102770005D1B024F32DA5625EE8B6A526192DA36D1
:10278000093C0689946775E4A6DB5A2D6918453221
:10279000B3010A3A796A4C04D9BDD0E8122EB5D9F2
:1027A00034F24AAC0DCF48B693A39969A08501963F
:1027B000D7040DE011B8D269C52C677D4102C2C5AE
:1027C0002917D6249D62494D10E1074B67CD636FF1
:1027D0004F1800824656452F12CA14A163F127688C
:1027E000D870FD3D0CA1C5A645B5248B821237EBF0
:1027F000000CC52B9312889B72452426C9BA9BB145
:10280000DFEF1A6D76B322B7BB144BA9A074280270
:10281000002957EE9DA970A6E53D522D78AFACE397
:1028200013233414E3A6CA197211AC005156F1CB2C
:10283000E65D6573C481F003FCA346C57883F7DCCD
:10284000B258ED034A74EAB06C2FE9001A5D525297
:102850007E5A58FE382A0AB1C9A8FA40B4B979B9E3
:10286000A7B338CE7436363B08009A6A4A60B85D22
:10287000548A730D8F5FB400ED2E716B0A995A5212
:10288000A52B44B971FCA00079B907D825853ED89D
:102890001FD9889AA7A0325609B75CA200189940A0
:1028A0008501A8D6FAC35E632A2C949F510001B912
:1028B0002054A20030DFDDE428F74C00344884DCEB
:1028C000DBE57845CA8E898008CCAE53622F19EEBD
:1028D000E37CBF38004F7404F784289348D00E90EF
:1028E00000E4C82AC0DA1E8903FC3F480072A4EC49
:1028F0009FEAFE7112A48E9A180062E46FB8F94440
:102900004B905907B9D60021729DE02215D3557B13
:10291000E48008FF0077D8DAF785F701FC07D600D6
:102920001C29E36C87EB0A69F945F218006AA46D6B
:10293000AE5862E545B5440042E4923E2C911194B4
:1029400048E90011AE5509D8444A96413A880089B1
:1029500072C9D00110392E2D728F9403444B96B159
:102960002327DE2054AD957CB0088DC974DB284C3C
:102970000EA95B0BE5D60344C896CA40DA2371A1C1
:10298000AEBD6063B07725CDF6F9088D6C8EB78942
:10299000020718BEC9B1F08856C6962200215B24F2
:1029A0006FD607725C9BDC40040ECB1232D8E90371
:1029B000AE5C800049D3C220A4C894C651D7D222AD
:1029C000759B8300C81C64249F48894DDCDAF12C78
:1029D000A5444B6EDD3E4618A49F1D44218DCA952B
:1029E0006A61A52411000D513F96DF330894DF5230
:1029F00005FCA001160AB41E5D615BBF520C005AB3
:102A0000B6DB8501053B6CA061C17372FAA15A8ED9
:102A1000A4EF00D18AA84F349CE7BA7A65303BB561
:102A200007660DDC37F3DA20640A4052AF726FE1BB
:102A30001331281DD549370601BEE4CDD392DAC241
:102A40008E61D45A0809759590DDCA7CA0A00E96B7
:102A50007E69BB1566220E0B756DFE39B255F68286
:102A60008444258974252B36E86F054BCBAD23F1C3
:102A70001475F186909B0844A384E71B6D13B6126E
:102A800092029034DAE778A105CA34D958521DB2BF
:102A900081F84F58BD905346CD64209D4904C5A28E
:102AA0000B6625EC800E53E394DAFEB0E6E55DCCD0
:102AB000539091E7ADA2C827625119CE96B6E4753E
:102AC000839997D8E41BFD2002FA8CDB4CA50FAC50
:102AD0005C5F522372C37EE81692997BA0FC2A1F8A
:102AE00097FCA2896CD9A5128480EB4D83A6B7D040
:102AF00088265A6E75D7F3233651A0015FCA020BA0
:102B00009A7CAD49E170DA80BFC62363A5D26A2BF7
:102B1000014D49AD6083DFB5EF001B6619C3B537C2
:102B2000029C6A454DAD2091DD222FA430DD5E6D03
:102B300040FBA3C32F509DA002EE5F03D78A33ADA5
:102B4000C29237CD17744E14CC555C4333D3AB438C
:102B500076B907AC2B0372A770AB0C52FB35312151
:102B6000EF0A526C73289B78988F11E069944AA9F8
:102B70005873B4296CF7D851D47983D61A02B8E1C6
:102B80008A954654CBCED395953A6626DA40935C27
:102B90001B939D6BB6ED3637520A6C6DE30581458C
:102BA00088B832DC928E67DB2856BA9B46838AF857
:102BB000572C965D9954C94A926E743603C6158196
:102BC000C6D88B0D3496C4BCABF737D4DA29DEC037
:102BD00072DFD7CD25774DB6FF005A416057D5300B
:102BE000A5219654A1204AB7CC55AC6BE8C3DEEEC4
:102BF000F29324CA9A4AB727AC1601146A7BF26F83
:102C0000AACCB8EEBA2D4341162B916E7E7D2E4D87
:102C10004A958D8F6634F9C30166304D36A2B3668E
:102C20007204AB43E30E4F06AA0EC9AA629CA68AA1
:102C3000881F864D8C2B00198E0F4FA187173D746E
:102C40002D22E9B0BDCF846BF57C16F481ECD485E0
:102C50005C6A4DF682C0AC3480D5FAD8C46E536F2E
:102C6000B882C01DCA681B0861A72CFE582C08CD6D
:102C70002943E21F584FDD674B0DFAC160489A3374
:102C8000AA1DD6D57313B787DCEA93AC1604CD61C1
:102C9000E5EEA42ADEB08AA31413606DE705811B5C
:102CA00094C3D4690CFDD4ABE6020B01AAA5AB6CAE
:102CB000861AAA413A94416040ED282374188CD2B8
:102CC00081360982C08D74A0364C33F778FE1B41E3
:102CD000603BF76DB602227A4D081B41600CEB1683
:102CE000396E22053105811AD8F3885C6371FAC107
:102CF0006044A97D62354BF89FAC16044B9736BDF6
:102D0000EDE9103AC5FF00CA0B007719E84EF11241
:102D100098D4D8FD21811B92F704E6BC42E37D00E4
:102D200080A4C1D6C9D7BB112E5EE7BC200E0855C2
:102D30002C0E807DE225CBEBB42687644E4A6DD7FE
:102D4000CE225C982211440B95BFE5310AE58743FA
:102D5000BC0042E4A8EBBEF03BB2E47F9426AC0199
:102D60009D636F181DD66D7B83125260EE322C7CF2
:102D70007CA207193B9309AB190ADB1FEBA444B6ED
:102D8000C5AE3EB08B2329B13A1FAC36C0E8610016
:102D9000D5232EA0C20502378005B5E1A74F080054
:102DA00035531636ED881E50C72682BE270127C62A
:102DB000258D18664286455B4F188ECACDF0DC6FB4
:102DC000A42193340103BD6EBB45848A336AA56A8E
:102DD000352218C314D4AA3E249D7A83D2276D9934
:102DE00065E5534A1987E52615508B79362554C079
:102DF00028B661A94A86B114CA5A5F7728046A2D99
:102E0000149799363A4E5995A32AC911672987DD37
:102E100078829705C9D0DF68A136189C2B554AB235
:102E2000343327CBAC4331479B967C22618B1074A3
:102E3000BC52544D92C9C9AD4A0908D47888BCA780
:102E40004B84A46749BFF0C344B2E2451DA9C896AC
:102E5000813E00EB070935A80B37A036BDE2841090
:102E6000DC92B2E45B26CAEA3AC152D49436A16736
:102E70002E15F4F9C04596D4CA4B8C92EA57DCEA79
:102E80009DC0F946D3446BB30025B001D80DA28490
:102E9000DD9B4D1D90957751DDEA93D3FC6368A7C8
:102EA00053858AE4A52FE252378188BEA0D22B44F5
:102EB0007BC22494123C8D8C720E0AA24D3C842A53
:102EC000659ECFA816DE0480E60C2549C132123D6E
:102ED000A551BCEEA8DC24A88498DD6913380996B6
:102EE000FB54529A50DF4DA1B5C809349C313CA522
:102EF0003CB974B6826DDA234CB03C9D3E5A9A9030
:102F000052971D49248CC2D7108096A35993A7C904
:102F100017574F2951D004024DE284D5EBF31361CA
:102F200072CE16C5ADDE1947E9001708AA36C529C5
:102F3000D6AB336CADD23BADE7D629918D2992AC9F
:102F400090E5DB22E332CE9001AEE2CE24D158945C
:102F50002E4CCE21C5D89174EDE11C458A31FCC5BB
:102F60005FB690A74AA887C58ACA6FA43A03485596
:102F70002FB498B3AF290A574F1F2899B90A54BAEA
:102F8000D489D9FCA951D331B14C14003519AC2ED8
:102F9000C92DA4B4424DB39062ADD9AC336BADC46E
:102FA00003D0253A9828064C55F0D30DA53D9150F5
:102FB000B5AC45AF02BD89512282EC9C84BA52ADBA
:102FC0004AED72442023671D87FB31D82065B82461
:102FD00037A1F3DA1D33C457412971AECD407C28A7
:102FE000874057CDF112A2E8F85171B12635EAAD0C
:102FF0005A66A4B2B77427F8768280AEF762E2FE12
:10300000137899BA3F6C9272FCCC2018F5049D128B
:103010009FB4231875C51B767F686B9009FE8A9C48
:103020009728B9F9C23384F3B9AB67E70007B383D4
:10303000CD8E66CDBADE24386D21364B401B7580AF
:1030400008974529364A2C3C840AFD1EE2C06BE0F5
:103050000414043FB8D4A37288639474849BA75863
:103060004042E5352374C40E4A246C21D001BD2AA8
:103070009D6E222F754C14042F4B0E834887DDED77
:10308000B40046E2120ED01CCA52A3A26150033A09
:10309000D9D74F28896CDF5BC0046B6F4D8FD62169
:1030A000522FA980088B607D3686A929035D21D027
:1030B00003B88F08856DDAE0084040E356B9B1885F
:1030C00096CDE002253201D8DE225B16B6F0011261
:1030D000DB013B7D2235B3BFEB050102E5C5F58879
:1030E000DC6536BEB015644B6EC36FBC42B6F4B53A
:1030F000ED1341642E3600303AD03503D601EE2070
:103100007503C207753DDB0DE02AC1DD40FF005DA0
:1031100020675984F9006719DEFBED103CDE437E21
:103120008624AB0671034CDF5880A465B58FA44B91
:10313000290C5A45AFB831164EF13AC22869205EC3
:10314000E4E90D55826D78181971E30971AC260117
:103150002E31A1B397B6BA188169CBDEB83098D1B9
:1031600011EC8DEFF510F6DDCBB007CC42B185CA7E
:10317000CD593910826C7C22DA9F25EF8B03B2582F
:1031800049D330801976DD05D420250DAB2F98DE8C
:1031900031EA7348485652143C62A89EE230EAD2A3
:1031A000ACA10491E3BC16CB6878858401F7D618EE
:1031B00006C9B0A5A4250D95276CD68D8A854D2E00
:1031C0001CC9514807C22D11266E94894900C2546A
:1031D000EA028F556DAC3E7E834F9C232360D86CF2
:1031E0009E9154401398352E24AD845C5C5BC418CA
:1031F000919C2CE3494878DEDAEFAC02B414C53375
:10320000B1252475DD49836564D208ED1453FDAB07
:10321000FF0028626CB36696A080E0712A1E206FC2
:1032200006CA53997C7759CAA3A6834874416D4E48
:10323000A28164346D6EBE317B46C36EADCB3CDE85
:103240005B8D2C3AC3039030370FE72A6FA1912A88
:10325000B502402A07A4760F02603A1611916D5507
:103260006A721648F8491DEB434AC4C2B114A4A6B9
:103270002077B091EC25DB26DD9845BEE20AC3D865
:1032800046A72A10DAA5BB56C68148DA1A542B364F
:10329000397A1C8B4421E975048D94E03F68755A96
:1032A00059C96962D48A92E0B77424D88F9430B334
:1032B00052AFD42AD4C5E44BCA198EA90ADA2D30EC
:1032C000FF00126B4C4A21A52EE106C90E0B830AA2
:1032D00082CBF97C5E6AA81FBCBB961A1CC45E092F
:1032E0007E6E8E8602C4D9CC7E205408F58282CDB3
:1032F0006315CE5254D1549D5017026D9D5DDD6310
:103300008B2B1318954EAD49A925C6AE6D9D600255
:1033100060A0B35EA85567542D3134D2149DAEAE73
:10332000E88A69AACCDA5F54C37514288D6CDEDE96
:1033300070C2CAA7B13CE3B98BB3085281D2E3583B
:10334000AA9B999EA8155A65B20FE550800AC7A599
:103350002A4FA0B6269252013940315733233410F8
:10336000464CC4795CC01608D353CD3842AE0EC467
:10337000414E49CCBA02420AAFD0130A82C7B741C4
:103380009B7014AD4A1E711FF46E6CB999D774F01E
:103390002606164A9C36BDD573E90FFE8E806D90C9
:1033A0009F4861610C61CB9166C8F3825BC397BD96
:1033B000D27E90A82C99BC3ED23E31B7585FDDEC4E
:1033C00020E5CB07C02C6FBBB60148498919618441
:1033D000282947CF58682C7B8F3796C9020579C4B6
:1033E0006A09801322CD2FB5E235B6C2FCA00B22AC
:1033F0005B4CFF00A3023E997CA748482CAE9B2D56
:10340000A466FD22B9F7066EA2DE70C011E20DC1FE
:10341000D2FD6225AEC77806983BCBFBC40A171DC8
:10342000079089EE2B23284EA907AF4885D96BDF7B
:10343000F945010AE5B5BEF1138CE9A0854160EBC1
:10344000637CD10BAC7A430B21533AE62218A67C5D
:10345000E01B642A62215336D2FF003805646E33C4
:10346000BC42E33716B445790EC856C696F2DE2242
:103470005B3702C37E914C2C896C697022253173B5
:1034800068919138CDB7D6DD2217191B110A8081BA
:10349000C64DF511038D24E905010BAD74B40EE39F
:1034A000563E3E860A19038D9FB40CEB3FF53080E3
:1034B000816DDE2175903FD6D015160CF323AC0A32
:1034C000F363536F944B2819C6B4EF40EE357D6219
:1034D00059644A402083B18896804E8624A5C8C589
:1034E000363AC44B411A66EBE300C69040B936F257
:1034F00010BA1B40012EBCCBA3BB6D3A20EDEB11E3
:10350000FBBE736047A44B011528B42858023A58F3
:103510006F1232CA4AC255D3A88451674A9597EDB3
:103520002CA24FF38BCA632DB4E032CEABC7BDA043
:103530008A44BF52E515A484E55B4491DD1ADC881A
:1035400089F9861F467CBE452748A4AC8220865454
:10355000B196E32F582A5952E52015A6FF0048AE30
:10356000C05CD2A4CA5C0B697945F4BEA236DC3ECD
:10357000F7604A2665C01D72EB0D10CD9989292987
:10358000860259494DFF00860896A7BCCAC8274D38
:10359000BBD7BC512DB616CB42F72DEA3C0410B96F
:1035A00046A6402B047994C043209CA659BCC8571A
:1035B0004DA2BFDC94A16734F20488695059654676
:1035C00096799365959047E531B753290DBCD87529
:1035D00008EF1DAE21817B4EA1B0B2197DA2095723
:1035E0004168DB283424A4A52897076B5F487562DF
:1035F000672F70B257DD6CD939929370956E0C724B
:103600008E23751FBADB3EEE0A93AA516BE6368A0B
:10361000EC22968D87A6E7DC53EEBA51702C9B1BEB
:103620005E36EA5C8B948964A5A7371BDFAC021C6D
:10363000B9CAEABFDDE5A790B41EA53729864DD3E8
:10364000675E602A61414A22D700A41F9C00564E43
:10365000F0EE69FCB34E10557BD94ABDA2BE6B0A91
:10366000CE32A24155B7FC33A1F4800ABABD594C01
:10367000B425C29C42874DFEF1415BACE235C97670
:103680004DF740D01B9B9F9C0068B5DC4D5E6BB432
:10369000132FB9BDB451B1FB46935BC5F3BDAAC2AC
:1036A000B35BA5D46002A535F44CDCCCEA078126D7
:1036B0003113D4ACBDB5AC47F12BF94004B2953908
:1036C00037D47B19740527F32AF06353082DF68548
:1036D000DD8F4160200104D36F7E1CB341449E9B6B
:1036E000FD6D0F6B0E56275D0114D094ACDAE6F039
:1036F0000172CF0A142483CB614B59FCC847DA21ED
:103700005E13A849B4A62468AA2A4E972837F580E4
:1037100000C6189A6249D5CD6645F5083BC53B926F
:10372000C25EF737DFAC0022145361AC12D06DCD0E
:1037300048FAC0016CF6484D80D7CA084B8DA526C3
:10374000DF68008DC2D9BEBF581DD974AB5044008C
:1037500040F32517B2FE7033C729D4C0040E39AC2C
:103760000EE3F6DC7DE00077A608FF00AC46664875
:1037700036B7DE00237669476302B8E2949BC00443
:103780000E8BEF02B8C6636B6BFA40040E48E6EB93
:10379000E710AE475D45A002176445AE0C42B93B49
:1037A000400466552363F2889C62DA5ED0010B8C7C
:1037B0007411029816F080081C649E96889C96B03E
:1037C00080088CB0BE80C46ECB9B68200205CB1CE9
:1037D00097EB112E5C9D32C0046A9424DC444B9319
:1037E0002AD13BC0044B923B11112A57FB3BC0042A
:1037F0004B95037111B92B7D2E3E709AB1F6215C69
:10380000BD85ED103AC5813F685B4760EE31A4424B
:10381000B67BBF0C2190392C4E82207A577D6002F6
:103820000718B697E9033AC1B7F384C015F62C0F11
:103830008C0EB6AC2D086819C6AD7D37FB40EEB0D6
:103840003627E7099A0238CDC7F31D2077193E3B8A
:10385000C48EC856DEF75440E377B884F9288976D9
:103860004593FCE2336B6ABF9C48EC6E5F90FADED6
:103870001A103F8ADE50143DC9075172EB034D7395
:103880005ED68C97992DAAD7D01D95FE300166CCB7
:10389000F30F686E0F8AB5850C07159DB015E421EE
:1038A00035620AA7B595CB8B8F2B46C34EA6AE616A
:1038B0001DE5776DBC52426C7B92ACCA3E4858BF46
:1038C0008887A568713642526FBE687D89B159906C
:1038D0005821684D8EF71AC5F51294DBC437308C29
:1038E000C0F4CBB452E44D9B652705D25290A44C52
:1038F0009BF517B18BC96C3A1A1FEE813A5B75457F
:103900002336CD868B4C63287173ADA48D6C35BC8A
:103910005F966544BA5225C2BFF7874BC3A241D513
:103920004B42D59DB41277B130D4D3539AE52A4F88
:10393000885EC3E70C0C4D254F2D45A74661BA465E
:10394000A0C3C50145295AD21563A797CA18ACBBB5
:10395000A2D34BCE210DCBA4789508DEA95485497E
:103960005394D4CC905907BBE5082C2999021D4BE0
:10397000C1AB03B03E11B7615A6CB4C2727BB9BF20
:10398000F124EF1484CE49C0F4854B1F786A59C7DF
:103990000A0DB2A077A39064E915AAA498A938D714
:1039A00065B0ECDC864B61F24D229D2AB7A767DA41
:1039B0006D6AD3B1568079F9C0ECAA527A6FB255CC
:1039C0007B2A4E84B234802CD8688D50A9E0915760
:1039D0000E2B4EFACF5F18B653586279B4A1E9A600
:1039E000DA752077D274300EC99544A4A5B2FA16C0
:1039F00026481F12083F6115B51C3F4BA94B29A74C
:103A00001E28B7FDDE96800A29AE19494E1BCA3A18
:103A1000DBC08BFE22B29114B5BE15812397F761EE
:103A200053BA8BB6E03001C418CF004C4BB8B4BDCC
:103A30004D9C2079758D06A782A410F10FC8380D12
:103A4000F5CD780080E12A1B162A97249D40CB03F0
:103A5000CD60E927D64B12442156F874FD600279F7
:103A60002C02DB48FEACA527E200DEC22CE4F07E8F
:103A70001B62DDAB8563F305585A00B2C92E60BAEC
:103A80005361728CB39B6BA888959E215028EC865D
:103A9000E59416E5F5D2F0008FF19D48D1AA68743F
:103AA00001B15641F3168AD9EE3556D682996A5439
:103AB0009B60F5CA49801B35BA962AAAD596AF797C
:103AC00070778EC9168AA79056B249F3DE0031B9D5
:103AD0007F289D2DA8240BDADD600B240927406187
:103AE000CA4BDB2200B2151792735AD103934EA72B
:103AF0004FE700591AE654E5EFF731138A52B4FE46
:103B0000700AC81685696D7E71029A5A86BB9F3805
:103B10000644B9659D0C44E4A2F6B1802C8952CBD1
:103B2000BE90C32CA3B401631C9459E911194274CB
:103B3000DE00B3112648D7F5845C8697B08001A6D5
:103B400024EDADA05548AD5A88006AE4142F6B7D72
:103B50006077240EBA40044B90D6D96215D3FAEDA3
:103B600000591392245FBB10BB23A6D00590AA4432
:103B7000A6E72C31725A5ED00112A4C5E22724B404
:103B8000DA001A6442B4B446B9117BEC7CA00B078E
:103B900076480310AA460021764B4DA21725353EE4
:103BA00030003B92A40D2207252E6F001039277D8F
:103BB000A07764CEB731343207650EB781DE953A0F
:103BC000EB08760EE4B822D7B79C0CE4BDEF00C139
:103BD0009C963A9819D933B084D002BB2C440CF38C
:103BE0001626E9F9422B702BADD85A05798EF69A34
:103BF000DBA44B2D30675B036D4F840EE376D1223F
:103C0000F0868856D92093B794445A1B1541B4A224
:103C10003232C2837DE20774344DCCA1BEC5C01CD4
:103C2000475B9FE708DB8DFC5954078285FEF00D4A
:103C300096B22865F4A5C52024F4F383A60B49D5D4
:103C4000A69361D53A40486525CED5692B593EA348
:103C500058D9A4A49B4A5218EE13D55B18A44B263E
:103C600098905A9574E5579DA319A4256E02A971E1
:103C7000F2DE292116D4BA0178128BA2DE568BC946
:103C80000A7CCCBD8A9E4B8804683431443765C3B6
:103C90001222712021C50074B288FE717747A24CB0
:103CA000253F8B99C4745B66C48F0869126CB4DAC3
:103CB0004A52C84C930808EA15A13EB05258A8369B
:103CC000AECDA1616B589D07DA2807AA59D95415C2
:103CD000ADE21445CA53A810229E78AD49150424BC
:103CE0009171993A186912154F0FA0A3DF2509B9F0
:103CF000B875A3A0F3D2366949296994843895022E
:103D000076D2FF0078622FE8B23292603AA2AB5AC4
:103D1000DAA637CC3EE526625C353D2E069B9D3308
:103D200042A06E8DA295856813ADA5C976D000D04E
:103D30009F083E43074BCA4D934FD906E004EF0C52
:103D40009377A151DF916DB9F935AD0166EA1E3166
:103D5000B51ADF6F2A12E3E520684827580001C62C
:103D6000A9F30FF69332056DDEDDAAD44DBCED0646
:103D7000CAE089C9D970A959F42D83B58116800B81
:103D8000192C1ED49A6C6652BBFE558D47D609AAD3
:103D9000E1F9132456EC99294D9256D93AFCA00327
:103DA0005D98A6CFD29D53B4CA84DB40ED98E84419
:103DB000306379992506A7C172E2D9C9236F38000B
:103DC0008DEC7F4D9A703656B6FA588DBCE2BEA384
:103DD0008C532AD6666AFDDFCA4E9001A8D7B1D3AC
:103DE0008EDFB49B4127C09378D52AD88587CFE151
:103DF000B3737D4DEF0014D33540A70D90907C0038
:103E0000819CA94C363BEA4907622002172A8BB1F4
:103E1000CCADFADED159507E61C1743E9F5BC005C6
:103E20005CC2D40E575F040EA981DC57F02BAF8D16
:103E3000A00235BB604686DE10D04293B6BE378006
:103E400009523CFE519604D8180095962EACA2DA81
:103E5000412DCA13A5A002662405EFA416D482360C
:103E6000205E0031CA6B2B16C83E902B987D0A2726
:103E700022523D60021770D94EB900881DA0A922B8
:103E8000DD9880088D13BBB0F4881CA2DB5CA20017
:103E900021552944DD407CA1154A245B2FD2002204
:103EA0005D209E96861A204EF6D6001ABA4586895F
:103EB000885CA38DCB7A8D20019FBB1491F08B443D
:103EC0006ED395976D600077294B50B14DA215D2F6
:103ED000C8D348008D74C50370207769C7C04004FB
:103EE0000F53C817819C9055AF00113920ADED10CC
:103EF0003B20AD49D20021548104F7622764556B01
:103F0000DA00075499F088D6C5B61AC00316C7F66A
:103F10007588D6CE96300112E5C2956BEDA4355268
:103F2000693FE500EC8952171B440F489EA200B080
:103F300057A4B7BDA0772535B0802C1D72C00BE902
:103F40006881D9749BC034C19C974F840EE4B20D34
:103F5000F4DE00B07764C5F4DA057A5800493A080F
:103F600097C0D305765C5E05759D611408F302D099
:103F70002BEC8D8F844B54004F33A40CEB008B9BA8
:103F800078DA1149D033CC0E9033ACD8DFED125A29
:103F900020533B8110B8C9363F680B21537E7D61A9
:103FA00085B4DF5222001D4EE996FE568734A19A51
:103FB000CA16BC0596528D36E0086DF17F08253E85
:103FC000F32CE0051A2BC3426020B4A638D4D1C824
:103FD000922E3F2A858C5FD2E63DDCA10A5AC24769
:103FE00086A91164B36AA5B3253CC663329CFE233F
:103FF0004CD06A6905C39595A176E9737FD228CD27
:10400000B2C29F2154973990C2F2F40A5748BA902D
:10401000A6CC3AEF68ED39CD45FBBB7D62A89E0B7F
:104020006629C84B0148935A883A85A09B46C745E4
:10403000A325D603E81D993A776F6BFA45512D9B5E
:1040400005330DCC06CBE8702891A6516BC24FD238
:10405000AA12A82974148FE21BC34A8568A9724D5D
:104060006C9CA92ACC49E9A42CB61C7A7DFECDD73C
:1040700012D5C7C4E2B73FCA19365C5230A292E0EB
:10408000BBC95DF4EE122F17F2D429D68F625B5AAA
:1040900013E08EBFE7008D829987BB24A56671CCA3
:1040A0008BB1BAEE7D6364A7D1661165CBCC2CA42D
:1040B0006A13BC00D9B8610A154E64A007DCD46647
:1040C000C9E1E51C998530FCDA923B4915A86C4D95
:1040D000BAC0166E48926CB0251F901A0D3BBFE116
:1040E00000CD501F7CA5A43791949DC937300C8E0C
:1040F00065F764D665D9942E840E89247D4424A561
:104100004A729CBF7B6A55D0958B96731CA7E500BD
:1041100016150C68EA5B6D29945952F5206B6F5D9A
:10412000203555677DDAC89ABAEF9822E040200A18
:104130008E2E9969B4F6EB50B1EF14EA980955093F
:104140004AAB7972B6A23524697FA40335CC4F20DF
:10415000843A14C380823A122D1A8D71532DDC34A7
:10416000E93BDF374800D4AA935319C768EA8DBCEE
:104170000C57BF526E5D17ED0DFAEB0014B3D8B0BB
:10418000B4A57668171A08AF98C5D37320873AF894
:104190001B5A00205565C78F79C3F5BC67EF458171
:1041A000943B68004138A5684DFCE17B52A56A4EFE
:1041B000BF38005D4E97FA4390856BFA6D0012840C
:1041C0005CDFAFAC4ADA2D607C201584B0819BA700
:1041D000D60C68A3E500C2DA48C9AFD2276F2039F0
:1041E00060024B002E91BF9C39B4DFA0D60024F7AB
:1041F00060B1D61864124EA9BC003574C6C77B20C6
:10420000077881CA636AD548BDFC600077292DDF35
:10421000E01112A94DDCF70690011AA9880400905C
:10422000210D3529FC8200225D3C5AC53F4881CAD8
:1042300068FE010010394D07F2FD22155301E90017
:1042400011394BE8130C1482AEE8440031CA25C67C
:104250006B0D6047E8840BA84000EE51EDA140884B
:104260001DA42403603580019DA58DB240CF534627
:10427000D906B00033B4EDFBB03BD202F6B6D000A5
:1042800033B21A40AEC9E5245B68001D52A6C61BB6
:10429000EE84926F00182513AE64FCE10CA2074F68
:1042A000B40044E308D761013E94AAE2DF3800116C
:1042B000E4A4DF226057DB17D6000675B09F940E8A
:1042C000E37BE6FA4000EE3435FE51038DE5D6007F
:1042D00006984055FC3F580DF6EFA253D2F09AB124
:1042E000A0479AB28E902BAD8CC74BF9C268AB0336
:1042F00079B20DBADF6819D466274DE1140AFB21A3
:104300003B7DE057DAB8CB789040AEB4373D7CE0E7
:10431000679BD0ED12CB883BAD106D9A0771006F93
:1043200008D13215A7423EE223ECCAB5309A1806EE
:104330006BFF00D61ED8F104C487210C36D2CE54B0
:1043400012955EFBEF074B4C4C32430EBFDA27F859
:104350005C17B7A18A5426CBCA4B54F99CA14FA530
:1043600027F88F43EB17CCC8CC06D391D0B48D88F7
:1043700037262922596D25EF32890A70141574DC0D
:1043800045C53E71E707F577FEE937BC51917F459A
:104390009C53452E3AF388BF4E91B5D356879B4C1C
:1043A000C30B19ADA817B98A13361A389A5B61F492
:1043B000BEB0A074CDAFD748D9645E4BE91EF650AD
:1043C0006DD0272AA2D7043EE5B5116655E086D404
:1043D0005C07F298D866E564AA32852ECAA82BCB72
:1043E0005FBC049ADCE61A71734506E9413DD525A8
:1043F0003707D4C12CE110C2B219A23A93D0402B96
:104400003917827C109CE23564D2A4E7A5D969B43F
:10441000871D9A5A6E1A17B5C01B927A4729710BDD
:1044200095098C13854E22A7D444F30C11EF1992F1
:1044300012A6EE40CC2DB8B917EB1A471DC7718CE8
:10444000B354B69A35330505389041241BD93B4700
:1044500071792CE46F05F10B0C1E2463F6665D95F3
:1044600079E5B32D4E61C2D85E50332D6A1ADAE673
:10447000C00B6C6F0AA95B167C9E1C7836FE63B974
:104480003DC1FC27A1CAE39E1E539D6E41D7C4BB0C
:10449000F2132ACE58514929525675293620837372
:1044A000B6B1C6B4BA6292DF7E4969D2E4A3689518
:1044B000ED21E193945365CC83544962972625D628
:1044C000AF1B9BC17529EC34E20332F26A247E5E95
:1044D000CCC235B656CE4D494849A9890A530CE796
:1044E000F896E6F1AE22499997FDE153497977FEB6
:1044F000ADA072FD600E412BB507655B243082BB19
:1045000010484E6B46AAE55D6D34B76650537D800A
:104510001A9FF2800824D4CD48AE5D6927B41D4EA1
:1045200090DA561C725D6B5A9CECCDF6BE968039C3
:1045300000C492D30DB8AFC427C2E6340C49552D40
:104540000521C57D201D9A455AA6952CD95152FCAE
:10455000D25D0539AFEB00AD803F4E69DB956BE96D
:1045600000CCD302544A2D005B22F745A1560043EC
:1045700084BA85EE200E4910CA922E1312B6D116B7
:10458000B27D200E49109034501E112368D200E4F1
:10459000982144116B44ADB4563E1F940010C336AD
:1045A0001B416DB7716FB401C93A1BB74EB1336986
:1045B000503B6BBC01C932028F748BFA410C364000
:1045C000BFCAD005B274357F382A5E44A866CBBC1A
:1045D00001C8F729A4FE4D6205D3976F8600B64641
:1045E000AA6103E086AA9455AE51F3802D919A3EBC
:1045F0006D80F4D610D095B8034F5802D8D5E1B5E8
:1046000094DC23F5889CC38E137C83EF00EC8574C7
:10461000003552622728A01D13B75805645FB916EC
:104620007508BDBE90DFDC7ADD4D58F8D8C1C8589A
:10463000D5525281628102CC52C0B8080600B6063B
:10464000F52922E72DBE460398A6782600027A9D1A
:10465000E2204769A54741680089748CFB27EF1069
:104660003D443FC0200B60AFD09607C1A9809FA2F8
:104670009B9BB7005B037A95945CA6075C9E5DA04C
:10468000020799293A881D69581F17D2000571B58C
:10469000AAE48BC0AEB449D06D00720CEB161AC000
:1046A000EE344826E07CE00B60CE4B923406207559
:1046B0009D3CBD6029306718EF5AF681DD63C45B0D
:1046C000E700033CCEF6811F6BA11D2F00C15D6783
:1046D0007811D6013098D3039866E49B5AF033CC16
:1046E000D8DFC7CE24AB0571B001D3E7023CD0D8E8
:1046F000C26502BAD6BA0819E6D29DD24DE24A5D29
:10470000F80675BB9DBE503B8D0B7F3892C856D8BE
:10471000D77D7AC459024F79300ECAD0DA6E093784
:10472000895B0502E0D86D105053192F671A4AA013
:10473000E954B19404900782B6314892DA4A598517
:104740002012D22FE29545CD32496EA92B64AD36A9
:10475000FE15FF0028B44366EB87A42AA508EDD90F
:10476000F784275B389B8FB45BCA5329EE3A026407
:104770005C656370CAAE3E622910CD969740A786ED
:10478000CAAE85122F95E0502DEB6B45EC9E0E5175
:10479000CAE32C048D8997585FDA29221B0F91A157
:1047A0004F4B3E17293A74FF0086EDC18DB6873D09
:1047B000388C8D5429E82068557BDA28CDB2F25226
:1047C0006292E3C7B1963DA1FC815A2CFD2362148D
:1047D000CAF52025350A2B92A16029287B4B8F181A
:1047E0003926FC8329F4C929977306020AEE73A4BB
:1047F000DAC63B03CB872A3C39E28606189715CDEB
:10480000CF4C4D4D38B4B4DC83E109974A5596E757
:10481000BA7328917B1D2D68D70C54DD331CF91E0B
:1048200038DA356A456A81CB7F146AB87E6D2A9D75
:104830006189854ABB312C6C4E4577560788EA3C26
:10484000E367E24735D86B136117B09616947DC5C0
:10485000CE590E4CCDB7D9E44DC1200EA4DAD7DA2B
:1048600034DCA31DA46C73929179CAC61FC115A133
:104870003357C41EE93B3C4A4312531DE0946B99E5
:10488000594EE6E074D018EE672E95F7F0BCACDD1B
:1048900036952D2C8C3C87B3A5A65633B4F900B8B9
:1048A00094EB609B6527C144C4EC528986A24ED923
:1048B00059CECF10AB4F495130E869A66913979B89
:1048C0006E602AEA98713DDCAAFE1CA157005EF7D3
:1048D0008E10A609E7D21724F9583AE9AC62A292E1
:1048E0005475E17EC5B20AE54448CC21EA97746C60
:1048F000404EA7CE26627651F93CE10B160081733B
:1049000073051B14D58ACCA36E169B5A12AD80205A
:104910009BFF008FCE006C214D975F9A2823F228D1
:10492000848FA41400534C3738AFFDA82C81F0F4C9
:104930001E9103B8552F59E75448FE0B5C420019ED
:1049400099392A6CC29D2A4B7D2F6DA2A2B98DA9DF
:10495000D2CDE544C3770363001AAD5F1FC83C8224
:104960008330D6A7C6341C5D599499595B0FA35167
:10497000F083001A2D56716A59520E9154B9C7C569
:10498000F53E97828044D466362AB7918709E5A818
:1049900077D405E06A8051317D0116895090B1E2EB
:1049A0004E97828091B6C78FCE1E1B006A7E900103
:1049B0002265D4A37173E512B72C762200086E5AD3
:1049C000C7630422588D843A0276E58ED6825A96C1
:1049D00051FCBB78C2EE04E8962374C4CD4ADEF7DE
:1049E0004FCE000844A240FB5E276A5920DB2C0012
:1049F0001B2D24DD85C6B165272CD24DCDBE7000A0
:104A00007224A5962CAB6BE7114C532581EE8D6D6E
:104A10000003B922DA2E2DA43049201F23E3000A17
:104A200064DB4EC9FA43D0DB205EC079184C070026
:104A3000C136D042392EC39A848FAC36040BA5B24E
:104A4000E28E9BF9C398C3289A5040075F38697279
:104A5000072A709B93CC57C4DA2AABF2AE4B49C9F4
:104A6000E62844C4D927B550DC24017206D7DA35CC
:104A70008E2BF00EBFC2EAB1A3579A6B3293DA368F
:104A8000F30ABB6EA6F6B836BFADC5E0EEE8CD4F73
:104A90009A38FA7683933770E9E7155314B0144EB9
:104AA00043034680EFC80B7751BC00F5214E681BCD
:104AB00037840073187E6403959D60572813094D51
:104AC00094D2B48006B74275C50190C1230A3EA4B2
:104AD0005F269D2D0003CDE1728412523EB6314D0A
:104AE00050A0A9B70A72400554D5208B8C8748ADD9
:104AF0009BA60403F876800AE98A78CDB406EC8D8B
:104B00008EDA4000AEC9EFDDB406EB163A4000AFD6
:104B1000303581CCB85AC82363D2000EFE8CCC4C01
:104B2000C9A9F9490756940BA9D6D04A47A9114BF0
:104B3000332A1A5E45277EB78A71A2632B047582D9
:104B40004EB103926AF089281662548EEA85BCE061
:104B500047E5741B1D601A608ECA5F5B1815E94D2E
:104B60007680A037E58EC4408FB1BED12CA4FC80E6
:104B70009F6058EB02BAD5AFBC22901CC36126E7F8
:104B80006102BCD5AF12340CEB22E6E3D2067136DB
:104B90001A24C41A2215A74EF6B11D85CDFEB00CFD
:104BA000AC4A0E6BE53122520EB09202765090AFB5
:104BB0009C172C12916526E0F8C300E97532920526
:104BC0008FD62DA995432AB0A6D445B5D0C5233399
:104BD00065A463DA8C9A4392D30B4907E151BC5F19
:104BE00049F131F70FFBD2159B7CE0023EF1489270
:104BF000F247880D29401794DF8A81B5FF00946C35
:104C000034BC6926F28769533B6F6B5A343265F4C2
:104C100086214AC24CA574123F2BBDEFB46C3429D7
:104C2000CAABAB6CAD0971BEA5BBEB01273872F9FD
:104C3000C1BABE3F9D9DAD1AEC853DAA2F67305588
:104C4000367F1162E4D8036D34B5CE972223E35644
:104C500025A9CAE315D0DBAAB732C49A6E1413652E
:104C60005D60150511A5C6834D348E971DB8F77A82
:104C70009CAB26ECAE35D8A190C413AD3490CCBD1E
:104C8000C9D483D3CE3923863C53C7B835B7E53072
:104C9000B62F9DA64BCE005E12AE640AF3D763E634
:104CA0002C63083DAED1B4A2A4A99458FA92F3CCD7
:104CB000AAA8D4BBBBDCACDC924EA4DFAC6A144A1D
:104CC0000BAFD49AED2614D214A016A172522FA9BC
:104CD000CBD74E90EF9E47D9707763805CAF61FA77
:104CE000A62495C3DC3BC5C6B32D569300D767A950
:104CF000E5B4B42C54AC8D137CC026C083B9D6392E
:104D000043991E4239C8A870E699FF00621E742AB2
:104D1000BC3DAE61E79D9D6E9B3549666A42B64AD1
:104D20005399A99490A27E0EED811751B83A11BE05
:104D300044A30F665479D2D445645E2C2D1E2AF309
:104D400001FB431ED14C7F5696C218C69B81694B0E
:104D5000C385526EC8CBD014852A610E59D7161C54
:104D6000595A14ACB94A059206C01D63BD3EC19F95
:104D70006A7E05E79B9A495E55B98DE0E4A52EB79A
:104D800050A4BD35489EA5CFAD527519A974768E35
:104D9000B4E30BEF2496C2D48095A85D041BE863AE
:104DA000C8FADCE57168FA3FE1D8F1C16D6CF447EF
:104DB000DA0BC0EC0D80B0852F19E0AA6334E7DF71
:104DC0009AF75764A5AE1A74141505849D88B58D9D
:104DD000BF88474FA6E62B4EB4996F7A5AD57EF01E
:104DE000BE8911D5824E504D9C79A2A191A4132564
:104DF0002394217333C1C55C843763BC573B5197FF
:104E0000F7852A71E256376EF68D8CEC866719C9E4
:104E1000484B92C2F29BF7AE6292ADC589A0DF65A6
:104E200028B4009DC837F9C2A0B34CAF71327C677B
:104E3000130E2940F40748D12BB8DDD9A510DA1696
:104E40009F9C0166BB52AF4EAC5D2BB79457B955D2
:104E50009872E1C55E00B18A796EE8A17FE508DC51
:104E6000B2542E7AF481AB0B31C934939BB3FBED72
:104E70000CF7449D408631C993B7D6086A5CDAC006
:104E8000DA01593372C6C34BC10D4A1D353AC4ED20
:104E90004164ED4983B0FAC12D49682E2185A2668F
:104EA000E500DE266A52C05C430B0844A8B5E274F4
:104EB00033A5A10592A1AB0D3C6264B5BEB7BC01A0
:104EC00064886FA936F2895ACA9B5950058432F614
:104ED000502C6F04B5316D735A01D93B73997FE241
:104EE0000D7C62413F7D16ABC142B1E9712B005C84
:104EF000411212CC4CCD25A75761E46D7F2F9C2D1C
:104F0000A0D9950966197CB0C38549B5FBDB8889B2
:104F10001477DC48524E9E261D27DC574413328EF0
:104F2000CA7C571039985A6E6E3D6D025434C435A0
:104F30000520DC27E904C8571D65E4AB2DC0D61851
:104F40009B3B4BCB8F34B80689C3F96C238C2A0268
:104F50009D314F2A4A1E712A536F3654543606CA61
:104F60001722C7CA38DB9A7E3AE1DE26E21956B02C
:104F7000DA96B94906D49F795A72F6CA51B9201DFA
:104F800040161BF9C4D53B39E317E21C31353E9777
:104F9000CF77637DE0712A87C139877A28E9442E6B
:104FA00050DE71CB848FA44CC61D52BFAC682474F4
:104FB0003082C2E4B0CA6615D9B29B91D01BC5C37A
:104FC0001C2A999B63DE152D71E16802C46F83CAA8
:104FD0009725E7D928EB629E90255704265D840625
:104FE0005BD35E90059AD54B0DA826E120FA88D7B1
:104FF000AA74048BA92D827AC03286A1470824DACC
:10500000282A924104DE1814F332C0DF480DE9402B
:10501000358541600FCB1B18AF9862CAFE50500116
:10502000BCC69B442D3003973703C4C09512DDA343
:1050300098704E2CC212D8365A57F78B32CB974005
:105040004BAD38ACA7375207E6BF9471062E5C8C87
:10505000ED6A6A6E9ECE465C794A6D274B2498DFD6
:105060002D4A2A8E6C2A4A6ECADA5D1DDAACFA64C1
:10507000658A438E6D9CD80841249967DD65FCA53F
:10508000C68E436370758C525DCE86F9A2BEAACBE4
:105090006A20A1363D4C56BAD6C07DE25A29033863
:1050A000C8DFEF033CC6B6EB0860530C1D6E0C0561
:1050B00034C6BF0C0580BF2F63A26037DA1623C643
:1050C000259680A619FD3EB023CD8D7D3EB105020B
:1050D0003CD837B131029B23424FA4265032D92607
:1050E000FA433B22370624B2A80B9EB6F287A117DB
:1050F000045AD0004348F97A182D84660093012D94
:1051000087C8C921F50B25C55F7CBAC5B230FBA5A0
:1051100019CB0E58F888B2184C9C8349EE381C1FE6
:105120002DA2DA42881EBA3B65A75D2E88AA21B25D
:10513000CA5E895140EE3897401F94FF00283A4ECE
:105140005E725B2A6625D491D34BC35C10D9794C2F
:10515000725C1494E841FCA48FE513713F9875725A
:10516000DB2342C4F298613883F78A96AF77766979
:105170004D352E504775D294DFBD7BD86E21B9F8DE
:1051800069CFD0218FC69285D58E96F6E3713D8189
:105190002EEFFD9A3874E3920EA95208536F965B76
:1051A0006948292DBA8CDF8DA9CC0922C7A188F8BE
:1051B00003ED05A9F1A38A325C3AC7D82E9B4C15A2
:1051C00072A44BCD53DE59407B74A0A557B03A81F1
:1051D00063E1BC63FC41E6928B8A4757F0A8E9E0A3
:1051E000E4A4DBF79DABA361E97985212D4F38332A
:1051F0005AC41D3E91D94E48A9EC5078DD876AF516
:10520000091919D65A714DAE5EA12C1F6D5990A483
:105210008390822F722C6DA4752679B93EC33B19F9
:10522000ED04E16613C33C3196C43FD1392A64EBE7
:105230008F86D8128C2501608529485A53A0B0DA90
:10524000FE11D31E15F0BF10F1271C3140A248A15A
:1052500060AB3B8E1EE2196EFAAD46C76E9D6E6066
:1052600087B54658E750B67A15C9972E1278178831
:105270001489DA856FB56A590E3AD4B15A9003C1D0
:105280003DD206C46AA36F21A4772908A3B52EA135
:1052900030FB6840492BB9B69D4FD239F54DEEA48D
:1052A0006389C324F74CF2EB8E3C8A72A9C55C7506
:1052B00058C7956E01E0DABE25A837349F7F9EA7B8
:1052C00032E3F387B0702145C50F88000851B9D08B
:1052D0007808F06FD951C5E7780FED18E07F159B7E
:1052E00071E09A562FA70752C1EFADB75D0CAD3FE5
:1052F00034BA41F28CF5518EE8A4BBFF00A3DDD097
:10530000CE6E13B774957E27D0E7329C6DC4DC490E
:10531000AB7BAE20AFBB34A95529B69BCB952D8C6A
:10532000C6E120580D85FA9B471453A953EEB9DA0C
:105330004B7506D9C5C88EB51505B51C2E4E6EE445
:105340005A224AA94961D767D96DD0137174DA34EA
:105350002C513F4F61D53CE39652CEA816B0F9C30D
:1053600011A46269E90747672951085281B856C0FC
:10537000C717576B351969B5329991607F29DE00DF
:105380002AA6ABF38A4969E001F1B9D62B5C9E519C
:1053900051361E3BC00316F158D523EB109524DC83
:1053A000980099A5B7B003D6F13A1C484E8DA7EAEC
:1053B000600332A164A801AC2A5A16B5C7C8C0045C
:1053C000A896CDFE513B72B726D0004372A361046C
:1053D00035283A180025B951E313B72FA4004E9988
:1053E000516BF8C4CC4917D41A6C124E81237260E9
:1053F00002C1CC31529763B776517906A48D6DEB1B
:1054000003893CBA5B6802EC9112C77DAF13372861
:10541000A73BA84EBFAC01D89CD15FCB606C7C226F
:105420002324F21794F48049D8E44A2C585BEF12F5
:10543000A25DDB684DA01D133728EACDC1D478C426
:10544000ED483C74B1D7A75800B4A5610AACF65E2C
:10545000C659C5151D3BA4DE2D13C3EAEB4E265CD1
:10546000D3DECE4848464214493A0B6F0509C8B905
:105470006380FC467EA4294D60F9E54D29B2F865AC
:1054800008CC722773A7847673D9B14FA4E17C65E9
:105490005992C49819A9C72769E16D4F3CDA56A6FD
:1054A0001285F79094AC5885E617B7F0EBA444B991
:1054B0008B2276D5238439B6E14AB067192BD4A95B
:1054C0004A6CB30CB934A99658920436CB6EFE22BE
:1054D00050074290AB5BCA389558626AC4E4B11A6F
:1054E000DC88A5CA2A3DA9992F858BCE84299254A0
:1054F0007CE39AB037263FBE684C55ABB539861D64
:10550000996FB44B12880A0849DB313D76D341AE1E
:10551000F037412746A58F786B5AE16D69BA14E5DB
:105520003A5DF6A5F3298982DE5ED92AD6E4DB71DD
:105530006DBA471E54E89DF53AF3790A944E549D8E
:10554000BCA1847B15C68E9ED2E91F2BC4A8A7964A
:10555000D21283F230144E89378A824B6AD45C01AE
:10556000D60B6E9D50427FF625E5BEBA5E00369C96
:105570002D4D432A0A54965246F1BE49CB6561002F
:105580004B82823E2FE500042A40CE4A762A601CD8
:10559000C74B6B68D5B13E0E9B93EF4C492C24E969
:1055A0009C6C600357ADF0DEA0F32A5CACBA8FF6BA
:1055B00036CBEB1A94DF0DE7E612B49955858BF7DD
:1055C00045F480291ABE26C1E6932E54E3C900E8AB
:1055D0007C4471F5764D01D506D448F1300514733D
:1055E0005282FA404FCAF749BFD6002AE658B83B64
:1055F0001F9C57CC31AE900023D2FADA20725EC6DF
:10560000F7800B0C2F5294A6548CC4FB44A0A480AA
:10561000A02F90F8DA349E66388F3180B08CC63E69
:10562000A0C9B2E767352EC2999949CB3199473065
:10563000046CAB0B83FD9DA0949471B7E818E1BF97
:105640002A4FCCE2190E3A2AAF8B6BB3F8566DDABB
:105650008D46616D52681879A52B2384DD4B9958CE
:105660001A581DCFCB6B98E44C0588252B8F2F063D
:10567000B789175DAA53591EFF005492600942F181
:105680003AB695A7BA542FB0E82F18C27B9F1DBF1A
:105690007FA1BE5C4F1C795CFF00AFD5FE45DCE509
:1056A0003DE96576330DA92B1AE55EF00B926B5E32
:1056B000C00D34F38D8C2E815C63BF6F0DE05758A5
:1056C000173E5AEF10FB94811E686A49BDE029A677
:1056D00005EE601AE006699D0EB68AF790331B440A
:1056E0009AC40E65ABDFA080261173A441608EA71B
:1056F000F2EB7F388BB316173784C644B404F53108
:1057000002AC4903C75F389342A7B3D477AF0F6D9C
:10571000B0765404D93B29B1B5FAEF05B49DAC7C01
:10572000F48A44B61F2539312CB0A979852143AAC2
:10573000491161FBEAA8FABFDE2756A3B6AA8B443B
:10574000B09959D9BB85178EFBDE2D246AB38DAA7B
:10575000E14479DF780C9B2DE5EBAE3B60F36156BD
:10576000D7BC758B5A7D7D22D7CE2FD01B8FA18AB7
:10577000449B1D1E765275C01D28BF4CC9B6BF285C
:10578000E4AC0469AC85B2A91A7CE313482DBB2DA7
:1057900034D8750E03B85214083B78452E39644B43
:1057A00090DE277B39F975E28D36838AEA3C379C97
:1057B000C2AECDB2A509CC353086D1524A5C249513
:1057C000B241425401CB9929492003A98E8573091E
:1057D000C399DE56F999A8E1CC2D30F765439E6A4E
:1057E0007A9731306EA2D12975A24F523627AD8CEF
:1057F00071EAF0C71BF123DCF4B41A99665E149DBC
:10580000AAF99EAC705A7E91C62E18D138B785DDA4
:105810004095AE49A26D2D24DFB252BE341B754AAD
:10582000C293F28EC1F2FB8A1BE17D4DFABBF4E517
:105830004DBAB6928979869E2DAA5085051504DA4F
:10584000CABDAD6368EC8BB567999A3DE26DBCCA81
:1058500071F7883CC4483143AAA6524E498703B920
:1058600025D2A0B79C09CA14B3720E84E89B0D63BD
:1058700065E4E783B2B80A726B1CE29A9B0FD37F90
:10588000A899956924A9396CBCC4FF000DFE663443
:10589000B50A39258F6E3D88E79C47C5AC1D43A1ED
:1058A000CC5770484BE1482B956E41795C6F4F8E19
:1058B000FF00940D4F8C73250D8C56BE1587B12FAC
:1058C000106627DF7A510E3930A0DA2E168F852A1E
:1058D0004A41B106D98DC93ADE2654DAB5E672647A
:1058E000838C2CE8EF3F351A5705A8631D60BA9CDE
:1058F000DB52D334D9D52E5D4F12A955B6C92548F0
:1059000056F948575D418F99AC258AEAB83B11D3C7
:1059100071651E60B7394B9966758793BA1C6D69BE
:1059200071247A1488E4D7B7194533E8BA33F131D2
:1059300049FC3F53E88A81C4F4F1568D4AC692B3BC
:1059400059C55E5599F0122C921E425CFF00EA8DFB
:10595000EE9D2E9929613D32E843647E6F1F58EA1F
:1059600047276E0D7B88FC5E6E5A9ABA4516592BF6
:10597000708CB98E83EB1C3DFB8B1362D9EED94F33
:10598000764566E159CDBE90C2D06D5301230DC955
:10599000976A35F44D3CDDBBAD27E13E17F18D171D
:1059A00012D11B9C417D096D0A3A958DCC006B2F5D
:1059B00053249B059756952875315D3D2726DA4976
:1059C0002F362DFC3A9802CAB7D2D85F7368854C3F
:1059D000A5474300592372E75D6086E5D5D0C01620
:1059E0004ED4B79FD2086A57AE9005A086E5011A3B
:1059F000889DA961D6026C9DB93F2821995B6D01F4
:105A00005612CCA5B6113B72A6C3CE026C9D12777E
:105A1000BFA45C60F9269357417C0D5072DFA186CC
:105A20009D09B373548321A20A6C00B924680469E8
:105A3000EBA3AE7261C32A80005137274B5F484CFD
:105A400098BB235D2D6C1ECDD042869682A9F24173
:105A50000BD077BF485C5976768E995FE002381696
:105A60009A6BAAA584891C8E489427DE8BF96D7BDE
:105A70005B31567D736D68EB2CFC8A0B9A117EB0FE
:105A800018E24D37644990BF48999A52DC3DD4984A
:105A900066E99BA70EF85CF6239C6CCC3176AFB61A
:105AA000D9A3B8FC23F66D621AE60D97C5E2874DBF
:105AB000421F6C3B2ECCE3843CEA4EC6D6205FA549
:105AC000C8BC67932C30C774CD31619E7938C0E66D
:105AD0006E58702F0A387D5CF77C454BA74BCEB2D1
