:020000040800F2
:1000000090990020AD020008B13F0108A921030822
:10001000A93F0108A117000849F9010800000000E4
:1000200000000000000000000000000089A6010898
:10003000D11C0008000000009D210308A321030833
:10004000C7020008C7020008C7020008C70200086C
:10005000C7020008C7020008C7020008C70200085C
:10006000F11D0008C7020008C7020008C702000807
:10007000C7020008C7020008C7020008C70200083C
:10008000C7020008C7020008C7020008C70200082C
:10009000C7020008C7020008C7020008C70200081C
:1000A000C7020008C7020008C7020008C70200080C
:1000B00051AC0108C7020008C7020008C7020008C7
:1000C000C7020008C7020008C7020008C7020008EC
:1000D000C7020008C702000809F50108C7020008A6
:1000E000C7020008C702000800000000C70200089D
:1000F000C7020008C7020008C7020008C7020008BC
:10010000C7020008C7020008C7020008C7020008AB
:10011000C7020008C7020008C7020008C70200089B
:10012000C7020008C7020008C7020008C70200088B
:10013000C7020008C7020008C7020008C70200087B
:1001400000000000000000000000000000000000AF
:10015000C7020008C7020008C7020008C70200085B
:10016000C7020008C7020008C7020008C70200084B
:10017000C7020008C7020008C7020008000000000C
:10018000C7020008C7020008C7020008C70200082B
:10019000C7020008C7020008C7020008C70200081B
:1001A000013A0108C7020008C7020008C702000898
:1001B000C7020008C7020008C7020008C7020008FB
:1001C000C7020008C7020008C7020008C7020008EB
:1001D000C7020008C7020008C7020008C7020008DB
:1001E000C7020008C7020008C7020008C7020008CB
:1001F000C7020008C7020008C7020008C7020008BB
:10020000C7020008C7020008C7020008C7020008AA
:10021000C7020008C7020008C7020008C70200089A
:10022000C7020008F9160108493D01080000000056
:10023000C7020008C702000800000000C70200084B
:10024000C7020008C7020008C7020008C70200086A
:10025000C7020008C7020008C7020008C70200085A
:10026000C7020008C7020008C7020008C70200084A
:10027000C7020008C7020008C7020008000000000B
:10028000C7020008C7020008C702000800000000FB
:1002900000000000C7020008DFF80CD000F0B6FA3A
:1002A000004800470920030890990020064880472D
:1002B00006480047FEE7FEE7FEE7FEE7FEE7FEE74B
:1002C000FEE7FEE7FEE7FEE7C9A80108990200087D
:1002D00072B6704762B6704772B602B4EFF311811E
:1002E00080F31188BFF34F8FBFF36F8F084602BCB6
:1002F00062B6704772B680F31188BFF34F8FBFF3B9
:100300006F8F62B6704730BF704720BF7047B0FA3A
:1003100080F0704790FAA0F0B0FA80F0704790FA41
:10032000A0F070472DE9F05F0546002092469B46FD
:1003300088460646814640241BE0284641464746FB
:10034000224600F09BF853465A46C01A914110D3FA
:1003500011461846224600F082F82D1A67EB010874
:100360004F4622460120002100F079F817EB0009E2
:100370004E41201EA4F10104DFDC484631462A46E6
:100380004346BDE8F09F00000649074A086850430D
:1003900043F2390210440860400870470149086080
:1003A000704700001C0200206D4EC64110B5441A73
:1003B0000346944209D28318114403E011F8014D19
:1003C00003F8014D521EF9D210BD40EA0104A40702
:1003D00003D009E010C9121F10C3042AFAD203E0A7
:1003E00011F8014B03F8014B521EF9D210BDD2B2E5
:1003F00001E000F8012B491EFBD270470022F6E70E
:1004000010B513460A4604461946FFF7F0FF20468A
:1004100010BD421C10F8011B0029FBD1801A704747
:10042000034611F8012B00F8012B002AF9D11846D8
:10043000704730B50B46014600202022012409E018
:1004400021FA02F59D4205D303FA02F5491B04FA8D
:1004500002F52844151EA2F10102F1DC30BD202A6C
:1004600004DB203A00FA02F1002070479140C2F10B
:10047000200320FA03F3194390407047202A04DB3D
:10048000203A21FA02F00021704721FA02F3D0400D
:10049000C2F1200291400843194670472DE9FE4FF2
:1004A000804681EA0300C00F0C46009021F0004115
:1004B00023F00045B8EB0200A94105D24046214691
:1004C00090461C460B46024623F00040104347D09E
:1004D000270DC7F30A00C3F30A510290401A019096
:1004E00040286BDAC3F3130040F4801B0098924657
:1004F00020B10023D2EB030A63EB0B0B01985946A2
:10050000C0F140025046FFF7AAFF06460D4650468E
:100510005946019A00F08CF910EB08006141002463
:1005200087EA115284EAE7731A4340D0009A62B313
:10053000019A012A4FEA075215DC001B61EB020108
:100540004FF0004202EA0752CDE90042001C41F59B
:10055000801132462B4600F08CF903B0BDE8F08FD5
:1005600040462146F9E7001B61EB0201001C41F502
:10057000801300185B412018A2F5001747EB030118
:1005800040EAD570B6196D4111E06D084FEA3606A4
:1005900045EAC0754FEA0752001B61EB0201001CDF
:1005A00041F5801149084FEA3000001951413246A7
:1005B0002B4603B0BDE8F04F00F04CB90098012283
:1005C00040000023D0EB020263EBE0730098214669
:1005D0004FEAE074B8EB000061EB0401E9E783F057
:1005E00000435BE781F0004158E72DE9FE4F81EAC7
:1005F000030404F0004421F0004100944FF0000B8C
:1006000023F0004350EA01045ED052EA03045BD0B9
:10061000C3F30A54C1F30A552C44A4F2F3340194F1
:10062000A0FB0254C1F3130141F48011C3F313037F
:1006300043F4801301FB024400FB034E840A970A33
:1006400044EA815447EA8357A4FB076802958D0A60
:1006500005FB07854FEA932C04FB0C542705029DEC
:100660004FEA065847EA1637B5EB08056EEB070C5C
:10067000870E920E47EA811742EA8312A7FB020116
:10068000B6EB0B0164EB00042B0D43EA0C335E1850
:1006900044EB1C50DA465146E7FB0201C5F3130454
:1006A0004FEA0B3343EA14534FEA0432019C43EA06
:1006B0000603A4F10C040294009CCDE900B400F000
:1006C000D8F803B0BDE8F08F00200146F9E72DE926
:1006D000F04D81EA030404F0004B21F0004514467C
:1006E0004FF0000A23F0004150EA050220D054EAFE
:1006F00001021DD0C5F30A570246C5F31303C1F327
:100700001300C1F30A5640F4801543F48013A7EB9D
:100710000608101BD64608F2FD3873EB050002D31D
:1007200008F1010801E092185B41B8F1000F03DA0B
:1007300000200146BDE8F08D00204FF480110646F0
:1007400084460EE0171B73EB050705D3121B63EB02
:10075000050306434CEA010C49084FEA30009218A1
:100760005B4150EA0107EDD152EA030012D082EA60
:10077000040083EA0501084305D0101BAB4106D2F3
:100780000122002306E000224FF0004302E06FF058
:10079000010253101AEB06004CEB085110EB0A0053
:1007A00041EB0B01BDE8F04D00F054B8C1F30A5223
:1007B000C1F3130140F2FF3341F480119A4202DA8F
:1007C00000200146704740F233439A42A2F233427E
:1007D00002DC5242FFF752BEFFF741BE30B5041EA5
:1007E00071F1000404DB4FF00044404264EB01016E
:1007F000141E73F1000405DB1C464FF00043524207
:1008000063EB0403994208BF904230BD064C074D8C
:1008100006E0E06840F0010394E8070098471034D0
:10082000AC42F6D3FFF73CFDA0D50308C0D50308C2
:10083000202A06DBCB17203A41FA02F043EAE073A4
:1008400006E041FA02F3D040C2F120029140084391
:100850001946704710B5141E73F1000408DA401CE5
:1008600041F1000192185B411A4301D120F00100CF
:1008700010BD2DE9F04D92469B4611B1B1FA81F2BF
:1008800002E0B0FA80F220329046FFF7E8FD04461D
:100890000F4640EA0A0041EA0B0153465A46084314
:1008A00013D0114653EA010019D0C8F14002504656
:1008B000FFF7E4FD05460E46504659464246FFF70F
:1008C000CEFD084305D0012004E020463946BDE8AE
:1008D000F08D0020054346EAE0762C4337430A9822
:1008E0006305E40AA0EB08000022FD0A44EA47542D
:1008F0000A3002D500200146E9E7010510196941D7
:10090000DDE9084500196941BDE8F04DA2E770B581
:100910008C1810F8015B15F0070301D110F8013BAA
:100920002A1106D110F8012B03E010F8016B01F831
:10093000016B5B1EF9D12B0705D40023521E0DD489
:1009400001F8013BFAE710F8013BCB1A921C03E0D7
:1009500013F8015B01F8015B521EF9D5A142D8D30F
:10096000002070BD0000000080B592B00020109003
:10097000FFE744F2E040C5F60200016841F00101E2
:100980000160006800F001000A900A98FFE701206A
:100990000C900D9002210E9110220B920023C5F6AF
:1009A00002030DF12C0C099018460891614607923C
:1009B00006930BF015FB082005900999099A0CF095
:1009C00033FD05980CF018FD06980799099A0BF06D
:1009D000F3FC13F039FA00200699049008460799B1
:1009E000049A0BF0E9FC0A2003900BF0B5FA00F032
:1009F000A3FC0399029008460BF0AEFA06980799FB
:100A0000099A0BF0D9FC40F23060C2F20000049960
:100A10004170099A82708271089BC37103734FF011
:100A2000030C80F80DC080F814C080F815C04FF09A
:100A3000040E80F818E043764FF0050E80F81BE0B6
:100A400002774FF0060E80F824E080F825C04FF0C2
:100A5000070E80F82CE080F82DC0DDF814C080F877
:100A600031C080F832201191FFE71198102815DC71
:100A7000FFE711980930119940F23062C2F200028A
:100A8000343202EB81018870119802EB8000022160
:100A9000C170FFE7119801301190E6E70020119036
:100AA000FFE71198072815DCFFE711981930119915
:100AB00040F23062C2F20002703202EB81018870B3
:100AC000119802EB80000221C170FFE711980130FC
:100AD0001190E6E700201190FFE71198072815DC38
:100AE000FFE711982130119940F23062C2F2000202
:100AF000903202EBC1010871119802EBC000032192
:100B00004171FFE7119801301190E6E70020119044
:100B1000FFE71198072815DCFFE711982930119994
:100B200040F23062C2F20002D03202EBC101087121
:100B3000119802EBC00003214171FFE711980130C9
:100B40001190E6E700201190FFE71198072816DCC6
:100B5000FFE711983130119940F23062C2F2000281
:100B600002F5887202EBC1010871119802EBC00016
:100B700003214171FFE7119801301190E5E76420EE
:100B80000BF0EAF940F23060C2F20000C17E027F51
:100B900001900846114600F0EFF8019988764879EF
:100BA00040F004004871487900F0EF00487148793E
:100BB00040F008004871487900F0FB00487148791E
:100BC00000F0FD004871487940F001004871087953
:100BD00040F0C0000871087900F0C3000871888EE9
:100BE00040F400408886888E20F4E0408886888E15
:100BF00020F478708886888E40F0010020F01E0076
:100C00008886898E019890F83600019A92F83720EC
:100C100000F022F940F22061C2F200010A6810449B
:100C200008600198028F42F400420287028F22F48A
:100C3000E0420287028F22F4787240320287028FEC
:100C400042F0030222F01C020287028F90F83A0061
:100C5000019B93F83BC000911146624600F0FCF8FE
:100C600000990A6810440860019890F8712042F0D9
:100C7000080280F8712090F8712002F0F90280F8E3
:100C8000712090F8712002F0FE0280F8712090F837
:100C9000702002F07F0280F8702090F8702042F0FF
:100CA000400280F8702090F8702042F0200280F816
:100CB000702090F8702002F0E70280F8702090F821
:100CC000702002F0F80280F87020B0F8701090F8F0
:100CD0007200019A92F8732000F0BEF800990A6839
:100CE00010440860019890F8922002F01F0280F8EA
:100CF000922090F8922002F0F102063280F89220C1
:100D0000B0F8902042F4F06222F07F02A0F8902028
:100D100090F89400019AD2F8901092F8952000F083
:100D20009BF800990A68104408600198427C02F020
:100D3000F80201324274027C02F0F00202320274C4
:100D4000018A007D019A527D00F086F800990A68B8
:100D5000104408600198827D42F008028275C18AC1
:100D6000007E019A527E00F077F800990A681044DC
:100D7000086012B080BD000080B588B00A46034606
:100D80008DF81F008DF81E10002006908DF81700BA
:100D900040218DF817109DF81F109DF817C041EAEB
:100DA0000C018DF817100021C5F602014FF0100C50
:100DB000049008466146DDF810C003926246029333
:100DC0000BF0FAFA68460A21016047F2BC60C2F2F1
:100DD00000000DF117010DF1150201230FF004FBC6
:100DE000FF218DF8171004998DF81610FFE79DF874
:100DF00016009DF81E10884223DAFFE79DF81600C2
:100E0000012804DBFFE7069800020690FFE768462A
:100E10000A21016047F2BC60C2F200000DF1170127
:100E20000DF1150201230FF0DFFA9DF81510069A57
:100E300011430691FFE79DF8160001308DF816006A
:100E4000D5E70020C5F60200102101220BF0B4FA0C
:100E5000069808B080BD000080B58AB0134684466D
:100E60008DF8260008918DF81F2000208DF81E00B7
:100E70008DF81D0006900021C5F602011022049095
:100E800008461146049A0393CDF808C00BF094FA73
:100E900068460A21016047F2BC60C2F200000DF111
:100EA000260107AA01230FF09FFA8DF81700049876
:100EB0008DF81E00FFE79DF81E009DF81F10884268
:100EC00021DAFFE708989DF81F109DF81E20891A67
:100ED0006FF0070202EBC101C8408DF81D006846A3
:100EE0000A21016047F2BC60C2F200000DF11D0151
:100EF00007AA01230FF078FAFFE79DF81E000130E2
:100F00008DF81E00D7E79DF826009DF81F10FFF70B
:100F100033FF06900698089988420BD1FFE700201E
:100F2000C5F60200102101220BF046FA00208DF8D0
:100F300027000BE00020C5F60200102101220192DB
:100F40000BF03AFA01988DF82700FFE79DF827008B
:100F50000AB080BD0000000010B58AB01346844678
:100F60008DF8270008918DF81F2000208DF81E00B5
:100F70008DF81D00069069460A220A6047F2BC619E
:100F8000C2F200010DF127020DF11C0E01240490A4
:100F900008461146724603932346CDF808C00FF069
:100FA00023FA8DF8170004988DF81E00FFE79DF8CE
:100FB0001E009DF81F10884221DAFFE708989DF86F
:100FC0001F109DF81E20891A6FF0070202EBC10165
:100FD000C8408DF81D0068460A21016047F2BC60D8
:100FE000C2F200000DF11D0107AA01230FF0FCF968
:100FF000FFE79DF81E0001308DF81E00D7E70020A6
:101000000AB010BD0000000086B002468DF817003F
:1010100004918DED030ACDED020A002001900090AD
:101020009DF81700002811D1FFE79DED040AB8EEE6
:10103000400A9DED031A9FED182A81EE021A20EE58
:10104000010AB7EEC00A8DED000B12E09DED040A17
:10105000B8EE400B9FED0E1B80EE010BBFEE001BA8
:1010600030EE010BB0EE041B20EE010B8DED000BFA
:10107000FFE79DED000B9DED021AB7EEC11A20EEC1
:10108000010B8DED000B9DED000B06B0704700BF0E
:1010900000000000000060410000804B00000000E4
:1010A00080B592B0002010908DF83F0040F2817022
:1010B000C2F20000007801460428099100F235814F
:1010C0000999DFE801F0031557647A000020C5F69E
:1010D0000200102100220BF06FF9012008900AF0A5
:1010E0003BFF40F28170C2F20000089901701DE1DF
:1010F00040F23060C2F20000417941F004014171D8
:10110000417901F0F7014171017901F0C301043126
:10111000017181888279C07907901046079AFFF79C
:101120001BFF40F22061C2F200010A68104408600F
:1011300040F28170C2F20000022101708820C5F6E1
:101140000000042202600820069105920CF060F96C
:1011500005980A900021C1F221110B9101210C91F7
:1011600006990D9140F60000C5F602000AA90AF0A2
:1011700037FFDBE040F22C20C2F2000001210160C9
:1011800040F28170C2F2000003210170CEE040F213
:101190002C20C2F20000006800280DD1FFE740F2C9
:1011A0002C20C2F200000121016040F28170C2F2E5
:1011B000000004210170FFE7B8E004200A9002203B
:1011C0000B9001210C910D9005200E9040F600002F
:1011D000C5F602000AAA049111460AF001FF422056
:1011E0008DF83F0068460A21016047F2BC60C2F2F8
:1011F00000000DF13F010DF13E02049B0FF0F4F8E9
:1012000000218DF83F108DF83D10FFE79DF83D005F
:10121000022823DCFFE79DF83D00012804DBFFE7FF
:10122000109800021090FFE768460A21016047F21B
:10123000BC60C2F200000DF13F010DF13E0201233E
:101240000FF0D2F89DF83E10109A11431091FFE76D
:101250009DF83D0001308DF83D00D7E768460A2132
:10126000016047F2BC60C2F200000DF13F010DF1D8
:101270003E0201230FF0B8F89DF83E1001F0010185
:1012800046F68C42C2F2000211701099127847F2B1
:101290006073C2F2000303EB02125160002110914F
:1012A00040F28071C2F200010A7801320A700978B6
:1012B000012923DCFFE78820C5F600000421016036
:1012C000082003910CF0A4F803980A900021C1F2C1
:1012D00021110B9101210C9102210D9140F600008A
:1012E000C5F602000AAA029111460AF079FE40F200
:1012F0008170C2F200000299017015E040F2807026
:10130000C2F200000021017040F28170C2F20000C0
:1013100001700020C5F602001021012201920BF09D
:101320004BF80198119004E000E0FFE700201190D5
:10133000FFE7119812B080BD80B586B000200590FF
:101340008DF813004FF0FF31039102910590FFE7F4
:101350000598072814DCFFE7059802A901446846B0
:101360000A22026047F2BC60C2F200000DF11302D3
:1013700001230FF039F8FFE7059801300590E7E702
:10138000002006B080BD000080B582B040F28470BD
:10139000C2F200004DF2D611C0F6030101220DF198
:1013A000060313F001FB02B080BD00000000000046
:1013B00080B582B00190FFE74FF47A7000210DF103
:1013C000020214F0B1FFF7E7B0B590B068460DF136
:1013D0003E0101620322C261002383614361036114
:1013E0004FF4007CC0F80CC04FF0330EC0F808E09A
:1013F00043F24C14C2F200044460026043F64C1005
:10140000C2F200004DF2CA14C0F6030441F2315595
:10141000C0F600050E9121460D922A460C93CDF898
:101420002CC0CDF828E013F087FF68460E990162C2
:101430000D9AC2610C9B836143610361DDF82CC08E
:10144000C0F80CC0DDF828E0C0F808E044F2EC2455
:10145000C2F2000444600424046044F6EC20C2F2AA
:1014600000004DF2A011C0F6030141F22962C0F65E
:10147000000213F061FF68460E9901620D9AC26185
:101480000C9B836143610361DDF82CC0C0F80CC084
:10149000DDF828E0C0F808E040F2AC74C2F20004C5
:1014A00044600524046040F6AC70C2F200004DF2C6
:1014B000BD11C0F6030141F2B132C0F6000213F0D3
:1014C0003BFF68460E9901620D9AC2610C9B8361D5
:1014D000436103614FF4006CC0F80CC04FF0CC0CBA
:1014E000C0F808C041F27C0CC2F2000CC0F804C085
:1014F0004FF03C0CC0F800C043F27C00C2F2000088
:101500004DF2B011C0F6030141F21952C0F60002CB
:1015100013F012FF10B0B0BD80B582B0019017F08B
:101520006FFDFFE712F0C8FCFCE7000000000000C0
:1015300080B582B00190FFE702202FF071FD4FF4DB
:101540007A7000210DF1020214F0EEFEF4E70000C3
:1015500080B58AB009900EF01FFC00F029F92FF039
:10156000DFFA00F0EDF80DF1220013F009FE00F0B3
:10157000C7F90790FFF728FFFFF706FFFFE719F00D
:1015800087F8012008210DF12202069014F0CCFE0C
:101590000DF12101069830F0D3F9002842D0FFE781
:1015A0009DF82100313801460328059138D8059966
:1015B000DFE801F0020F1C294CF68470C0F603002E
:1015C0000490FEF726FF82B20120049930F0D8F98A
:1015D00027E04CF69670C0F603000390FEF719FF63
:1015E00082B20120039930F0CBF91AE04CF6A870D2
:1015F000C0F603000290FEF70CFF82B201200299B0
:1016000030F0BEF90DE04CF6BA70C0F60300019060
:10161000FEF7FFFE82B20120019930F0B1F900E03F
:10162000FFE7FFE7ABE7000080B582B00190FFE77E
:101630002FF046FA8DF801009DF8010000280AD02D
:10164000FFE79DF80100012803D1FFE700F050FB00
:1016500000E0FFE7FFE7142000210DF1020214F083
:1016600063FEE5E70000000083B080B5ADB03193C4
:1016700030922F912C902FA80A902C9A0A9B0DF152
:101680002F008121089030F0BDFD69460DF1260242
:101690000A6040F28471C2F20001002307900846FC
:1016A0000691194605921A46049313F0E9F94DF292
:1016B000E411C0F6030103900846089930F07EFD5E
:1016C0000699029008460499059A13F031FB2DB053
:1016D000BDE8804003B0704780B584B001468DF806
:1016E0000F009DF80F0002460328019214D80199BB
:1016F000DFE801F002060A0E0DF0CEFC02900EE0CB
:101700000DF086FC02900AE00DF09EFC029006E0CF
:101710000DF0AEFC029002E000200290FFE702987C
:1017200004B080BD000000004EF21000CEF20000B8
:10173000016821F003010160704700000000000013
:101740004EF21000CEF20000016841F0030101608A
:10175000704700000000000080B582B000200090BB
:10176000FFF7BAFF0190FFE7FFE74020FEF7B4FD67
:101770000090FFE700F0FCF8FFE7019814F0FCFE92
:10178000FFF7D2FFFFE700F013F9FFE70098FEF73D
:10179000B1FDFFE7FFE702B080BD000000000000E0
:1017A000FFE7FEE70000000080B517F075FE80BD82
:1017B00080B500F049F900F003F880BD000000009A
:1017C00080B584B00020019044F6BC31C2F2000123
:1017D000088044F6D431C2F20001088044F6CC31CE
:1017E000C2F20001086044F6D031C2F20001086084
:1017F00044F6C031C2F20001086044F6C431C2F2BE
:101800000001086044F6C831C2F20001086003908C
:10181000FFE74020FEF760FD0190FFE70020ADF8F4
:101820000A00FFE7BDF80A00002817D1FFE744F6D9
:10183000C030C2F2000000210160009000F098F872
:1018400000F0B6F800980168039A11440391FFE78D
:10185000BDF80A000130ADF80A00E3E7039844F64A
:10186000C831C2F20001086044F6C030C2F2000084
:101870000021016044F6C430C2F200000160FFE7BD
:101880000198FEF737FDFFE704B080BD00000000BF
:1018900082B0019001980090009844F6C831C2F2DD
:1018A00000010968884209D9FFE744F6C830C2F24E
:1018B000000000680099081A009002E000200090E3
:1018C000FFE7009802B0704780B584B00020019017
:1018D000FFE74020FEF700FD0190FFE744F6C0302F
:1018E000C2F2000000680390FFE70198FEF702FDD6
:1018F000FFE70398FFF7CCFF0290029804B080BD89
:1019000080B582B000200090FFF7DEFF0190FFE776
:101910004020FEF7E1FC0090FFE744F6C030C2F241
:10192000000000210160FFE70098FEF7E3FCFFE7FD
:10193000019802B080BD000080B584B00020019005
:10194000FFE74020FEF7C8FC0190FFE744F6C430F3
:10195000C2F2000000680390FFE70198FEF7CAFC9E
:10196000FFE70398FFF794FF0290029804B080BD50
:1019700080B544F6BC30C2F200000188013101801C
:1019800044F6D430C2F200000088002808D1FFE7F6
:1019900000F0AAF844F6CC31C2F200010860FFE77B
:1019A00044F6D430C2F2000001880131018080BDCC
:1019B00080B582B044F6D430C2F20000018801390B
:1019C00001800088002830D1FFE700F08DF844F650
:1019D000D031C2F200010860086844F6CC31C2F28E
:1019E00000010968401A019044F6C030C2F20000BC
:1019F00000680199884207D2FFE7019844F6C03198
:101A0000C2F200010860FFE744F6C430C2F20000F1
:101A100000680199884207D2FFE7019844F6C43173
:101A2000C2F200010860FFE7FFE702B080BD0000DE
:101A3000FFE7FEE70000000044F6C430C2F20000F9
:101A4000002101607047000080B544F6D830C2F232
:101A500000000021016000F00FF880BD00000000D0
:101A600081B00090009844F6D831C2F200010860BD
:101A700001B070470000000080B582B041F6B4703C
:101A8000CEF20000006800909DF80000C00700281A
:101A900011D0FFE79DF80000800700280AD5FFE776
:101AA00041F6B070CEF200004CF65561CCF2AC516C
:101AB0000160FFE7FFE70020FFF70EFE01904EF602
:101AC000FC50CEF20000016841F08071016041F2EB
:101AD0000000CEF20000016841F0010101600198B0
:101AE000FFF7BEFF02B080BD81B041F20400CEF22C
:101AF000000000680090009801B0704700000000EE
:101B000080B590B00F900F984068069046F6E83088
:101B1000C2F20000027843788078694608604DF28E
:101B2000E341C0F603010DF11E00059030F056FBB5
:101B3000069940F60D020490084611461EF00AFF71
:101B4000059919F01DF846F6E431C2F200014B7810
:101B50008A78C978EC46CCF800204DF2CF42C0F626
:101B60000302DDF814C00390604602911146029A08
:101B700030F034FB069940F60C02019008461146FD
:101B80001EF0E8FE059918F0FBFF10B080BD0000C4
:101B900070B583B0DDF81CC09E4614460D4606465F
:101BA000ADF80A00ADF80810ADF80620ADF8043025
:101BB000ADF802C0BDF80800BDF80410091ABDF860
:101BC0000220BDF80A30D21A5143BDF80620D21ABD
:101BD00091FBF2F1084403B070BD0000000000006A
:101BE00080B582B001468DF803009DF803000028FF
:101BF00003D1FFE70020019045E09DF80300012894
:101C000006D1FFE747F2A850C2F2000001903AE087
:101C10009DF80300022803D1FFE70020019032E085
:101C20009DF80300032803D1FFE7002001902AE07C
:101C30009DF80300042803D1FFE70020019022E073
:101C40009DF80300052803D1FFE7002001901AE06A
:101C50009DF80300062803D1FFE70020019012E061
:101C60009DF80300072803D1FFE7002001900AE058
:101C70004DF21520C0F603004FF4927100F0C0F849
:101C800000200190FFE7019802B080BD0000000035
:101C900080B584B01EF048FE694600224A600A60A2
:101CA0004AF6C811C0F6030140F24922C0F6030209
:101CB0000523039008461946039B04F0BBFB47F23B
:101CC000D851C2F20001086004B080BD00000000DD
:101CD000704700000000000080B547F2D850C2F203
:101CE000000000681EF05CFB80BD000000000000EA
:101CF00080B588B0002006900590FFE7FFE7402000
:101D0000FEF7EAFA0590FFE7FFF732FEFFE746F637
:101D10005C20C2F2000000680790FFE7FFF748FE72
:101D2000FFE70598FEF7E6FAFFE7FFE74DF2370019
:101D3000C0F60300FFF798FC4DF21A10C0F603003E
:101D4000FFF792FC4DF27900C0F60300FFF78CFC20
:101D5000FFE70798002846D0FFE70798B0F89400FF
:101D600000EE100AB8EE400A9FED201A80EE010A3C
:101D70008DED060A079890F83B10D0F8B420D0F803
:101D8000B8304FF0640C02FB0CFC02EB030EBCFB02
:101D9000FEFC9DED060AB7EEC00AC068EE46CEF81E
:101DA00010008EED020BCEF800C04DF2A900C0F677
:101DB0000300FFF759FCFFE7FFE74020FEF78CFA2E
:101DC0000590FFE7FFF7D4FDFFE70798D0F8C800BC
:101DD0000790FFE7FFF7ECFDFFE70598FEF78AFAAB
:101DE000FFE7FFE7B5E708B080BD00BF0000C842CD
:101DF00080B504200AF0D8F880BD00000000000083
:101E000082B0019000910098002802D1FFE702B053
:101E10007047FFE7FEE7000080B582B001900091B7
:101E20000098006800281FD1FFE70198006847F676
:101E3000FF71884300994A688B68D1F80CC0D1F8CB
:101E400010E01A4342EA0C0242EA0E024B691A43BE
:101E50008B691A43CB691A430B6A1A43496A1143C7
:101E600008430199086025E00198006820F4F840D3
:101E70000099CA690B6A496A1A43114308430199D8
:101E800008600198406847F6FF71884300994A68E6
:101E90008B68D1F80CC0D1F810E01A4342EA0C026A
:101EA00042EA0E024B691A438969114308430199BA
:101EB0004860FFE7002002B080BD00000000000085
:101EC00082B0019000910198406943F6FE71884309
:101ED000009940EA410001994861002002B0704732
:101EE00083B0029001910092019801684268836872
:101EF000C06811436FF01F0202EB4312114341EA25
:101F0000402002990A6910430861002003B070471D
:101F100010B583B00290019100920098002835D14D
:101F2000FFE70298806800F0704001990A684B68EA
:101F3000D1F808C0D1F80CE0013A6FF00F0404EBBF
:101F400003131A436FF0FF0303EB0C231A434FF202
:101F50000003CFF6FF7303EB0E331A430B6940F215
:101F6000000CCFF6FF7C0CEB03431A434B6940F2A5
:101F7000000CCFF6F07C0CEB03531A43896901394E
:101F800042EA01610843029988603CE00298806857
:101F900040F6FF71CFF60F7108400199CA68496990
:101FA0004FF20003CFF6FF7303EB02320023CFF6AC
:101FB000F07303EB015111430843029988600298C2
:101FC000C06800F0704001990A684B68D1F808C0F9
:101FD000D1F810E0013A6FF00F0404EB03131A4339
:101FE0006FF0FF0303EB0C231A430023CFF6FF73BC
:101FF00003EB0E431A438969013942EA0161084340
:102000000299C860FFE7002003B010BD2DE9F0473A
:10201000466886B00546304603F020FEC36D00904A
:10202000D0F88840D0F88070D0F86880B0F87C9004
:10203000002B64D0D3F800A0684603F06BFF14B9FE
:1020400009E024683CB16368284698470028F8D026
:1020500006B0BDE8F0872B68172B00F0A5801DDCCB
:102060000F2B00F08D807DDC0B2B00F0BF800D2B43
:102070000AD119F0080F07D1EB68DB6823B11B7A8E
:1020800013B1304620F080F9304629461DF07AFC25
:102090000028DDD028461EF037F9D9E7262B75D069
:1020A0002FDC1E2B00F0AE80202BEDD1EC68002C35
:1020B000EAD03146606821F0C3FA002800F0C08001
:1020C000304603F0CBFDB0F87C3002460190180793
:1020D00040F12D8101A803F01DFF3146606821F019
:1020E0009DFA0028D0D0304603F0B8FD6268034660
:1020F00001A80193C3F8802003F00CFFC4E79A46BF
:102100009AE72A2B65D0B3F5107FBDD106AC3046D7
:10211000D5F80C8003F0A2FDB0F87C7044F8140DE3
:10212000204603F0F7FEEB68002B91D098F80830BA
:10213000002B00F0AB80380740F1B78030461DF02F
:102140004FFF07F48873B3F5887F81D107F08003D0
:102150009BB2002B7FF47CAF41463046052220F035
:10216000C1F875E7112B22D0142B8DD1304601A96F
:1021700000F028FC02ABEA6803CB1060516067E70F
:10218000BAF1000F80D03046D0477DE7EB68022BD4
:102190007FF45EAF272206A9A86841F8142D0396A4
:1021A000049321F0D3FB53E7C5F80C8050E7EC68AB
:1021B000304603F053FD01902389012B05D1B0F87F
:1021C0007C3043F48073A0F87C3001A803F0A2FEB9
:1021D0005AE7304603F042FDEB680090002B68D0D0
:1021E000C0F88430684603F095FE31E7304603F0CE
:1021F00035FD03467030009303F048FB684603F05A
:1022000089FE41E7EC68012C57D0002E3FF420AF47
:1022100005F0DCFD304603F021FDB0F87C300246CD
:1022200001901C0706D523F008033046A2F87C3045
:102230001FF0EEFA01A803F06DFE08F0B3FB07E70C
:10224000304603F00BFDB0F87C30024601901907D0
:1022500006D523F008033046A2F87C301FF0D8FAE8
:1022600001A803F057FE3146206821F0D7F9002875
:102270003FF40AAF304603F0F1FC2268034601A8A0
:102280000193C3F8802003F045FEFDE6304603F0DD
:10229000E5FC03462046B3F87C20019322F48072CB
:1022A000A3F87C2003F036FED2E6304620F06CF82E
:1022B00044E7D0F88430EB6094E738461FF0C8FD5F
:1022C00020B3384620F060F838461FF04FF9B0B917
:1022D00026B9002F7FF4BCAEEF60B9E605F076FDBD
:1022E000304603F0BBFCB0F87C3002460190190781
:1022F00025D501A803F00EFE08F054FBE9E72146BE
:1023000038461DF02FFC002EE3D0E7E7404620F0D2
:10231000A7F80746304603F0A1FC03466846C3F819
:102320008070009303F0F6FD002ED2D0D6E743F084
:1023300008033046A2F87C301FF06AFACAE643F080
:1023400008033046A2F87C301FF062FAD1E700BFE4
:102350002DE9F04F0F46B0F90C108FB0B0F90A60BC
:1023600001EB030BB0F90830856916440493436808
:102370006035B0F90E80B0F91090B0F812A0059356
:1023800005F024FD4B4C4FF4805E039559460097B1
:1023900030464B4642460294CDF804E01DF0B8FEAC
:1023A000054628B908F0FEFA28460FB0BDE8F08FC0
:1023B000DFF808910EAE03F051FC0499302206902C
:1023C0001DF09AFC56F8207DCE464FF0000807F12C
:1023D0003404BEE80F000FC4BEE80F000FC49EE82F
:1023E0000300189B84E803007B663046D9F8283048
:1023F00041F28274A7F87CA0FB65C7F88080C7F81B
:102400006C80C7F8888003F085FD09A928462A4F0B
:1024100000F0D8FABDF92AE0BDF92810BDF92C204A
:10242000BDF92E300846521A0194CEEB03037146D3
:102430000132CDF80C800133009502971DF068FE43
:10244000D9F82830044628465B689847284603F0A8
:1024500005FC034630469C66069303F05BFD284668
:102460001EF0C4F805F0B2FC284603F0F7FB034663
:1024700007A81A6F0793089203F04CFD059908A866
:1024800009F078FB38B908F08DFA08F08BFA284685
:102490000FB0BDE8F08F284603F0E0FB089A034632
:1024A00007A81A67079303F035FD28461FF0B0F917
:1024B000E9E700BF0D2000085D2D00084400002062
:1024C0002DE9F041044690B0006800F0D5F9B04B1A
:1024D0006668A3F12C05002808BF1D461C2E00F2DB
:1024E000F780DFE816F02200F500F500F500F500B2
:1024F0003500F500F500F500F500F5005100F50098
:10250000F500FA00F500F500F5000E01F500F50004
:1025100048014A014C014E01F500F500F5001D008F
:102520006E69304610B0BDE8F081206803F096FB7C
:10253000034610A8B3F85A2040F82C3D42F00C0294
:10254000A3F85A2003F0E6FC206820F009F8E8E739
:102550002A690026B4F910300192B4F914701846B3
:10256000EA68B4F918503946B4F91C40ADF81C308B
:10257000009223462A46ADF81E70ADF82050ADF803
:10258000224004F099FCCCE723681C2218460892EC
:10259000079303F063FB034607A805931B6D984759
:1025A000064605A803F0B6FC012E40F32781A96872
:1025B0003346626902916868A16901902F682069B9
:1025C000009708F031FF2769A3693744C6EB030879
:1025D000286807F0CFFC42463946606904F0B0FE37
:1025E000686807F0C7FC606942463946013004F06C
:1025F000A7FE6B6A022B00F3F4802A6A964217DA70
:102600006769012E206907F1020840F32A8102441C
:10261000374430444146013A3B4605F0FBF8A06997
:10262000821B3B46EF694146C01B013005F0F2F8C2
:10263000012E40F3138163691E44E7692868013F56
:1026400007F098FC314620693A4605F08BF83A4687
:102650003146A06905F086F8E769686807F08AFCEA
:10266000023F206931463A46013005F07BF8A06907
:102670003A463146013805F075F8EB69022B40F314
:102680008280AB6AE769022BA868CCBFFF1A023FC1
:1026900007F070FCEA69022A00F39A802B6A022B89
:1026A00000F38C80286807F065FCA2692169E06965
:1026B00004F046FE686807F05DFCA2692169E069E4
:1026C000013A0131013804F03BFEAF6A022F61DCB0
:1026D0000026304610B0BDE8F08104F114012769EE
:1026E000A8680026ADF81C700EC9ADF81E10ADF834
:1026F0002020ADF8223007F03DFC07A805F0B6F821
:102700000FE7298B2269A3690A4465695B1AE169AD
:102710002068ADF82030ADF81C20ADF81E50ADF8A3
:10272000221003F09BFA036F0590FBB1022007F023
:1027300021FE059AB2F87C30C3F3C0030E3302EBDE
:102740008303986807F016FC059B586B07F03CFC68
:10275000059B186F03F082FA059B07A90690B3F951
:102760005A2004F049F906A803F0D4FB05A8002676
:1027700003F0D0FBD5E6AE6AD3E6EE69D1E62E6A69
:10278000CFE66E6ACDE62B6A022B8BDD79E700BFC0
:102790006C010020D4F81C800026A2692169A86879
:1027A000951E8C1C07F0E6FBC7EB08012A46204665
:1027B000A8F10203013105F02DF8B2E6A0693B460D
:1027C000EF693146821EC01B013005F023F869E72E
:1027D00020693B46314602440230013A05F01AF8BE
:1027E0005CE7A86807F0C6FB636938466F6A991C06
:1027F00042463B44013B05F00DF819E7286807F015
:10280000B9FB2269EB69114660691A44013A04F088
:1028100097FDA369E9691A466069591A013104F004
:102820008FFD676920690137394604F029FF394671
:10283000A06904F025FF686807F09CFB2069394611
:10284000013004F01DFFA0693946013804F018FF7B
:102850002769A3690237A3F10208B9E6666902365F
:10286000EBE60244434602304146013A474604F053
:10287000D1FFA069821ED4E610B5044682B080B1B3
:1028800005F0A4FA204603F0E9F902ABB0F87C4069
:1028900043F8040D1846C4F3C00403F03BFB08F0F2
:1028A00081F8204602B010BD2DE9F041044684B005
:1028B0000E4605F08BFA24B908F074F804B0BDE8B0
:1028C000F081204603F0CAF9458EC36D05F020055E
:1028D00003909F68ADB245B1B0F954502DB9406B2B
:1028E00005F088F9039B851C00E003465E6303A89E
:1028F00003F010FB3B680121204698473B680646E1
:102900000321204698473B6880460021204698478F
:102910000746204600F0E4F9434632462946204661
:10292000009700F05FF920461EF072FF08F03AF8B9
:1029300004B0BDE8F08100BF00B9704730B504466F
:1029400083B00D4605F042FA204603F087F90346AE
:10295000026F68460093019203F0DCFA294601A851
:1029600009F008F918B908F01DF803B030BD204689
:1029700003F074F9019A034668461A67009303F05E
:10298000C9FA20461EF044FF08F00CF803B030BD31
:1029900000B9704730B5044683B00D4605F016FA0D
:1029A000204603F05BF902AB056443F8040D45646F
:1029B000184603F0AFFA20461EF02AFF07F0F2FF98
:1029C00003B030BD2DE9F04F89B007460D4603F046
:1029D00045F9034601213846DA6D0593946823686A
:1029E0009847236803218046384698472368022188
:1029F00083463846984723680021824638469847E0
:102A00008146059820F030FA0646059820F034FA01
:102A100003460598448E04F02004A4B2B4B1B0F982
:102A20005420B0F95840002A4AD091B2C06E0C44EC
:102A3000A4B280B10391029201931EF0D3FA019BDC
:102A40000FFA80FC029A80B2039905E021462246E3
:102A5000C06E0028EED184461FFA89FE013E013B7C
:102A60000FFA88F8CBEB060674440EF1FF3ECAEB72
:102A7000030336B2044471446B812A8005A8A5F88B
:102A800002C0EC8069822E812E82A5F80480A5F810
:102A90000C80A5F80E9003F03DFA08AAB5F9104095
:102AA0003846B5F90C3006A942F8044D069300F0FB
:102AB0004BF8069A079BAA812B8209B0BDE8F08FDC
:102AC000406B019305F096F8821C019B059891B22A
:102AD00012B20C44A4B2BBE708B5438E03F0200346
:102AE0009BB24BB10246B0F9540000B108BD506B27
:102AF00005F080F8023008BD184608BD70B58AB0F0
:102B00000C46064603F0AAF80AABC26D43F8280D3E
:102B10001846956803F0FEF90196032C05D8DFE806
:102B200004F00F0C0902172302936B6801A8984761
:102B30000AB070BD15230293F7E716230293F4E75A
:102B400018230293F1E700BF2DE9F04383B08846D4
:102B50000446914603F082F8034602A8DA6D40F875
:102B6000083D9568B3F90070B3F9026003F0D2F93B
:102B70002B68204600219847054620461DF04CFF53
:102B800068B3044607E001A803F0C4F920461EF02C
:102B9000BDF8044618B3204603F060F8B0F90230DF
:102BA00001909B1B9D42EED1836A1B060BD5B0F9A9
:102BB0000030D9F80020DB1B934203F1FF33E2DC45
:102BC000C9F80030DFE7B0F90430D8F80020DB1B8B
:102BD000934203F10103A8BFC8F80030D3E703B064
:102BE000BDE8F0832DE9F04F83B088469A4605464C
:102BF000914603F033F8C26D02AED2F808B046F841
:102C0000080DFFF769FF0446304603F083F9DBF84F
:102C10000030012128469847DBF8003003210646A2
:102C200028469847DBF80030074600212846984799
:102C30004445834609D14E4507D1574505D10C9BE4
:102C4000984202D103B0BDE8F08F2846C8EB0404D7
:102C50001DF0E2FE05460028F4D04FF000080C9B62
:102C6000C9EB0606C7EB0A07C3EB0B0BC1460BE02B
:102C7000B3F5007F11D001A803F04CF928461EF0EF
:102C800045F805460028DDD0284602F0E7FF836AB4
:102C9000019003F42073802BEAD1CCB9836A1A0621
:102CA0000BD49B05E7D508F1010308FB04615A46E4
:102CB000284698461FF026F9DDE709FB14715A46AD
:102CC000284609F101091FF01DF9019B9B6AE8E7FD
:102CD0002846224621461FF0E1F90198DEE700BFB1
:102CE00070B586B0064602F0B9FF034606A89C6E92
:102CF00040F8183DDD6E03F00DF914B90DB906B0BA
:102D000070BD304601A9FFF75DFE6CB9002DF6D00D
:102D1000BDF90A202846BDF90630BDF90810D21ABF
:102D20001FF0B2F806B070BDBDF90A202046BDF90B
:102D300008101FF0A9F8BDF90E20BDF90A60204661
:102D4000BDF90C30BDF90810921B591A013201313E
:102D50001FF0A0FC002DD2D0DAE700BF2DE9F04330
:102D6000456887B0044628461EF002F8074602F080
:102D700075FF034606A85E6E40F8143DD3F8488000
:102D8000D3F8809003F0C6F823680E3B232B3FD87E
:102D9000DFE803F035463E3E3E3E12123E123E3E16
:102DA0003E3E3E3E18243E3E2B3E3E3E3E3E3E3E96
:102DB0003E3E3E3E3E3E3E3020461DF0A5FA07B068
:102DC000BDE8F083E368002BF9D0B9F1000F3BD0E8
:102DD0004D4539D048461FF0D7FAF0E7214638462E
:102DE0001CF0D0FD07B0BDE8F083C4F80C8007B03C
:102DF000BDE8F0830023E36007B0BDE8F083E3683B
:102E00005A68002A04DD1B68092B1DD00A2B1FD02D
:102E1000002ED1D020466760B04707B0BDE8F083F0
:102E20006FF07043984504D0404610F09FF803F0CF
:102E30008FFA002EC3D002AF94E80F0087E80F008E
:102E400038460395B047BAE728461FF009FBB6E7B6
:102E500028461FF04DFBB2E747F2F440C2F20000F3
:102E600000218170012141707047000000000000C6
:102E700080B58CB047F2F440C2F2000040780028E0
:102E800001D1FFE76BE147F2F440C2F20000807825
:102E9000092801DCFFE762E147F2F440C2F20000DA
:102EA0000021817002200DF10F01012200F070F964
:102EB0009DF80F004007002817D1FFE744F63C407B
:102EC000C2F20000007801280ED1FFE744F63C4032
:102ED000C2F200000021017046F6FC30C2F2000090
:102EE000017206F007FBFFE739E100200DF10F0149
:102EF0002122019000F04CF901988DF80E00FFE7B7
:102F00009DF80E00042853DCFFE79DF80E0000EB4F
:102F100040000DF10F0101EB4000407900098DF8F0
:102F200009009DF809000F2801DBFFE740E09DF84C
:102F30000E0000EB40010DF10F0202EB4101CB78D6
:102F4000097903F00F0341EA032147F2F443C2F287
:102F5000000303EB400081809DF80E0000EB400170
:102F600002EB410191F805C089790CF00F0C41EAA0
:102F70000C2103EB4000C1819DF80E0000EB4001E5
:102F800002EB4101C9788909184441779DF80E0088
:102F900000EB400102EB410149790909184401762F
:102FA000FFE7FFE79DF80E0001308DF80E00A7E760
:102FB00047F2F440C2F200000078552808D0FFE73D
:102FC00047F2F440C2F200000078A32821D1FFE7C5
:102FD00047F2F440C2F20000C189ADF80C108088BD
:102FE000ADF80A00BDF80C00B0F5F07F05DBFFE797
:102FF00040F2DF10ADF80C00FFE7BDF80A00B0F5B5
:10300000887F05DBFFE740F20F10ADF80A00FFE70D
:1030100078E047F2F440C2F2000000780A2821D19B
:10302000FFE747F2F440C2F200008188ADF80C10CF
:10303000C089ADF80A00BDF80C00B0F5487F05DB8B
:10304000FFE740F21F30ADF80C00FFE7BDF80A00C3
:10305000B0F5F07F05DBFFE740F2DF10ADF80A00C6
:10306000FFE74EE047F2F440C2F200000078542837
:1030700025D1FFE747F2F440C2F20000C189ADF864
:103080000C10808840F2DF11081AADF80A00BDF874
:103090000C0040F25631884205DBFFE740F2553024
:1030A000ADF80C00FFE7BDF80A00B0F5F07F05DBD6
:1030B000FFE740F2DF10ADF80A00FFE720E047F23B
:1030C000F440C2F200008188ADF80C10C089ADF860
:1030D0000A00BDF80C00B0F5487F05DBFFE740F2C1
:1030E0001F30ADF80C00FFE7BDF80A00B0F5F07F27
:1030F00005DBFFE740F2DF10ADF80A00FFE7FFE76E
:10310000FFE7FFE744F63C40C2F2000000780028E9
:1031100015D1FFE744F63C40C2F2000001210170E6
:10312000BDF80C0046F6FC32C2F200021060BDF899
:103130000A0050601172104606F0DCF90FE0BDF88D
:103140000C0046F6FC31C2F200010860BDF80A002E
:10315000486001200872084606F0CCF9FFE70CB081
:1031600080BD00000000000080B582B0A3200DF1FA
:103170000701012200F00CF89DF8070047F2F44126
:10318000C2F2000108709DF8070002B080BD000087
:1031900080B588B013468446ADF81E0006918DF8C0
:1031A00017200493CDF80CC02EF0CAFE70202EF02C
:1031B00077FE2EF0F9FE9DF81E10029008462EF0C4
:1031C0006FFE2EF0F1FE01902EF0BAFE71202EF06F
:1031D00067FE2EF0E9FE00218DF81610FFE79DF83E
:1031E00016009DF81710013988420FDAFFE72EF01C
:1031F00017FE06999DF8162088542EF0A1FDFFE7D2
:103200009DF8160001308DF81600E8E72EF008FE54
:1032100006999DF8162088542EF0EAFD2EF0ACFE9B
:1032200008B080BD0000000047F2F440C2F2000088
:1032300081780131817070472DE9F04F161A5D1ABF
:1032400085B09E4656EA0503DDF838B079D086EAA7
:10325000E673074685EAE5748946A3EBE673A4EBBB
:10326000E5749C422FDC1C460023A642019338D013
:1032700039464FF0FF336D42174674420A46F14615
:103280000393DBF8001095BBDFF80C830846019B25
:10329000D8F800E0002B00F0D1809EF81A30002B07
:1032A00000F0C481002CC0F2C881AA46B64E724616
:1032B000013B451C032B00F23481DFE813F04C0185
:1032C0004101580121013B4630462E4611464F46EA
:1032D0009946A6424FF00103724605468E46019379
:1032E000C6D10123DBF800100393002DCCD0002CB5
:1032F000DFF8A4822646D8F80000B8BF661C002D6F
:103300004FEA6606827EB8BF7642FAB9002C15DB1A
:10331000019B002B00F051819246034601E0D8F852
:1033200000305B6E0AEB07010AF1010A5B6896FB4D
:10333000F4F048442E4498475445F0DA05B0BDE80F
:10334000F08F05B0BDE8F04F00F07AB95A1C00F0DC
:103350002C81002C51DBCDF808904FF0000AC146BB
:1033600098464144CBF80010827E013A032A15D8D2
:10337000DFE802F055492B02844B4FEAE17E83FBE4
:103380000132CEEBA20202EB4202A1EBC2020B2AF7
:1033900012DD22F00402103A012A0DD9029B426E7E
:1033A00096FBF4F11944019B002B40F0F78038465E
:1033B00052689047DBF800100AF1010A01372E44E9
:1033C000544515DBD9F80000CBE76F4B4FEAE17E9F
:1033D00083FB0132CEEBE20202EB8202A1EB82021E
:1033E0000B2AD8DC0AF1010A01372E445445E9DAE8
:1033F000039A4346013200F0DE80CB1ACBF800304E
:1034000005B0BDE8F08F624A0A40002AC0F2E780AA
:10341000012ACCBF00220122002ACDD1BEE701F152
:10342000060E5C4A0EEA0202002AC0F2DD800B2A78
:10343000CCBF00220122002ABED1AFE79EF81A308D
:10344000002B00F0EA80002CC0F2F780DDF804A029
:1034500072464E4E013B451C032B13D8DFE803F0A8
:103460004337210286FB0031C317C3EBA10303EBF3
:103470004303A0EBC3030B2B0ADD23F00403103B33
:10348000012B05D9536E494607EB0A005B68984744
:103490000AF1010A544514DBD8F800202846937E2F
:1034A000D8E7394B83FB0031C317C3EBE10303EBD0
:1034B0008303A0EB83030B2BE1DC0AF1010A5445E3
:1034C000EADA691ECBF8001005B0BDE8F08F304B8A
:1034D0000340002BC0F29780012BCCBF00230123B7
:1034E000002BD5D1CEE7691D2A4B0B40002BC0F233
:1034F0008F800B2BCCBF00230123002BC8D1C1E749
:10350000224B83FB0031C317C3EBA10303EB43033F
:10351000A0EBC3030B2B0ADD23F00403103B012BAC
:1035200005D9536E0AEB070148465B6898470AF1D4
:10353000010A5445C5DBD8F800202846937EB7E63B
:10354000134B0340002B54DB012BCCBF0023012382
:10355000002BECD1E5E7691D0E4B0B40002B4DDB3A
:103560000B2BCCBF00230123002BE0D1D9E786FB36
:103570000031C317C3EBE10303EB8303A0EB830329
:103580000B2BCBDCD3E700BF67666666ABAAAA2A23
:10359000030000800F0000801800002008465268D9
:1035A00039469047DBF8001006E72144002CCBF8A1
:1035B0000010BFF6D0AE21441FE79A4601E0D8F8CC
:1035C0000000436E0AEB07000AF1010A5B6896FBF4
:1035D000F4F149442E4498475445F0DAAEE6013AF6
:1035E00062F00302013213E7013A62F00F02013286
:1035F0001DE7013B63F003030133A5E7013B63F0E3
:103600000F030133ACE7013B63F00303013363E7CE
:10361000013B63F00F0301336BE7DEF8643049468A
:1036200038461B6805B0BDE8F04F18473946484694
:1036300005B0BDE8F04F0EF059BD0D4641E700BFA3
:10364000064B1A68137E012B05D05A1E48BF1A4636
:10365000521000F005B8536E5B6818471800002040
:103660002DE9F04F40F2C3231546344A85B003FBE1
:1036700005F3DFF8CCA00190002D82FB03284FEA70
:10368000E373B4BF6C1C2C46C3EBA818019B05FB6D
:1036900005FB8946EE185F1BDAF8003008F10108D7
:1036A0000BEB640432465B6E384600941B68984707
:1036B000B8F1000F3FDD019B01241A19013B029272
:1036C00003931AE0013D019BEE185F1BDAF800300E
:1036D00009EB0401324638465B6E05FB05FB1B68AF
:1036E0009847DAF80030C4EB090101345B6E3246CA
:1036F00038461B689847A0451DDB04FB04BB009BB4
:103700005B45E3DAA845DDDA029A09EB0501DAF850
:103710000030161B039A5B6E171930461B683A4639
:103720009847DAF800303A4630465B6EC5EB09013F
:103730001B689847C6E705B0BDE8F08FD34D62100F
:103740001800002000292DE9F04F87B040F3E482F3
:103750001E4C054600EB810E274643F6FF74B5F973
:1037600002600435B442A8BF3446B742B8BF3746FA
:10377000AE45F4D10497164D2D686D6975B1B5F954
:103780000660049FF61AB5F90250B742A5EB03058F
:10379000A8BF3746AC42B8BF2C460497049DAC4244
:1037A00000F36982934606464D1EDFF828908A464C
:1037B00005930022074B92451A6040F35782059B00
:1037C000CDF80CB023440293EBE000BF01C0FFFF33
:1037D00018000020EC050020A64500F0DE8001DB8B
:1037E000A04205DDA042C0F2D880A64500F3D580F6
:1037F000704500F34382A645C0F2CF80A04200F39B
:10380000CC8036F922B0BCF90030CBEB0302C8EB18
:103810000403C8EB0E0E03FB02F3002B40F35882A7
:1038200003EB6E01DF4B1B680B2B00F3B680002B04
:1038300091FBFEF101EB0B02019240F33682581E20
:103840001146420009EB020EBEF904C0614500F3C7
:103850004F8209EB4308A8F804C0002800F0258235
:10386000981E4FEA400B09EB0B0CBCF90480414554
:1038700000F38C80AEF80480002800F01682D81E79
:10388000420009EB0208B8F904E0714500F32E820A
:10389000ACF804E0002800F00882A3F1040C4FEA21
:1038A0004C0E09EB0E00B0F9040081426EDCA8F862
:1038B0000400BCF1000F00F0F881581FB949420024
:1038C00001EB02080199B8F904B0594500F31882D8
:1038D000CE44AEF804B0002800F0E781981F4FEA0C
:1038E000400B09EB0B0EBEF904C061454EDCA8F895
:1038F00004C0002800F0D981D81F420009EB020C57
:10390000BCF90480414500F3F181AEF80480002841
:1039100000F0CB81A3F108004FEA400809EB080E44
:10392000BEF904B0594531DCACF804B0002800F011
:10393000BC81A3F10900420009EB020CBCF904C0F0
:10394000614500F3DB81AEF804C0002800F0AD81D2
:10395000A3F10A0093494FEA400C01EB0C0E0199C8
:10396000BEF90480414511DC4A44A2F804800028D5
:1039700000F09B81A3F10B00420009EB0200B0F9BB
:103980000400814200F3B881AEF804008548013399
:10399000BDF80410024403609180BA453A4640F3F2
:1039A000EF80AA4202F1010706EB82011346ACBF89
:1039B0004FF0000C4FEA870CB1F90200B444A0426A
:1039C0008046BCF902E07FF407AFA64500F06F81A6
:1039D000002DE2DD00215BB1013B013106EB8300EC
:1039E000B0F90200A0420BD1A942D6D0002BF3D1EE
:1039F0002B46013106EB8300B0F90200A042F3D060
:103A0000001BC4EB0E0E36F9222090EA0E0F40F197
:103A10004281644B1B680B2BBFDC002B40F35D81A4
:103A2000581E410009EB010CBCF904E0724500F39B
:103A30006A8109EB4308A8F804E0002800F04D81F2
:103A4000981E4FEA400809EB080EBEF904B05A452B
:103A500000F38D80ACF804B0002800F03E81D81E41
:103A6000410009EB010CBCF904C0624500F352812E
:103A7000AEF804C0002800F03081A3F104084948E2
:103A80004FEA480B00EB0B0EBEF904C062456EDC3A
:103A90004944A1F804C0B8F1000F00F01E81581F7E
:103AA000410009EB010CBCF90480424500F322817E
:103AB000AEF80480002800F01081981F4FEA400BF8
:103AC00009EB0B0EBEF90480424550DCACF80480D3
:103AD000002800F00281D81F410009EB0108B8F965
:103AE00004C0624500F30681AEF804C0002800F06F
:103AF000F480A3F1080C4FEA4C0E09EB0E00B0F96C
:103B00000400824233DCA8F80400BCF1000F00F08E
:103B1000E480A3F1090041000190224800EB010874
:103B2000B8F904B05A4500F3F080CE440198AEF8DD
:103B300004B0002800F0D180A3F10A004FEA400C45
:103B400009EB0C0EBEF904B05A4510DCA8F804B01D
:103B5000002800F0C280A3F10B01490009EB01002D
:103B6000B0F90400824200F3D380AEF804000D489F
:103B70000133BA45014403608A803A463FF711AFEA
:103B8000084BDDF80CB01B68002B6FDD012BB9F979
:103B900004006BD0044B5844B9F906201B68029FFF
:103BA00004E000BFEC050020180000205A445B6EC2
:103BB00039461B689847D9F80030022B56DD032B95
:103BC000B9F9080052D0574B5844B9F90A20394680
:103BD0001B685A445B6E1B689847D9F80030042B69
:103BE00044DD052BB9F90C0040D04E4B5844B9F9CF
:103BF0000E2039461B685A445B6E1B689847D9F8FB
:103C00000030062B32DD072BB9F910002ED0454BC2
:103C10005844B9F9122039461B685A445B6E1B6838
:103C20009847D9F80030082B20DD3F4A092BB2F91C
:103C300014001BD03B4B5844B9F9162039461B6879
:103C40005A445B6E1B689847D9F800300A2B0DDD8B
:103C50000B2BB9F9180009D0324B3946B9F91A20A3
:103C600058441B685A445B6E1B6898470134049B98
:103C7000A342BFF69EAD07B0BDE8F08FA042FFF6AD
:103C80008CAEA6453FF789AEF046BCF900B036F9D8
:103C900022308646B9E5234B03991B680A440299F2
:103CA0005B6E10461B68984777E600226EE6BCF90B
:103CB0000030039836F9221001441818194B81423C
:103CC0001B680CDB5B6E0A4602991B68984764E62A
:103CD0004FEA6E010139591AA4E5002147E75B6EEE
:103CE0000246084602991B68984756E65A464DE632
:103CF0005A004BE659463AE7624647E6424645E6F1
:103D00004FEA4C0242E6590031E74FEA4C012EE7F8
:103D100061462CE741462AE7044C049443F6FF74BD
:103D200029E500BF18000020EC05002001C0FFFFBE
:103D3000204B70B51E6804F049F81F4C0025304632
:103D40000FF014F906F02EFE1C4B1E6804F03EF82E
:103D500030460FF045F906F025FE04F037F8012251
:103D600023681A7606F01EFE04F030F823689D855D
:103D700006F018FE04F02AF823685D8506F012FEAE
:103D800004F024F828460FF05DF906F00BFE0C4B0A
:103D90001D6804F01BF8236805B1DD6106F002FE22
:103DA00004F014F8236800229A76BDE8704006F00B
:103DB000F9BD00BF140000201800002010000020F2
:103DC0000C00002030B585B0019108B3044603F023
:103DD000FDFF204601F042FF04AB456E43F8040DA1
:103DE000184602F097F8019801F038FF04AB8460A0
:103DF00043F8080D184602F08DF8042228460DEB12
:103E0000020102F0ABF820461DF002FD06F0CAFDEB
:103E100005B030BD2DE9F04F90E8180099B0054687
:103E2000B3F5407F00F02B81014620461BF0AAFD30
:103E30000646002E00F0F1802B68053B212B00F296
:103E40001881DFE813F0250116011601160116018D
:103E500016012C0116011601160122001601160189
:103E6000160116011601160116011601160116019A
:103E7000160116011601160116011601160116018A
:103E80001601160116011601ED002046ED6801F03D
:103E9000E5FE0346C26A10A8996D0DF1500B126839
:103EA0000F931646059202915A6DD96D1B6E0192C1
:103EB0001F46039104931CF00FFD10AB0F98194699
:103EC0001BF0AAFE029AB3B210AE96E80300DF1907
:103ED0008BE803000398BDF852101E18BDF8560079
:103EE0001144BDF85020C01B019F19441A44BDF86D
:103EF00054303A44ADF856009B1BADF85210ADF863
:103F00005020ADF8543012AB9BE8030083E8030067
:103F100018461EF0F1FB0F9B586B06F01FF802F0DD
:103F200017FA0F9FD7F894301BB10021204698470D
:103F30000F9F97F86C30002B40F06F81059A10A905
:103F4000584607F0F3FD58461EF0D6FB0F9F97F832
:103F50003B20002A40F0F380D7F8943013B10121C0
:103F60002046984712A81EF0C7FB0F9B586E02F020
:103F700077F88046E8B100260F9B31460136586E2F
:103F800002F082F801F06AFE169080B107683846A8
:103F900001F064FE0346294638460E9323B11B68A0
:103FA00098470EA801F0B6FF16A801F0B3FFB04580
:103FB000E2D158461EF0A0FB0F9B986E02F050F81D
:103FC0008046E8B100260F9B31460136986E02F01C
:103FD0005BF801F043FE169080B10768384601F0A7
:103FE0003DFE0346294638460D9323B11B6898478A
:103FF0000DA801F08FFF16A801F08CFFB045E2D1AB
:1040000000201EF079FB0F9BD3F8943013B12046AB
:10401000022198470FA801F07DFF19B0BDE8F08F8D
:10402000EB68052B25D1AE6820461CF055FF864273
:1040300005D0AE6820461CF01FFF864219D16C687F
:10404000AE68204601F00AFE1690304615F036FFA5
:10405000074630461CF00EFD169BFE2820460CBF7E
:10406000C3F88070C3F88C701DF0D2FB16A801F065
:1040700051FF28461CF048F919B0BDE8F08F014601
:1040800020461BF07FFC0646204629F0D5F9D0E6F5
:10409000204629F0D1F928461CF036F9ECE72046F5
:1040A00001F0DCFD0346406E149301F0D9FF061EBB
:1040B0001CDD0024149B21460134586E01F0E4FFFE
:1040C00001F0CCFD169078B10568284601F0C6FDD8
:1040D000034612A8129323B15F6801F01BFF284624
:1040E000B84716A801F016FFA642E3D1149B986EBC
:1040F00001F0B6FF051E12DD0024149B2146013499
:10410000986E01F0C1FF01F0A9FD169028B100687A
:1041100001F092FB16A801F0FDFEA542EDD1149B23
:1041200018AC586E01F06CFF54F8103D986E01F019
:1041300067FF204601F0EEFE19B0BDE8F08F019B4D
:104140003BB9029B2BB9039B1BB9049B002B3FF48B
:1041500003AFFA6A16A92046D2F800801CF0A8FC2A
:104160001CF0E2FD05901CF0F1FD0299BDF95A200A
:104170000646019B0A44BDF958A0BDF95C90079220
:104180009A44039ABDF95E30C2EB0909049AB86BF0
:104190009A1A069205F0E2FEF86B05F0EBFE019B21
:1041A00043B15A1E0599B5F9003042445B1A9A4250
:1041B00080F2E580029B3BB1013BB5F9022043440C
:1041C000921B934280F2EF80039951B1BDF95C20BC
:1041D000B5F90430501A059901305F1AB84240F31E
:1041E000F380049BBBB11946BDF95E30B5F90620DA
:1041F000591A961B0131B1420DDCBDF95C20BDF9A5
:10420000580002F0E1F8069809F101020AF1FF31C5
:10421000013003F095F80F9F9EE616A920461CF08A
:1042200047FCFB6AD7F844901B68386C0993BDF9CA
:104230005E30D7F848800793BDF95A30BDF95CA0CD
:104240000893BDF9586005F095FE03F073FC0690E5
:10425000B9F1000F49D0B7F87820FB6CD2074B4476
:1042600054BFD7F88C2000221344994503DCC9EBD6
:1042700003039945FBDD0A93C6EB0A0A019B0399E8
:1042800097F87A005A18C2F10102924405F004FF2F
:104290000A9B9A4529DD0999019A099411440A95C6
:1042A000CDF82C805E18029C049D884606E003F041
:1042B00073F84E44C8EB06039A4513DDBDF95AE086
:1042C0003246BDF95E303046A64497F87AC05B1B93
:1042D0007146BCF1000FEAD11A467146304603F030
:1042E00041FAE6E709AC94E83001B8F1000F42D09A
:1042F0003B6DD7F8806043449E1BB04503DCC8EBA0
:104300000606B045FBDD029A049B0899D318079A6C
:1043100097F87B00C1EB0209C3F10103994405F052
:10432000BBFEB14527DD08950794039DDDF810A07D
:1043300005E0214603F030F84644B14519DDBDF9EA
:104340005E40019BBDF95810CAEB0404BDF95CE066
:104350001944A41BC5EB0E0E97F87BC008462346F4
:104360007246BCF1000FE4D17246204602F0E8FF2D
:10437000E2E7079C089D069805F08EFEDEE5BDF994
:104380005E30049F0299DB1BBDF9580041440133A4
:1043900002F01AF8069B0AF1FF305A1C079B591EBF
:1043A00003F0E0F906E7BDF95C20BDF95A10BDF94C
:1043B000580002F009F8079B09F101020AF1FF31E8
:1043C000581E02F0BDFFFFE6BDF95E30049F029962
:1043D000DB1B4144013301F0F7FF079B09F10100AA
:1043E000591E069B5A1C03F0BDF9FAE62DE9F04F61
:1043F0008B46B0F90C1089B0B0F90A60856901EB01
:104400000308438A1644B0F90E900027B0F910A0B3
:104410006C350593B0F9084003F0D8FCDFF878E07C
:104420003046CDF800B04146039553464A46CDF894
:1044300008E001971BF06CFE064628B301F0DCFD96
:10444000814601F0D9FD0546304601F007FC3A46A9
:1044500008AF21468566C0F8649007901BF04CFCBD
:104460000C4D57F804ED0FCD0EF134040FC40FCDF1
:104470000FC495E80F0084E80F00BDF814303846EB
:10448000AEF8783001F046FD06F08CFA304609B0FF
:10449000BDE8F08F70000020153E00082DE9F047C0
:1044A00082B080460E4617461D4603F08FFC2C2036
:1044B00001F078F9044628B906F074FA204602B0F3
:1044C000BDE8F087700001F06DF9002F18BF002DD6
:1044D000814600D0D8B90DF1040A2046134F01F0EF
:1044E000BDFB13490346134A50460193C3F8249079
:1044F000C3F818805E611D61DF6083E8060001F08B
:1045000009FD06F04FFA204602B0BDE8F08701F041
:10451000A5FB0DF1080A084B39464AF8040D6A005C
:104520001B689847504601F0F5FCD6E76DCB0208B2
:1045300075D9020871D702080001002000B9704740
:10454000F0B5044683B00F461D46164603F03EFC08
:10455000204601F083FB02AB089A43F8040D026683
:1045600047658665C565184601F0D4FC204628F0ED
:1045700063FF20461DF04CF906F014FA03B0F0BDBD
:104580002DE9F04385B0064601F068FB034604A818
:10459000D3F8549040F80C3DD3F85C801F6E9C6DAE
:1045A00001F0B8FC304602A91CF082FABDF80A00FE
:1045B000BDF8085002A9BDF80C200444BDF80E3027
:1045C0004D44C8EB02023046DB1BADF80850ADF895
:1045D0000A40ADF80C20ADF80E301DF0A7F805B07C
:1045E000BDE8F0830000000080B584B046F694403A
:1045F000C2F200000021417040F25021C2F20001DD
:1046000040F2A2626A23019010461A4600F054F963
:1046100001988178BA290CD1FFE740F2E010C0F28E
:104620002030039040F2DD6003A9042200F044F939
:104630000BE040F25820C0F20040029040F2DD60F2
:1046400002A9042200F038F9FFE746F69440C2F2CE
:104650000000002141700121017004B080BD000004
:1046600080B584B00020CDF80B00029046F694404F
:10467000C2F200000078002801D1FFE79EE046F674
:104680009440C2F200004078132801DCFFE795E077
:1046900046F69440C2F200000021417040F22170C1
:1046A00002A9012200F08CF88DF803009DF80300A8
:1046B000002801D1FFE781E09DF80800C00700282D
:1046C00017D1FFE744F64440C2F200000078012809
:1046D0000ED1FFE744F64440C2F200000021017011
:1046E00046F6FC30C2F20000017204F003FFFFE75F
:1046F00064E002A8411C40F22270062200F060F83B
:104700008DF803009DF80300002801D1FFE755E074
:104710009DF8080046F69441C2F20001C8709DF869
:10472000090008719DF80A009DF80B2042EA00205C
:10473000C8809DF80C009DF80D2042EA00200881F9
:104740009DF80E0088720889ADF80600C88840F20E
:10475000DF12101AADF80400887A002801D1FFE7B3
:104760002CE044F64440C2F200000078002815D145
:10477000FFE744F64440C2F2000001210170BDF899
:10478000060046F6FC32C2F200021060BDF80400DA
:1047900050601172104604F0ADFE0FE0BDF8060047
:1047A00046F6FC31C2F200010860BDF80400486022
:1047B00001200872084604F09DFEFFE704B080BDAA
:1047C00080B586B013468446ADF8140004918DF888
:1047D0000F200293CDF804C02DF0B2FB46F69440B2
:1047E000C2F2000080782DF05BFB2DF0DDFB00288D
:1047F00001D0FFE74DE09DF815002DF051FB2DF0A5
:10480000D3FB002801D0FFE743E09DF814002DF012
:1048100047FB2DF0C9FB002801D0FFE739E02DF060
:104820008FFB46F69440C2F2000080780130C0B29F
:104830002DF036FB2DF0B8FB002801D0FFE728E073
:104840000020ADF80C00FFE7BDF90C009DF80F103B
:10485000013988420FDAFFE72DF0E2FA0499BDF939
:104860000C2088542DF06CFAFFE7BDF80C000130E5
:10487000ADF80C00E8E72DF0D3FA0499BDF90C204F
:1048800088542DF0B5FA2DF077FB01208DF8170034
:1048900005E02DF071FB00208DF81700FFE79DF873
:1048A000170006B080BD000046F69440C2F200003A
:1048B000417801314170704780B588B01346844615
:1048C000ADF81E0006918DF817200493CDF80CC0AA
:1048D0002DF036FB46F69440C2F2000080782DF0B1
:1048E000DFFA2DF061FB9DF81F10029008462DF0B5
:1048F000D7FA2DF059FB9DF81E10019008462DF0B7
:10490000CFFA2DF051FB00218DF81610FFE79DF82E
:1049100016009DF8171088420FDAFFE706989DF8F9
:104920001610405C2DF0BCFA2DF03EFBFFE79DF821
:10493000160001308DF81600E9E72DF01DFB08B0D8
:1049400080BD00000000000080B582B046F6B8408F
:10495000C2F2000000214170322201901046009105
:104960002BF08AFD00980199487001220A7002B06C
:1049700080BD00000000000080B584B000208DF8EC
:10498000010046F6B840C2F200000078002801D1CC
:10499000FFE7D1E046F6B840C2F2000040780928AF
:1049A00001DCFFE7C8E046F6B840C2F20000002193
:1049B000417048F24E100DF10601012200F0D0F8CE
:1049C0008DF800009DF80000002801D1FFE7B3E05A
:1049D0009DF80600000700282FD1FFE748F24E108F
:1049E0000DF10101012200F037F944F64C40C2F20A
:1049F0000000007801281FD1FFE744F64840C2F2CA
:104A000000000168013101600068032813D3FFE74B
:104A100044F64C40C2F200000021017044F64840C8
:104A2000C2F20000016046F6FC30C2F200000172E2
:104A300004F060FDFFE7FFE77EE00DF10600411C9A
:104A400048F24F10052200F08BF88DF8000048F274
:104A50004E100DF10101012200F0FEF89DF800005A
:104A6000002801D1FFE767E09DF8060046F6B8414F
:104A7000C2F20001C8709DF8070008719DF8080097
:104A80009DF8092040EA0220C8809DF80A009DF8A0
:104A90000B2040EA02200881C888ADF8040008898C
:104AA000ADF80200BDF80400B0F5487F05DBFFE774
:104AB00040F21F30ADF80400FFE7BDF80200B0F58A
:104AC000F07F05DBFFE740F2DF10ADF80200FFE703
:104AD00044F64C40C2F200000078002815D1FFE7F0
:104AE00044F64C40C2F2000001210170BDF8040000
:104AF00046F6FC32C2F200021060BDF802005060BF
:104B00001172104604F0F6FC0FE0BDF8040046F602
:104B1000FC31C2F200010860BDF8020048600120CB
:104B20000872084604F0E6FCFFE744F64840C2F28B
:104B3000000000210160FFE704B080BD000000001C
:104B400080B582B048F2401001A9042200F008F8B4
:104B500001990090084602B080BD000000000000EE
:104B600080B586B013468446ADF8140004918DF8E4
:104B70000F200293CDF804C02DF0E2F946F69440E0
:104B8000C2F2000080782DF08BF92DF00DFA00288C
:104B900001D0FFE74DE09DF815002DF081F92DF0D3
:104BA00003FA002801D0FFE743E09DF814002DF040
:104BB00077F92DF0F9F9002801D0FFE739E02DF061
:104BC000BFF946F69440C2F2000080780130C0B2CE
:104BD0002DF066F92DF0E8F9002801D0FFE728E074
:104BE0000020ADF80C00FFE7BDF90C009DF80F1098
:104BF000013988420FDAFFE72DF012F90499BDF967
:104C00000C2088542DF09CF8FFE7BDF80C00013013
:104C1000ADF80C00E8E72DF003F90499BDF90C207C
:104C200088542DF0E5F82DF0A7F901208DF8170034
:104C300005E02DF0A1F900208DF81700FFE79DF8A1
:104C4000170006B080BD000046F6B840C2F2000072
:104C5000417801314170704780B588B01346844671
:104C6000ADF81E0006918DF817200493CDF80CC006
:104C70002DF066F946F6B840C2F2000080782DF0BB
:104C80000FF92DF091F99DF81F10029008462DF0B4
:104C900007F92DF089F99DF81E10019008462DF0B6
:104CA000FFF82DF081F900218DF81610FFE79DF82F
:104CB00016009DF8171088420FDAFFE706989DF856
:104CC0001610405C2DF0ECF82DF06EF9FFE79DF822
:104CD000160001308DF81600E9E72DF04DF908B007
:104CE00080BD0000014B83E803007047C002002034
:104CF000014B83E803007047C8020020014B83E8A2
:104D000003007047D0020020704700BF704700BF0B
:104D10002DE9F04F5C4E8DB03368DA69B3F922505B
:104D2000D469B4F80CB0834500F29780E1898142E0
:104D3000C0F093802168CBEB000B08914FF0FF315E
:104D40000A91BBF1FF3F00F0828092F81880A27CAC
:104D5000B3F92A10B3F9249018FB02F3084607911F
:104D60001F4694F810A00EF06DF9D6F800E00899EF
:104D70004346DEF838C05246099007FB0B10DEF8B8
:104D80001CE00B97012704904946CDF814C0284633
:104D900094F812C00297CDF80CC09EF81BC0DFF843
:104DA000E8B0CDF804C09EF81AE0CDF800E00CF0B1
:104DB000BDFF0A9F7B1C25D0079941F002000EF031
:104DC00041F9DBF800100B9A43460898D1F838C037
:104DD00002FB0700D1F81CE00127CDF814C00490B5
:104DE000524694F812C0494602972846CDF80CC0A6
:104DF0009EF81BC0CDF804C09EF81AE0CDF800E084
:104E00000CF094FF3368DFF88080DB695A7E1B7EEC
:104E10009A4215D9079B022B12D083F004000EF0A2
:104E200011F9D8F800302846DB691F7ED97E9A7EBA
:104E30005B7E07FB01910AFB02524B440DF07EF9A9
:104E40009DF824000EF0FEF83368B3F92250627C1E
:104E500015445D840DB0BDE8F08FA1680029F6D03F
:104E60000F88B842F3D3B1F802E08645EFD3C01BF8
:104E70004968676880B2089701EB800731F920B074
:104E8000B7F902100A915CE718000020044B1B6878
:104E9000DB69DB6909B11A7C0A60587C704700BF86
:104EA0001800002002230B80704700BFC3699A8955
:104EB0008A4202D8DA898A4211D2986818B10388E6
:104EC000994201D20020704742888A42FAD3C91A17
:104ED000436833F82100C043C0F3C030704701205D
:104EE000704700BF2DE9F04F3A4D89B02B68DA6961
:104EF000B3F92A90D36943B11A88904202D35988F2
:104F0000814205D29B68002BF6D109B0BDE8F08F35
:104F1000841AD3F80480484608EBC40696F802B019
:104F20000EF090F88246286818F834204FF0010EF1
:104F3000C769D0F838C0B0F92410B0F922003B7E20
:104F40000790CDF814C07068CDF80CB00490CDF87F
:104F500008E097F81BE00798CDF804E0BF7E0097C3
:104F60000CF0E4FE2B68DA69537E177EBB4223D92E
:104F7000B9F1020F07931FD092F81BB002F096FD13
:104F8000814602F05DFD04F0F5FF124B18F834E0A5
:104F90001868079BC169B0F92240CA7EB0F9241095
:104FA00020460EFB02420BFB03130BFB07110DF017
:104FB000C5F8484604F0DEFF50460EF043F82B6873
:104FC0007178D8695A8C807E00FB01225A8409B01E
:104FD000BDE8F08F18000020114B1B6870B4DD692C
:104FE000EB6943B11A88904202D35C88844205D2AF
:104FF0009B68002BF6D1184670BC7047821A5E6819
:10500000AC7E06EBC2035B7813FB04F00029F3D0FF
:1050100016F8323014FB03F370BC0B60704700BF0E
:105020001800002001230B80704700BFC06950B1F9
:1050300003888B4202D843888B4203D280680028C1
:10504000F6D17047012070472DE9F047244F3D68A5
:10505000002D3FDD234EC5EB4515DFF88C804FF06A
:10506000000A3468D8F8009004EB85050C340C3540
:10507000A4F10803742249461846FBF797F9221F4A
:105080002063A06344F80CAC6263E4607C34A54206
:10509000EED10024254603E082B13A68954213DA46
:1050A00005F09EFC336801351A5919197C34904279
:1050B000F2D10431C8F80010BDE8F087086004316F
:1050C000C8F80010BDE8F08719460431C8F8001090
:1050D000BDE8F087034BDFF810801968E9E700BFEF
:1050E0002C0000206004002018000020F8B5184FA4
:1050F000184B3846184E40F80C3F06F027FD346830
:10510000C4EB4414A400204600F0E6FB134B2246F7
:1051100000211B68386098474FF0FF33736005F03B
:105120008FFC3368002B0FDD0024254603E062B1BD
:1051300033689D4208DA05F053FC3B6801351A5983
:1051400023447C349042F2D1F8BD1860F8BD00BF12
:105150006004002059D802082C000020040100201F
:10516000F0B5059D161AB6EB450609D46F005C1A1A
:105170008E46E41B002C03DBBDE8F04000F002B8D3
:10518000F0BD00BF2DE9F04FDFF8049495B016464E
:105190009B4607460D4602F019FED9F8003093F8F9
:1051A0006920002A40F0F08193F8681004221191E0
:1051B00083F868201DF008FE07441DF013FE054427
:1051C0001DF002FE06441DF00DFED9F800308344A8
:1051D00093F869206AB993F868301E9A03FB07F7C1
:1051E00003FB02F203FB05F503FB06F603FB0BFBD7
:1051F0001E9202F0C1FCD9F8003093F868A000FBC1
:105200000AF00AF1010300F0FF045B104FEA5408B2
:1052100008EB0601C8EB0707C8EB0502C3441944B5
:10522000D8191A445B4408901D460F934B1E1E4626
:105230000993531E1F460E9300F0BCF9ADF84800C9
:10524000304600F0B7F9ADF84C00384600F0B2F93E
:10525000ADF84A00284600F0ADF9ADF84E0012A8AE
:105260001DF012FE002800F06F811E9B08EB030169
:10527000089B1A19099BA1EB5A011B1B013A002933
:10528000079103F10103109201FB01F207980393C8
:10529000A1EB04030E9C0A930B460A99B8BF013395
:1052A000002902EB63070B4601FB01F204EB00014E
:1052B000B8BF01330D9102EB63080F9A131A0A9AD3
:1052C0000B93109B134404934B1C0C93099908985F
:1052D00000F07EF9D9F800305B69002B00F04281C4
:1052E000B3F906200F99B3F902308A42A8BF0A46E3
:1052F00001920E9A9342B8BF134602930A9B002B69
:1053000040F33881079A1D4608994FF0000A0D9E18
:105310001446114405910999C2EB010BCDF818B060
:105320009B46029B9E422CDB019B9E4229DC0AFB92
:105330000AF304FB0432BA4209DD013C04FB0432E7
:10534000BA42FADC05FB0532424504DD013D05FBAE
:1053500005324245FADCD9F800303146049A059806
:105360005B6E521B001B1B689847039AD9F80030EC
:105370003146CBEB0200069A5B6E224428441B6840
:1053800098470AF1010A013EDA45CAD1DDF828B092
:10539000079B5B452FDD1A460D9BCDF81880CBEBA4
:1053A0000305099B90461946C2EB010A08998E181D
:1053B0000596029EAE4217DC019BAB4214DB0BFB51
:1053C0000BF204FB0423BB4204DD013C04FB042379
:1053D000BB42FADCD9F800300AEB040205982946F2
:1053E0005B6E001B1B6898470BF1010B013DD84514
:1053F000E0D1DDF818800C9B0B9A93421BDA0597DD
:105400001C469346089D099EDDF80CA0109FD9F814
:10541000003021463A4628465B6E1B689847D9F80B
:105420000030214601345B6E324650461B68984777
:105430005C45ECD1059F0A9B002B40F3A0801946E8
:105440001D46089A4FF0000A079B0B9E1A441C4603
:105450000592099AC3EB020BCDF818B08B46029B5C
:10546000B3422CDC019BB34229DB0AFB0AF304FBA9
:105470000432BA4209DD013C04FB0432BA42FADCD0
:1054800005FB0532424504DD013D05FB0532424581
:10549000FADCD9F800303146049A05985B6E521B4D
:1054A000001B1B689847039AD9F800303146CBEBB4
:1054B0000200069A5B6E224428441B6898470AF152
:1054C000010A0136DA45CAD1DDF828B0079B5B45F1
:1054D00033DD1A460B9BCDF814800BEB0305099BBB
:1054E000DDF808801946C2EB010A08998E18CDF83C
:1054F00008A0DDF804A001961646A84516DCAA45CA
:1055000014DB0BFB0BF204FB0423BB4204DD013C68
:1055100004FB0423BB42FADCD9F800302946029A86
:1055200001985B6E2244001B1B6898470BF1010B2E
:1055300001355E45E1D1DDF8148000F02BF81DF057
:1055400019FB00287FF4C2AED9F8003093F8692027
:105550001AB99DF8442083F8682005F023FA15B0A5
:10556000BDE8F08F0F9B01930E9B02930A9B002BCB
:105570003FF7C8AE079C4FF0000B234609E7079C96
:105580004FF0000B2346A2E70023119312E600BF61
:105590001800002008B526F0F1F9044B044A1B68F6
:1055A000916903F1080259665A6108BD180000208C
:1055B000DC040020054B1B6893F868300BB900B27F
:1055C000704790FBF3F000B2704700BF1800002056
:1055D0002DE9F047DFF818913E4CD9F80030276AE2
:1055E00093F8685090FBF5F691FBF5F5002F51D03C
:1055F0004FF00008384AA1681068B042B8BF304682
:105600002A1A8A4201DB01444D1EA8423FDD4FF0B9
:10561000010805464246596E20603048304EDFF89A
:10562000D4E0E561A1610568276103C95E6686E88B
:105630000300C4F82CE0384600212A4FA847D9F8C7
:10564000005006F1080E43F6FF76B5F90C204046EF
:10565000B5F90E3095F8681001320133C5F814E041
:10566000B5F808C012FB01F2B5F80AE013FB01F32C
:105670001CFB01F5013A013B67611EFB01F167600C
:1056800022876387A586E186E660BDE8F0872A1A4F
:105690000132C0E7144B1868A060B8B100F01CF9E3
:1056A000DFF830A0206260B1104B50464FF0000888
:1056B00040F8243F06F04AFADAF82070D9F80030B2
:1056C00098E7D9F800304FF0010893E70CF068FE36
:1056D000A060E3E7DC0400207C78002004010020C7
:1056E0000805002001C0FFFF4C79002051D90208B5
:1056F000180000202D9B020809B9084670472DE9C3
:10570000F0410E46054602F061FB02F05FFB3046B9
:105710001EF0FAFB044605F045F924B3174FFA6969
:105720007B6B013203EBC401FA6113F834200132C0
:1057300003F83420D1F8048008F10800C5B1104BFB
:10574000324629461B689847D8F800107A6B0B4DF3
:1057500012F83130012B03D9E86908B10138E8614A
:10576000013B02F8313005F01DF92046BDE8F0811B
:10577000044B324629461B689847E5E780780020AD
:10578000000100200401002000B9704710B5044654
:1057900002F01CFB20461EF0B7FB044605F002F9A0
:1057A000204610BDF8B5054602F010FB25B90024CF
:1057B00005F0F8F82046F8BD02F008FB28461EF078
:1057C000A3FB044605F0EEF8002CF0D0144E2A4658
:1057D000144F0021F069736B013003EBC405F061D5
:1057E00013F83400013003F834006D683B6805F1AC
:1057F000080098472968726B12F83130012B01D9E3
:10580000F06930B9013B02F8313005F0CBF82046A1
:10581000F8BD0138013BF06102F83130F5E700BF17
:10582000807800200401002021F00301014B83E86F
:1058300003007047D802002000B9704770B50D4CC6
:10584000054602F0C3FAEE00636B334459684868BA
:105850001EF0ACF96368626B0021606A0133164484
:105860006360706002F835106562BDE8704005F055
:1058700099B800BF8078002028B1034AD36B036039
:1058800003B15860D063704780780020F8B50546B2
:1058900002F09CFA2C68B4B10E4E02F097FAE700C1
:1058A000736B3B44596848681EF080F97368726BEB
:1058B0000020716A013317447360796002F8340084
:1058C000746205F06FF800232B60BDE8F84005F026
:1058D00069B800BF80780020F8B58B4E044696F872
:1058E0002830002B2FD00334356CF26B24F00304E6
:1058F0000434A54238BF254662B152F8043C144630
:105900009D4204D114E054F8043C9D4210D0246818
:10591000002CF8D1F368B46B1C4454F8041C611AD1
:105920000B68002B68D14B689D426FDD002408E0B6
:1059300023680BB161685960616801B10B60A242D4
:1059400056D02046F8BD714B01219A6886F8281080
:1059500058680AB982089A605A27102220254FF009
:10596000400E3762802732644FF48072B5644FF482
:1059700000751968C6F850E04FF4806EB7654FF4B3
:10598000006732664FF48052B5664FF40055A1F1BE
:105990001403C6F870E0B7674FF4804EC6F8802055
:1059A0004FF40047C6F888504FF480324FF400356A
:1059B0000344C6F890E04FF4802EC6F898704FF478
:1059C0000027C6F8A0200222C6F8A8500125B1631E
:1059D0007363C6F8B0E03261F060C6F8B8705D601D
:1059E000756275601EF0E2F824F060FE35637AE7B8
:1059F00023682046F363F8BD002028F0D3FA54F85A
:105A0000041C611A0B68002B90D18CE7581BD6F848
:105A1000B8703D4A041DBB420C4472D2D2F8B0703B
:105A2000BB426CD2D2F8A870BB4266D2D2F8A0704A
:105A3000BB4260D2D2F898709F425AD9D2F8907087
:105A4000BB4254D2D2F88870BB424ED2D2F880709A
:105A5000BB4248D2926F934243D2376F2A4ABB422D
:105A60003DD2976EBB4238D2176EBB4233D2976D90
:105A7000BB422ED2176DBB4229D2976CBB4224D2B7
:105A8000126C93420CD2F2687369521B2B44F26081
:105A9000736110B944F8045C53E71EF087F8F9E726
:105AA00000223768D1F808E0FF1ACB683760BEF1F2
:105AB000000F01D0CEF8043013B1C3F800E0E2E7E4
:105AC00006EBC202C2F844E0DDE70122E9E7022268
:105AD000E7E70322E5E70422E3E70522E1E7062200
